:020000040800F2
:10000000387E0020DD0100087F7D0008E76C0008D5
:100010007D7D00081D1B00084BA7000800000000A4
:100020000000000000000000000000004501000882
:100030003D1D00080000000089010008CD8900086E
:10004000F7010008F7010008F7010008F7010008B0
:10005000F7010008F7010008F7010008F7010008A0
:10006000F7010008F7010008F7010008891C0008E3
:10007000F7010008F7010008F7010008F701000880
:10008000F7010008F7010008050A000821A600088A
:100090002DA60008F7010008F70100082D3600081A
:1000A000F701000825900008F7010008F701000893
:1000B000F7010008F7010008F7010008F701000840
:1000C000F7010008F7010008F7010008558700084C
:1000D000F7010008CD930008D9930008F701000844
:1000E000F7010008F7010008F7010008F701000810
:1000F000F7010008F7010008F7010008F701000800
:10010000F7010008F701000839900008F70100081E
:10011000F7010008F7010008F7010008F7010008DF
:10012000F7010008F7010008F7010008F7010008CF
:10013000DFF80CD000F0E2FB00480047BDBC00082F
:10014000387E0020224B19680868B0E8F00F80F371
:100150000988BFF36F8F4FF0000080F311884EF0D5
:100160000D0E70470000000006480068006880F32C
:10017000088862B661B6BFF34F8FBFF36F8F00DFA1
:1001800000BF00BF08ED00E0EFF30980BFF36F8F01
:100190000F4B1A6820E9F00F106008B54FF05000BF
:1001A00080F31188BFF34F8FBFF36F8F0DF09EFD6B
:1001B0004FF0000080F31188BDE808401968086816
:1001C000B0E8F00F80F30988BFF36F8F704700BF6E
:1001D000EC000020EFF305807047000006488047E0
:1001E00006480047FEE7FEE7FEE7FEE7FEE7FEE71C
:1001F000FEE7FEE7FEE7FEE7A58B000831010008F9
:10020000202A04DB203A21FA02F00021704721FA6B
:1002100002F3D040C2F120029140084319467047D2
:1002200040EA01039B0703D009E008C9121F08C078
:10023000042AFAD203E011F8013B00F8013B521EF8
:10024000F9D27047D2B201E000F8012B491EFBD26F
:1002500070470022F6E710B513460A4604461946D1
:10026000FFF7F0FF204610BD421C10F8011B0029CB
:10027000FBD1801A7047034611F8012B00F8012BBF
:10028000002AF9D1184670472DE9FE4F804681EAD1
:100290000300C00F0C46009021F0004123F0004500
:1002A000B8EB0200A94105D24046214690461C46C3
:1002B0000B46024623F00040104347D0270DC7F3FA
:1002C0000A00C3F30A510290401A019040286BDAE9
:1002D000C3F3130040F4801B0098924620B1002322
:1002E000D2EB030A63EB0B0B01985946C0F14002B5
:1002F000504600F01CFA06460D4650465946019AF3
:1003000000F024FA10EB08006141002487EA115242
:1003100084EAE7731A4340D0009A62B3019A012A33
:100320004FEA075215DC001B61EB02014FF000425F
:1003300002EA0752CDE90042001C41F58011324625
:100340002B4600F024FA03B0BDE8F08F404621466A
:10035000F9E7001B61EB0201001C41F58013001856
:100360005B412018A2F5001747EB030140EAD57066
:10037000B6196D4111E06D084FEA360645EAC075C1
:100380004FEA0752001B61EB0201001C41F580118E
:1003900049084FEA30000019514132462B4603B05C
:1003A000BDE8F04F00F0E4B90098012240000023BE
:1003B000D0EB020263EBE073009821464FEAE07451
:1003C000B8EB000061EB0401E9E783F000435BE771
:1003D00081F0004158E72DE9FE4F81EA030404F063
:1003E000004421F0004100944FF0000B23F0004343
:1003F00050EA01045ED052EA03045BD0C3F30A540E
:10040000C1F30A552C44A4F2F3340194A0FB025426
:10041000C1F3130141F48011C3F3130343F48013B8
:1004200001FB024400FB034E840A970A44EA81540C
:1004300047EA8357A4FB076802958D0A05FB0785E9
:100440004FEA932C04FB0C542705029D4FEA0658F3
:1004500047EA1637B5EB08056EEB070C870E920ED0
:1004600047EA811742EA8312A7FB0201B6EB0B01B0
:1004700064EB00042B0D43EA0C335E1844EB1C5074
:10048000DA465146E7FB0201C5F313044FEA0B338A
:1004900043EA14534FEA0432019C43EA0603A4F1F1
:1004A0000C040294009CCDE900B400F070F903B094
:1004B000BDE8F08F00200146F9E72DE9F04D81EA13
:1004C000030404F0004B21F0004514464FF0000AED
:1004D00023F0004150EA050220D054EA01021DD069
:1004E000C5F30A570246C5F31303C1F31300C1F362
:1004F0000A5640F4801543F48013A7EB0608101B3E
:10050000D64608F2FD3873EB050002D308F1010866
:1005100001E092185B41B8F1000F03DA00200146B8
:10052000BDE8F08D00204FF48011064684460EE0B1
:10053000171B73EB050705D3121B63EB050306437B
:100540004CEA010C49084FEA300092185B4150EA2E
:100550000107EDD152EA030012D082EA040083EAD7
:100560000501084305D0101BAB4106D20122002330
:1005700006E000224FF0004302E06FF0010253104A
:100580001AEB06004CEB085110EB0A0041EB0B0193
:10059000BDE8F04D00F0ECB870B521F00043034326
:1005A0000CD0C1F30A550024D5EB040564EB040319
:1005B000D617AD1AB34102DB0020014670BD2018EA
:1005C00041EB025170BD0EB5C10F80EAE0700844E6
:1005D000CA07002140F233438DE80E000A460B465D
:1005E00000F0D5F803B000BD0EB540F233410291E2
:1005F0000021CDE900110A460B4600F0C8F803B00F
:1006000000BD70B5C1F30A5201F000450024C1F3EA
:10061000130140F2FF3341F480119A4201DA0020C5
:1006200070BD40F233439A42A2F2334203DC52429D
:10063000FFF7E6FD00E090402C43F1D0404270BD52
:1006400030B5041E71F1000404DB4FF00044404259
:1006500064EB0101141E73F1000405DB1C464FF02E
:100660000043524263EB04038B4208BF824230BD19
:1006700030B5041E71F1000404DB4FF00044404229
:1006800064EB0101141E73F1000405DB1C464FF0FE
:100690000043524263EB0403994208BF904230BDCD
:1006A00030B50B46014600202022012409E021FA42
:1006B00002F59D4205D303FA02F5491B04FA02F53F
:1006C0002844151EA2F10102F1DC30BD2DE9F05FD6
:1006D0000546002092469B468846064681464024B1
:1006E0001BE02846414647462246FFF789FD534610
:1006F0005A46C01A914110D311461846224600F0BE
:1007000016F82D1A67EB01084F46224601200021FA
:1007100000F00DF817EB00094E41201EA4F1010472
:10072000DFDC484631462A464346BDE8F09F202A92
:1007300004DB203A00FA02F1002070479140C2F138
:10074000200320FA03F3194390407047202A06DB68
:10075000CB17203A41FA02F043EAE07306E041FA8F
:1007600002F3D040C2F1200291400843194670477D
:1007700010B5141E73F1000408DA401C41F10001A9
:1007800092185B411A4301D120F0010010BD2DE900
:10079000F04D92469B4611B1B1FA81F202E0B0FAF7
:1007A00080F220329046FFF7C2FF04460F4640EA2F
:1007B0000A0041EA0B0153465A46084313D011463A
:1007C00053EA010019D0C8F140025046FFF718FD66
:1007D00005460E46504659464246FFF7A8FF0843D5
:1007E00005D0012004E020463946BDE8F08D002008
:1007F000054346EAE0762C4337430A986305E40A4A
:10080000A0EB08000022FD0A44EA47540A3002D552
:1008100000200146E9E7010510196941DDE90845B5
:1008200000196941BDE8F04DA2E72DE9F04D002324
:100830001A461B1A8A4103DB00200146BDE8F08DF1
:10084000C1F30A52C1F3130141F480154FF0000BBC
:10085000D10702D100186D41521E0027044640F214
:10086000FF11384601EB620A3E46804602460020F0
:100870004FF48011FFF7C4FCC2197141BB1846EB5D
:100880000100B4EB030C75EB000C04D3E41A65EB28
:10089000000517460E46241908F101006D418046F7
:1008A0003428E3DDF91946EB0600091BA84103D201
:1008B0004FF0FF32134601E0002213461BEB070006
:1008C00046EB0A51BDE8F04DFFF752BFC1F30A52A3
:1008D000C1F3130140F2FF3341F480119A4202DA6E
:1008E00000200146704740F233439A42A2F233425D
:1008F00002DC5242FFF784BCFFF719BF064C074DDC
:1009000006E0E06840F0010394E8070098471034DF
:10091000AC42F6D3FFF710FC9CC60108BCC6010828
:1009200070B58C1810F8015B15F0070301D110F8B1
:10093000013B2A1106D110F8012B03E010F8016BDE
:1009400001F8016B5B1EF9D12B0705D40023521E61
:100950000DD401F8013BFAE710F8013BCB1A921CC9
:1009600003E013F8015B01F8015B521EF9D5A142C7
:10097000D8D3002070BD000070B50121114804F0EB
:100980008DFB012816D000220F4810490024027068
:100990004B68C3F3C005AA4212D045786D1CEDB276
:1009A0004570192D0BD3447032B143F4801040F0E0
:1009B000080003E00122E7E723F00800486070BD6B
:1009C000447070BD0010014098020020E8780020BB
:1009D000704700001FB50020019002900390012095
:1009E00000906946044804F05DFA022200210348A1
:1009F0000CF04EFD1FBD00000010014098020020C9
:100A000070470000014803F0F2BD0000D803002049
:100A100070B5044600688168C943C9071CD1816864
:100A200021F00101816004F043FB05460FE000BFA7
:100A300004F03EFB401B022809D9A06A40F01000D8
:100A4000A062E06A40F00100E062012070BD206811
:100A50008068C043C007EBD0002070BD10B50146D0
:100A6000406A826A12F0500F05D0006A026BBDE83E
:100A7000104008461047816A41F4007181620168A4
:100A80008968C1F3424107290CD1017B51B9816AC0
:100A900021F480718162816AC90403D4816A41F0C2
:100AA0000101816203F0A0FD10BD10B5406A816AAA
:100AB00041F040018162C16A41F00401C16203F06A
:100AC00095FD10BD10B5406A03F08FFD10BD00000C
:100AD000F8B500260446009600688168C943C90736
:100AE00028D0816841F001018160134813490068F2
:100AF000B0FBF1F000E0401E00900028FBD104F0B4
:100B0000D7FA054611E000BF04F0D2FA401B0228D4
:100B10000BD9A06A40F01000A062E06A40F001002A
:100B2000E06284F824600120F8BD20688068C0433A
:100B3000C007E9D10020F8BDE800002040420F00C6
:100B400070B50221104804F0A9FAA0B100220F48A4
:100B50000F49002402704B68C3F38045AA4210D0AD
:100B600045786D1CEDB24570192D09D3447022B142
:100B700043F4802003E00122E9E723F48020486069
:100B800070BD447070BD0000000C01409A0200204E
:100B9000E878002010B504A000F076F8094808496C
:100BA00081600949C16010BD416D70547970652044
:100BB0002D2D2D2054444638353431200D0A0000A7
:100BC000C58F0008AC5F00200990000804490A782E
:100BD000032A03D1C968002900D0084770470000E4
:100BE000AC5F00202DE9F0410020164D164E044662
:100BF00068710127305D06F04DF970B16879315D9B
:100C000028B1A9702C7111A000F03EF809E06970BC
:100C10000EA000F039F86F71EC70641CE4B2042C83
:100C2000E8D3E878042808D00749091D51F82000C6
:100C300000B180470120BDE8F0810BA000F024F84E
:100C40000020F8E7AC5F0020CCEB0008416D70415C
:100C5000646472436865636B204F4B202D2D2D20FB
:100C60002558200D0A000000416D704164647243F4
:100C70006865636B206661696C200D0A00000000E6
:100C8000002040688047FEE70FB410B5FEB081AB8E
:100C900040F2F5116846809A09F090FD084C4FF03B
:100CA000FF3120680BF024F9694606A009F062FDC7
:100CB00020680BF093F97EB010BC5DF814FB0000C7
:100CC0003C000020257300002DE9FC410546092267
:100CD00075A10CF0C3FB0127764C012800D12770C9
:100CE000042275A128460CF0B9FB002601281AD170
:100CF000A6701E22691D72480CF0C0FB052271A16E
:100D00006F480CF0ABFB012800D1A770207828B900
:100D10004FF403720A21032007F094F913226BA108
:100D2000012009F003FD06226DA128460CF096FB78
:100D30004FF48678012813D006226BA128460CF0C8
:100D40008DFB09226AA128460CF088FB012817D0E8
:100D500009226AA128460CF081FB012815D018E071
:100D600057480C2205F109010D380CF087FB20785B
:100D70000028E6D142460A21032007F063F9E0E7A4
:100D8000687A302805D1277103E0687A302800D1CD
:100D9000267104225CA128460CF060FB01280CD1CE
:100DA00047480C22E91D0D380CF068FB207820B96B
:100DB00042460A21032007F045F9082254A128469B
:100DC0000CF04CFB014605F108008046012907D0D4
:100DD000082252A128460CF041FB01280FD017E051
:100DE0000146012268460CF049FB9DF800003028BE
:100DF00001D1E6706770012007F05CFE08E06670C4
:100E0000012007F057FE0E2247A1012009F08EFCB9
:100E1000082249A128460CF021FB012807D008220E
:100E200048A128460CF01AFB01280FD017E0012238
:100E3000414601A80CF022FB9DF80400302801D1A6
:100E40006670E770012007F035FE08E0E6700120CB
:100E500007F030FE0E2234A1012009F067FC0822C1
:100E60003BA128460CF0FAFA012801D107F022FE36
:100E700005223AA128460CF0F1FA012801D107F029
:100E800019FE082237A128460CF0E8FA012809D1FA
:100E900026700E2224A109F049FC13220BA1012087
:100EA00009F044FCBDE8FC8144415441494E495499
:100EB000200000004202002047564552200000005A
:100EC000C95F0020505930373200000041542B4296
:100ED00020534C444E204453505F313643480D005C
:100EE0004846434F4E4E2000484644495343200055
:100EF00041324450434F4E4E200000004132445096
:100F00004449534320000000474C42442000000065
:100F1000535050434F4E4E20000000005350504459
:100F2000495343200000000041542B4220424C45CD
:100F300041445620310D0000424C45434F4E4E2057
:100F400000000000424C454449534320000000008B
:100F5000535050444154412000000000474F544139
:100F600020000000534E4B494E4954200000000021
:100F700000280BD0012809D0022805D0032805D16C
:100F80005FF0000006F0E4BB0120FBE770470000C3
:100F90001FB5002001900290039002200090694646
:100FA000044803F07FFF0222002103480CF070FA8E
:100FB0001FBD0000000C01409A0200202DE9F05FE7
:100FC0000C4683464FF0210ABF4FDFF8008300260E
:100FD00001F1050902E100BF02F0A2FC94F86500EE
:100FE000062862D006DC0628F4D2DFE800F01027DD
:100FF000313B4A54202871D004DC102860D01128DD
:10100000E8D174E021286AD03028E3D152E10122EE
:101010002146584609F085FB2078AA2804D04128AB
:1010200008D04428D6D107E0012084F86500A848FC
:101030000670D3E0022057E0032055E00122611C36
:10104000584609F06EFB6078552844D110204BE0DB
:101050000122611C584609F064FB607854283AD19B
:10106000042008E00122611C584609F05AFB607810
:10107000422830D1302084F8650000BF84F86460D5
:10108000ACE00122A11C584609F04BFBA0782D28AA
:1010900021D10520EFE70122E11C584609F041FB70
:1010A000E078422817D10620E5E70122211D5846A5
:1010B00009F037FB207920280DD184F865A0DDE701
:1010C0000122A11C584609F02CFBA07884F864008A
:1010D000C01E4E2804D384F865607FE046E05BE0E4
:1010E0007CA0FFF7D1FD112084F8650076E094F82C
:1010F0006400E11CC01E82B2584609F012FB0028B1
:1011000032D094F86400401EC1B2204603F062F968
:1011100094F86420611E515C884221D13978584688
:10112000594507D000F036FD94F864202146674801
:101130000CF0A4F994F865106AA0FFF7A5FD00254E
:1011400007E000BF18F805106AA009F013FB6D1C3A
:10115000EDB2F8782044C078A842F3D800F0F2F855
:1011600084F8656084F86460BDE8F09F94F86410CA
:1011700001224944584609F0D4FA94F8640010F862
:101180000910202901D184F865A0401CC0B284F860
:101190006400962822D99EE794F8641001224944FD
:1011A000584609F0BEFA0A2253A1601D0CF056F908
:1011B00001281AD00A2253A1601D0CF04FF9012812
:1011C00013D094F8640010F809100D296ED0401C5B
:1011D0005FFA80F084F864006428DCD8584609F08F
:1011E0009DFA00287FF4F8AEBEE7617C00202C2930
:1011F00002D0A27C2C2A18D1E27B202A15D12C29DE
:1012000003D0A27C2C2A05D00FE0207C3138C0B25C
:10121000112109E0207CD022303800EB800002EB65
:1012200040000844C0B21221F97094F8641000F133
:101230000E02914237D3A0B311F809000D282DD129
:1012400039785846594501D000F0A4FCF8782118A7
:101250001E48CA78491C0CF011F92DA0FFF714FDA7
:10126000002506E018F8051022A0FFF70DFD6D1C03
:10127000EDB2F8782044C078A842F3D898F802007C
:101280004546401EC1B2114803F0A4F80F49AA78A0
:10129000491E515C884201D100F054F884F8646022
:1012A00019E700E002E0491CC8B293E7601DFFF7B0
:1012B0000BFDF3E70122A11C584609F032FAA07891
:1012C00000F03EFD07E700004902002052600020C8
:1012D000D8000020527820756461746120686561CF
:1012E000643A20005278207564617461203A2025A8
:1012F0007800000020257800535050444154414963
:101300004E440000424C4544415441494E44000083
:101310000D0A2052782064617461203A2000000098
:10132000704710B54FF4E1342146002007F09BFBD5
:101330002146012007F097FB2146BDE8104002201E
:1013400007F091BB2DE9FE43FE4EB41D3079F02825
:1013500002D2FF2000F066FB327900200421032333
:10136000F94D4FF001080B2A71D01BDC012A29D05E
:10137000F64F082A6CD00A2A22D172794FF0020C5B
:10138000132A73D024DCF249132A19D2DFE802F0C1
:10139000496FD1EEEDECEBEAE9E8E7E6E5E4E318C6
:1013A0001818D9000F2A76D0FF2A09D1E549F2781A
:1013B0006A394B7B9A4203D181F8690081F8680051
:1013C000BDE8FE8370790428FAD10322012140E0B0
:1013D000872A71D018DC832A6FD00CDCD948142AF4
:1013E00000F166006AD0152A69D0822AE8D12078F7
:1013F0000CEB0020A3E0842A7ED0852A7DD0862AAB
:10140000DED12078062150E2883A0D2AD8D2DFE8D2
:1014100002F0F0EF070707EEED070707BDC0EC008D
:10142000CEE795F8F60D002810D1207800280DD0D1
:10143000012810D00228C3D17868000304D485F8AD
:10144000F6CD607885F8F70D4FF40072F1E12FE2E8
:10145000CEE20320CFE17868000304D485F8F68D4E
:10146000607885F8F70D4FF48072E2E17FE0207834
:1014700078B1012810D0022815D0032820D00428E4
:1014800026D005283FD006289AD1BDE8FE4301F0BA
:101490007DBE0122CDE1A8E27868000390D4BDE8CA
:1014A000FE4300F0E5BC6078002889D07968090324
:1014B00032D400F009FE2FE04FE192E0EEE0DCE0F4
:1014C00060780028ACD07968090325D4012121E097
:1014D00060780028A4D07968090301D400F0DAFF0D
:1014E00060786FF4FE7101EB402082B20A21032084
:1014F00006F0A8FD607801E0AAE0F8E06FF0FC01DA
:1015000001EB40201BE06078002889D0796809034E
:1015100002D4002100F000FD6078C1074FEA4010BE
:10152000A0F120007DD000BF40F40040A5F8F20DEE
:1015300046E77868000328D42078A11C23E082B213
:1015400077E17868000320D47E480522A11C723020
:101550000BF094FFF0E788E170E151E12FE119E130
:1015600009E1FDE0E8E0C5E0B6E043E014E07868BA
:1015700000030AD473480522A11C77300BF07EFFCC
:1015800070492078723101F0D5FAFBE02078122101
:101590008BE12078132188E17868000320D46078FB
:1015A0008DF80000A0788DF80100E0788DF8020039
:1015B000E0792179A27900EB01606179090401EBFE
:1015C000022108440190607A217A6A4600EB0120EA
:1015D000ADF80800207800F00101400800F0A8FFF5
:1015E000D0E0207803EB0020A9E741E05BE139E19E
:1015F000CDE0BDE0786800034FD460788DF800003E
:10160000A0788DF801002079E17800EB0120ADF899
:101610000200207A6179E27900EB0160A179090486
:1016200000E020E001EB022108440190A07A617AF9
:101630006A4600EB0120ADF80800207BE17A00EB60
:101640000120ADF80A00207800F01F01400922E0D7
:101650002078C243D2069BD100F03F01202920F020
:101660001F00FFF461AF40F40040A5F8F40DA7E6B9
:101670002078C143C906EFD0A2E6796809030CD4EB
:10168000A178627801EB022101812179E27801EBF6
:101690000221418119E000F0ABFD73E07968090394
:1016A00070D461780170A17841702179E27801EB02
:1016B00002214180217A6279E37901EB0261A2790A
:1016C000120402EB03221144416020781D4A00F00D
:1016D0001F0140096632DEE77868000352D4A07823
:1016E000617800EB0121207800F0E0FB4AE02078EF
:1016F0000521DAE0786800030ED4207828B9217932
:10170000E27801EB0221A5F8961DA178627801EB41
:10171000022189B201F0C8FB7079217800EB012029
:1017200082B20A21032006F08DFC207800289ED189
:10173000BDE8FE4300F05ABA7868000322D461780D
:10174000207807E0526000209C610020E8780020AB
:101750004702002001F008FB14E020780721A4E0F4
:10176000786800030ED46178207801F037FA09E038
:101770002078082199E07868000303D42078611C60
:1017800001F070FB7079217800EB0120D7E620781A
:1017900009218AE0207885F8040E617885F8051E15
:1017A00001F030FD14E072790A21032002F5807205
:1017B00021E072790A21032002F500721BE02078F3
:1017C000012808D00228B2D14870601C05F000FD45
:1017D0000028EED0E7E74870601C05F0F9FC00280F
:1017E000E7D0E01D07F042F80028DCD172790A2129
:1017F000032002F5407203B0BDE8F04306F022BCBE
:1018000020787F4A01280CD0022890D11078012836
:1018100011D00B227BA103B00120BDE8F04308F0FA
:1018200085BF10784FF48672012802D0087800280E
:10183000C9D10A210DE64FF40372FAE72078012896
:10184000C1D17868000302D4607808F07FFF707916
:10185000217800EB012082B20A21032006F0F2FB7E
:101860000622E6E720780D211FE02078012802D02B
:10187000022806D00BE001F01FFA786840F400203F
:1018800004E001F04FFA786820F400207860707965
:10189000217800EB012082B20A21032006F0D2FB5E
:1018A0004FF47E42C5E720780E2101EB002046E68A
:1018B0007279052ABFF43CAEDFE802F0032D3D5BF0
:1018C0007D0026784FF47F42012E0ED0022E16D0D6
:1018D000812E9AD185F8F70DC5F8FC0D85F8F80D25
:1018E00085F8F90D85F8FA0D62E095F8F60D80B9E6
:1018F000607870B185F8F70D85F8F63D60E595F8EC
:10190000F60D30B9607820B185F8F70D85F8F61D31
:1019100056E50B219DE595F8F60D0328EED12178CB
:1019200095F8F70D8142E9D140F6AC5102EB002069
:10193000C5F8FC1D1BE095F8F60D0328DED12078D4
:1019400095F8F73D9842D9D1607885F8F80DD5F82B
:10195000FC1D401C01F13F04B0EB941F02D301F0C9
:101960003F0000E0402085F8F90D02EB032082B231
:10197000CFE795F8F60D0428C0D1207895F8F71D2B
:101980008842BBD120796178E27800EB0160A178D0
:10199000090401EB02210844C5F8FC0D207A6179A5
:1019A000E27900EB0160A179090401EB022108440E
:1019B000C5F8000E04E595F8F60D04289ED12078B0
:1019C00095F8F71D884299D1617895F8F80D814214
:1019D00094D10F4901EB8010B17809398AB2A11C6A
:1019E0000BF04CFD85F8FA8DEAE40E2209A112E70E
:1019F000707901288CD1786840F002007860DFE4CB
:101A00004902002041542B4220475645520D000008
:101A10009C61002041542B4220534F544120310DF2
:101A20000A00000010B586B041218DF80010542145
:101A30008DF801103E218DF802102D4901228DF8FC
:101A400003200B78002113B18DF8042006E0294A09
:101A500012780AB10222F7E78DF804108DF805100C
:101A60008DF808100D248DF8094055218DF80A10C5
:101A7000AA218DF80B10062109228DF80C108DF883
:101A800006201D4980228DF80720C9788DF80D1099
:101A90008DF80E0005210DF10A0002F09BFC8DF877
:101AA0000F0016488DF81040007870B101280AD157
:101AB00011226946124805F0F6F80A200BF022FFC1
:101AC00010A0FFF7E1F806B010BD124A00206946E9
:101AD0000B5C1354401CC0B21128F9D340220D49AD
:101AE0000D4807F00FFD64200BF00CFFEBE7000042
:101AF00045020020430200205260002049020020DD
:101B0000E80500200D0A2054782061636B203A20FC
:101B1000000000009803002068070020FEE7002076
:101B200070470020704700002DE9F0410F48002465
:101B30000F4EDFF84080D0F8B8524027285D30556E
:101B4000295D002008F0FAFD325D21460AA008F068
:101B500011FE88F80070A878401EA04203DD641CC6
:101B6000E4B2402CEAD30020BDE8F08168070020F1
:101B700098030020000000205553425F52785F42D6
:101B800075665B25645D203D2030782578200D0A40
:101B900000000000114910B591F8F61D00291BD175
:101BA0000F4C6178884201D1611C04E0A178884221
:101BB00004D10B49891C0A4801F022FE207838B173
:101BC000022807D04FF0FF30BDE8104006F053BEAA
:101BD0000448F9E70448F7E710BD00009C610020C5
:101BE000490200205555AAAA55AA55AA0B490C4AE4
:101BF0000020B1F8821D00BF32F81030994207D2A0
:101C0000084940F20D1208700A21032006F01ABAA2
:101C1000401CC0B22828EFD9704700009C6100200A
:101C2000A2C30108740200202DE9F0410A4802F025
:101C3000E9FB00270226094C012518B127706570C1
:101C4000A67006E0064802F0DDFB10B12670657054
:101C5000A7702570BDE8F0815555AAAA4902002059
:101C600055AA55AA10B50024204600F005F8641CBA
:101C7000E4B2042CF8D310BD024901EB001006F0C9
:101C800019BB000050030020014802F023BF0000F0
:101C90000804002030B590F840500124AC40C56BDA
:101CA0006C60046863604368102B036803D099601C
:101CB0000068C26030BD9A600068C16030BD704786
:101CC0001B4810B50078062830D11A480021421E62
:101CD000047813789C4228D043785B1CDBB24370B5
:101CE000192B23D341701448436844B143F40021B5
:101CF000416001201070044600F0DEFF06E023F48E
:101D0000002343601170022401F00CF80E2000EB58
:101D100004220A21032006F095F90A21BDE81040AB
:101D20004FF47E42032006F08DB9417010BD0000D3
:101D300090020020A7020020E878002070470000F1
:101D400070B5274C4FF4FA75042832D015DC002802
:101D500026D0012825D0022827D0032820D1002210
:101D60004FF400663146204603F09DF9284606F000
:101D7000A1FE0122314620462DE005281DD006286F
:101D80000ED010280CD10024204602F087F901F073
:101D9000C7FD082006F08EFE641CE4B2082CF3D9BF
:101DA00070BDBDE8704009F047BD00224FF4805679
:101DB000D8E700224FF40056D4E70A4E4FF480745F
:101DC00000222146304603F06EF9284606F072FEE6
:101DD000012221463046BDE8704003F064B900009E
:101DE000001401400008014010B5044601F046F817
:101DF0000CB100F049FE00F02DFB00F0C9F800F036
:101E00007BF80CB101F0D0F800F048FFBDE81040BD
:101E100000F0D6BF0A4810B5002180F8F11DA0F8E7
:101E2000F21DA0F8F41D80F8F01D80F8F61D00F0FA
:101E300009F80121BDE810400846FFF7D5BF0000B2
:101E40009C61002070B5084D002400BF05EBC40064
:101E50000822064900F55B600BF010FB641CE4B23D
:101E6000082CF3D370BD00009C6100201EC1010846
:101E70000D4910B5002081F8F10D02F081FA012121
:101E80000846FFF7B1FF0121084601F00FFA0022D2
:101E90000A21032006F0D6F80A21BDE810404FF4CD
:101EA0007E42032006F0CEB89C61002038B505467E
:101EB00000200C460090082D19D8002D17D0200EB8
:101EC0008DF80000200C8DF80100200A8DF802002A
:101ED00007488DF803406B4630F8151004220020A7
:101EE00006F008FC034800EB4500A0F8704D38BD33
:101EF000F0C001089C61002000200649024600BF96
:101F000001EB4003401C80B2A3F8702D0928F7D3E1
:101F1000704700009C6100202DE9F0410E46082822
:101F200025D820B3401EC7B2184807EB470100244C
:101F300000EBC115012E1CD004EB440005EB800022
:101F400090F8701141F0010180F8701104EB440029
:101F500005EB80022146384602F5B87200F048F9D8
:101F6000641CE4B2202CE5D30120BDE8F081002000
:101F7000FBE7642006F0AAFD04EB440005EB8000BB
:101F800090F8701121F00101DEE700009C61002053
:101F90002DE9F0470022DFF858A0164D164601271C
:101FA0004FF4166440F2DC5C4FF08D0902EB420303
:101FB00000200AEBC31300BF00EB400103EB8101DB
:101FC00081F8707181F87161A1F8724155F8208033
:101FD000C1F87481401CA1F878C180B2A1F87A914F
:101FE0002028E9D3521C92B2082ADFD3BDE8F0873B
:101FF0009C61002078C101082DE9F0412D4CB4F816
:10200000F22D100425D52C4D2E4F4FF000062878C8
:10201000401CC1B22948297003782948007803433D
:10202000387818D0042902D328B1022803D008290F
:102030000FD301280DD104202E7000EB022030E0D8
:10204000B4F8F20D401CA4F8F20DC00601D1A4F8BA
:10205000F26DBDE8F081042902D0282904D00DE0FA
:1020600020B1022802D0F4E701280AD1142000EBA5
:10207000022082B20A21032005F0E4FF2878082814
:1020800003D3387838B1022805D028783C28E0D32B
:1020900038780128DDD12E7094F8F20D152101EB6E
:1020A000002082B20A21032005F0CCFF0028C7D10E
:1020B000CFE700009C6100204E0200204302002078
:1020C0004402002049020020FEB5082824D818B395
:1020D000401EC5B2012000218DF800008DF80110CE
:1020E0004FF41660ADF8020040F2DC50ADF8080085
:1020F0008D200A4EADF80A000C4600BF56F82400A9
:1021000001906A462146284600F072F8641CE4B249
:10211000202CF3D30120FEBD0020FEBD78C10108B4
:102120002DE9F0412D4CB4F8F42D100425D52C4D9B
:102130002E4F4FF000066878401CC1B229486970E4
:102140000378294800780343387818D0042902D34B
:1021500028B1022803D008290FD301280DD104206B
:102160006E7000EB022030E0B4F8F40D401CA4F8CF
:10217000F40DC00601D1A4F8F46DBDE8F081042986
:1021800002D00C2904D00DE020B1022802D0F4E7DF
:1021900001280AD1142000EB022082B20A21032078
:1021A00005F050FF6878082803D3387838B1022842
:1021B00005D068781928E0D338780128DDD16E7011
:1021C00094F8F40D152101EB002082B20A210320BE
:1021D00005F038FF0028C7D1CFE700009C61002040
:1021E0004E02002043020020440200204902002049
:1021F000F0B591B014460D46064608282ED21F2D84
:102200002CD261884FF49652002004F0FAFF6080CF
:102210003F4A0020616804F0F4FF6060218940F6C5
:10222000B832002004F0EDFF208161894FF4C862CC
:10223000002004F0E6FF7100364A80B201EB151170
:10224000608132F8111005F00F0202EB8202114496
:102250008FB22178C9070CD0617811B1002011B07C
:10226000F0BD00902389618802A8626801F0F2F84D
:102270000FE04FF4967006F029FC0020CDE9020033
:10228000CDE904002449CDE90800CDE90601CDE9F6
:102290000A002078C0060BD5039981F00041039114
:1022A000059981F000410591079981F0004107915E
:1022B000DDE902010CAA06F055F9DDE904010DAAD9
:1022C00006F050F9DDE906010EAA06F04BF9DDE94A
:1022D00008010FAA06F046F9DDE90A0110AA06F086
:1022E00041F90CAB05223946002006F079F90B497B
:1022F00006EB460001EBC01005EB450100EB810049
:1023000094E80E0000F5B87080E80E000120A6E702
:1023100000770100F8C101080000F03F9C61002037
:102320002DE9F047494E4A4C4FF0040AB0784FF07F
:102330000309401CC7B2B77094F8F70D96F801C0B6
:102340000025D4F8FC1D09EB00230AEB0022BCF1A8
:10235000050F78D2DFE80CF0030B193A58009AB257
:102360000B21032005F06EFEB570012006E039B1A7
:1023700092B20B21032005F065FE0220707062E02E
:102380000A2F60D3B5709AB21BE094F8FA0DA0B191
:1023900094F8F80D3F31401CB0EB911F02D386F842
:1023A000019007E0B57084F8F80D92B20B2103207C
:1023B00005F048FE84F8FA5D45E0322F43D3B5704E
:1023C00092B20B21032005F03DFE3CE00022204BA1
:1023D000104603E013F8017B401C3A448142F9D8CF
:1023E000D4F8000E904202D186F801A02BE075705F
:1023F000B570C4F8FC5D84F8F85D84F8F95D84F884
:10240000FA5DC4F8005E1EE000F0E2FDD8B10121E3
:102410007570084600F04AFF94F8F70D84F8F10D46
:1024200004F6F45401F0ACFFE570A5602571657108
:10243000A5714FF402420B210320E56005F002FE76
:102440000120BDE8F0870020FBE7000076020020B5
:102450009C610020F0B500210D4D012403220B46A4
:10246000142644F6206700BF01EB410005EBC000D5
:10247000491C00F8B04F89B20473427042738270F5
:10248000827307614660038183820829ECD3F0BD23
:102490009C6100203EB508281DD8E0B1401EC4B2A2
:1024A00001208DF8000003208DF801008DF8020056
:1024B000142000210190ADF808106A46204600F073
:1024C00037F844F6206001906A460121204600F06A
:1024D0002FF801203EBD00203EBD000070B506462D
:1024E0000020114C012900D1207021780F4D11B12D
:1024F000012914D110E0304600F09CFA78B185F83B
:10250000F16D01F03DFF4FF480720B21032005F0C7
:1025100099FD0120207002E095F8F71D09B1002017
:1025200070BD2070012070BD760200209C610020EB
:102530002DE9F04FBBB0894606461446142130A859
:10254000FDF787FE082E2FD2B9F1020FFBD2B0485B
:1025500006EB460100EBC10109EB490001EB8000ED
:10256000369090F8B0002178C0F30010C1F300114C
:1025700080EA010AA74A0020616804F042FE024690
:10258000606020780DF1580BC1070CA820AD2E908B
:102590006FD06078002703214FF00408012804D091
:1025A00002285ED003286ED08DE0A078012806D0E6
:1025B00003280AD0052814D007282FD083E02389C8
:1025C000494602A801F0AEF963E02389494602A812
:1025D00001F02AFB2389494662682E9801F024FB0A
:1025E00093E0CDE9001788462389494602A801F007
:1025F000F9FB2389494662682E9801F093F9CDE9E9
:102600000087238949465846626801F0EBFB23891D
:1026100049462846626801F085F97CE00020CDE952
:1026200000802389494602A801F0DCFB0127CDE99F
:1026300000872389494662682E9801F0D3FB002069
:10264000CDE90080238949465846626801F0CAFBFB
:10265000CDE90087238949462846626801F0C2FB1C
:1026600059E0A078012805D002280DD0032817D002
:1026700029E06CE02389494602A801F007FA2E9868
:1026800001F0A0FB41E017E02389494602A801F0D0
:10269000FDF92389494662682E9801F043F934E038
:1026A0002389494602A801F0F1F923894946626865
:1026B0002E9801F0EBF928E0A078012807D0022835
:1026C0000BD0032811D000203BB0BDE8F08F238948
:1026D000494602A801F0A8FAD1E7CDE900172389FD
:1026E000494602A801F07EFBD3E7CDE900872389A4
:1026F000494602A801F076FB0120CDE9008023893C
:10270000494662682E9801F06DFB584601F05AFB6D
:10271000284601F057FB2078C0060BD5039981F0BD
:1027200000410391059981F000410591079981F0DD
:1027300000410791364806F1010800EB060BBAF19B
:10274000000F15D09BF8990D012808D010E04FF428
:10275000967006F0BBF902A801F034FB8FE7002267
:1027600008F0FF00114600F04BFA0A2006F0A2F92B
:1027700032A82F9033A82E9034A82D9026480027F9
:1027800000EB061030AD00EBC90900BF07EB870175
:1027900002A800EBC10630AAD6E9000105F0E2FE6E
:1027A000D6E902012A1D05F0DDFED6E904012F9AC3
:1027B00005F0D8FED6E906012E9A05F0D3FED6E93B
:1027C00008012D9A05F0CEFE39F8171030AB05221E
:1027D000002005F005FF7F1CFFB2042FD6D3BAF10D
:1027E000000F0CD09BF8990D012808D11E2006F08F
:1027F00061F908F0FF000022012100F001FA36988B
:1028000094E80E00B03080E80E0001205CE7000084
:102810009C6100200077010018C201082DE9F05FDB
:10282000824652480C4600EB0A095149514A0AEBCC
:102830004A0002EBC00801EBCA074E494B4A103967
:1028400001EB4A0010324FF0010B02EB0A0630F8A0
:10285000021C00251B3A584605F094FE43480B38ED
:10286000C178027801EB026142788078120402EBB1
:10287000002008443D490C398860FDF7A4FE6FF044
:102880001702FDF789FE21F000410022134647E9B7
:102890000201FDF7D5FE03D109F8015CBDE8F09F08
:1028A00058F8182C58F8143C57E90201FDF7C8FEF7
:1028B0001ED22078322801D309F8015C2078401C10
:1028C000C0B2207064280DD3257016F8010C48B9E9
:1028D00006F801BC01220021504600F091F90220C7
:1028E000FEF746FB16F8010C0128D7D12570D5E775
:1028F00058F8102C58F80C3C57E90201FDF7B8FEC7
:10290000F4D258F8082C58F8043C57E90201FDF7B6
:10291000AFFE12D21848007806280FD12078401C4C
:10292000C0B220700A2809D3257009F801BC012221
:102930001021124802F0B7FB00E0257016F8010CD8
:102940000128ABD10E4906F8015C01EB0A0090F8B2
:10295000980D0128A2D101221146504600F050F9ED
:10296000BDE8F05F0320FEF703BB00005C0200201F
:10297000A86F0020D0C2010890020020001801407A
:102980009C610020274810B590F8F01D032947D11D
:1029900025490978062943D190F8F60D00283FD142
:1029A000224C04F11401207808280DD2DFE800F051
:1029B000040826292C2F32351C491431012001E04E
:1029C0000220491CFFF72AFF2078411C21700C28A7
:1029D00001D300202070154900200C310A5C012A27
:1029E00003D0401CC0B20828F8D3082818D1002210
:1029F000BDE8104010210E4802F055BB0320891C91
:102A0000E0E70420C91CDDE70520091DDAE7062000
:102A1000491DD7E70720891DD4E70820C91DD1E744
:102A200010BD00009C610020900200205002002098
:102A30000018014010B5040015D040F6AC520B4907
:102A400001F0B8FA00280DD00121084600F02EFC54
:102A50000649082201EBC40000F6A850091D0AF03F
:102A60000DFD012010BD002010BD00009C61002064
:102A700010B544220349002001F09CFA002800D040
:102A8000012010BD486F002070B500210E4D90232D
:102A90000C4601EB410202EBC10200202A4411B1B5
:102AA00008B1814203D1161886F84C3002E016189E
:102AB00086F84C40401C80B20B28F0D3491C89B2E8
:102AC0000929E6D370BD00009C6100202DE9F84380
:102AD00000210C460091FDF787FD0025114B2A4689
:102AE000FDF773FC104B2A46FDF7E7FCDFF83C804E
:102AF0000F4F0E4605462A4633460020414609F050
:102B000045FB6A4605F02EFD37F814106B4601228E
:102B1000002005F065FD641CE4B20A2CEBD3012013
:102B2000BDE8F8830000624000003440000024400B
:102B3000AAC201082DE9F84F064600200D46009074
:102B4000082E3FD8EEB306EB460023490024DFF8F9
:102B50007890DFF878A0DFF878B0DFF8788000EBC5
:102B6000C60047182978BA22002004F04AFBC0B2F8
:102B70002870FDF739FD00224B46FDF726FC0022A8
:102B80005346FDF79AFC02460B460020594609F0D1
:102B9000FDFA6A4605F0E6FC38F816006B4620445C
:102BA00081B20122002005F01BFD3919641C15F8C3
:102BB000010BE4B281F84D000A2CD3D30120BDE80B
:102BC000F88FFFE70020FAE7000062400000344081
:102BD0000000244098C201089C61002070B50546A1
:102BE00009B1012400E000240022214600F008F889
:102BF0000248284480F8984D70BD00009C61002078
:102C0000F8B505460020009016460C468DF80310D6
:102C1000082D2BD854EA060006D10021284600F0E2
:102C2000DDFB0A2005F046FF11486B46042230F810
:102C30001510002005F05EFD012C17D16DB10D4C73
:102C400094F8980D48B96B4604224FF43061002087
:102C500005F050FD012084F8980D002E06D10A20C1
:102C600005F028FF0121284600F0B8FBF8BD000060
:102C7000F4C301089C61002070B5054609B1012428
:102C800000E0002401222146FFF7BAFF0248284451
:102C900080F8984D70BD00009C610020002005491F
:102CA00001220B18401C80B283F8982D0928F8D314
:102CB000704700009C61002070B500210846FFF7B6
:102CC00093F80020164D044600EB400105EBC101CE
:102CD000401C01F8B04F80B20C730828F4D30021D7
:102CE0000720FFF77BFF00210820FFF777FF85F81B
:102CF000A04D002185F89F4D084600F0D7FA00242A
:102D000000F00EFE641CE0B20121FFF705F9A4B249
:102D1000082CF5D3BDE870409220FFF7D7BE000025
:102D20009C61002010B50F4C02204FF4007284F813
:102D3000F60D94F8F10D84F8F70D0A21032004F63E
:102D4000D85405F07FF901210720FFF747FF012143
:102D50000820FFF743FF012004F8380C04F8390C71
:102D600010BD00009C61002038B5044600200D46CF
:102D70000090082C1CD8002C1AD0082204F041FA2C
:102D80000C49C0B28DF803004978012903D10A49E2
:102D9000085C8DF8030008486B460A30042230F8BE
:102DA0001410002005F0A6FC0448204480F8A15D22
:102DB00038BD0000E878002002C101089C610020B5
:102DC000044901200A1882F8A10D401C80B209288C
:102DD000F8D370479C61002070B5204C052094F812
:102DE000F01D06291CD2DFE801F01B031C1B343741
:102DF00008F022FD01F01CFA94F8F10D022520B133
:102E000084F8F65D84F8F70D08E00121084600F02B
:102E10004DFA00220A21032005F014F984F8F05D30
:102E200070BD94F8F61D0029FAD184F8F60D0C480F
:102E3000007868B903220121104605F003F994F8DF
:102E4000F10D28B94FF47E420A21032005F0FAF86B
:102E5000032084F8F00D70BD0020FAE79C6100208B
:102E60004D020020082806D8034A02EBC0000822C1
:102E7000001D0AF003BB70479C61002070B5084D2F
:102E8000084E002406EBC40005EBC4010822001D17
:102E90000AF0F4FA641CA4B2092CF3D370BD00004C
:102EA0001EC101089C6100202DE9F04706460D4631
:102EB00008282CD8174C2EB9B4F8962D002004F011
:102EC000A0F985B2642004EB4608B5FBF0F7B8F82A
:102ED000821D4FF6FF79B1FBF0F4BC4202D9A4F198
:102EE000010402E002D204F10104A4B204EBC40024
:102EF00000EB041109EA8101304600F00DF8BC42F4
:102F0000EBD12946304600F007F8A8F8825DBDE80D
:102F1000F08700009C610020F8B504461CA04FF427
:102F2000FA5200680090002004F06BF980B2FDF7BF
:102F30005BFB0022174BFDF748FA0022164BFDF70A
:102F4000BCFA0022154BFDF7B8FA02460B460020EA
:102F5000134909F01BF9134F05460E4637F81400C4
:102F60006B46401C81B20422002005F0C3FB6A4678
:102F70002846314605F0F6FA37F814106B46012260
:102F8000002005F02DFB012005F094FDF8BD0000A8
:102F90000000208A0040BF4000005940000034403B
:102FA0000000244090C30108084A4FF4FA51012060
:102FB000A2F8821D02EB4003401C80B2A3F8821DE0
:102FC0000928F7D3A2F8961D704700009C610020E5
:102FD00010B5040011D040F6AC52094901F086F852
:102FE000002809D00649082201EBC40000F6A850C9
:102FF000091D0AF043FA012010BD002010BD000099
:103000009C6100202DE9F047584E594C0627B088A6
:103010000025401C80B2B08094F8F61D4FF4BC72BD
:103020004FF47F484FF47E494FF47A73072906D254
:10303000DFE801F00407234963798800B580BDE823
:10304000F087904208D301F0A3F984F8F65D424678
:103050000A21032004F0F6FF94F8F70DFFF7B8FFFC
:103060000028ECD0B58084F8F67D94F8F70D84F84C
:10307000F10DBDE8F04701F083B990420AD301F0A9
:1030800071F984F8F65D42460A21032004F0DAFF64
:10309000FEF7EEFE94F8F70DFFF7CCFC0028CED03B
:1030A00084F8F65D94F8F70D84F8F10D01F068F9F5
:1030B000FEF79CFDF0780028C1D100220A210320F0
:1030C00004F0C0FF2DE098420DD901F04BF984F8CF
:1030D000F65D42460B21032004F0B4FF94F8F70D8F
:1030E0000121FFF7FBF994F8F70D0021FFF7F6F93E
:1030F0000028A4D084F8F65DDFE7984208D901F0F3
:1031000047F984F8F65D42460B21032004F09AFF4C
:1031100094F8F70DFFF704F9002890D0B58084F8F3
:10312000F67D4A461BE0904205D301F01BF9FEF7FD
:1031300089FE84F8F65DFFF79BFC002891D084F8A7
:10314000F65D7CE7904203D301F022F984F8F65D46
:1031500000F010F80028F4D084F8F65D0022BDE8F5
:10316000F0470A21032004F06DBF00007602002022
:103170009C61002010B544220349002000F0B6FFF6
:10318000002800D0012010BD486F002070B51C4DF4
:10319000002485F8F14D01F0F3F801210846FEF70F
:1031A00023FE4FF4FA50A5F8820DA5F8960D0020E5
:1031B00000EB400105EBC101401C01F8B04F80B2AB
:1031C0000C730828F4D30121084600F06FF800249E
:1031D00000F0A6FB641CE0B20121FEF79DFEA4B244
:1031E000082CF5D300220A21032004F02BFFBDE8B0
:1031F00070400A214FF47E42032004F023BF0000F8
:103200009C6100202DE9FE430C460646A04248D0B2
:10321000082E46D8082C44D8EEB3E4B3DFF88890E3
:1032200006EB460809EBC8059835671E95E80E00C1
:103230008DE80E0004EB440109EBC1006A4690F8EA
:103240009800983D01099DF8000061F304108DF885
:103250000000F8B20021FFF76BF905F1A402F8B203
:103260000121FFF765F9002509EBC81800F058FBAC
:1032700005EB450108EB8102E9B2F8B2103AFEF71E
:10328000B7FF6D1CADB2202DF0D309EB4600B0F8AE
:10329000821D204600E004E0FFF706FE0120BDE8A5
:1032A000FE830020FBE700009C6100202DE9F04137
:1032B00005460E460220FDF75BFE00221021444821
:1032C00001F0F1FE434C75B15FF0010505EB4500DF
:1032D00000EBC5000119E8B24D31FFF72BFC6D1C66
:1032E000ADB2092DF2D39620FFF7F0FB5FF0000599
:1032F00000F016FB05EB450004EBC00707F1B00238
:10330000E8B20021FFF714F907F1BC02E8B201218D
:10331000FFF70EF96D1CADB2082DE9D35FF0010582
:1033200004EB4500B0F8701DE8B2FEF7BFFD6D1C60
:10333000ADB2092DF4D366B15FF0000504EB450092
:10334000B0F8821DE8B2FFF7AFFD6D1CADB2092DDC
:10335000F4D30025601990F8981DE8B2FFF78CFCB3
:103360006D1CADB2092DF5D30025601990F8A11D93
:10337000E8B2FFF7F9FC6D1CADB2092DF5D30026BC
:1033800006EB4600002504EBC01700BF00F0C8FAAA
:1033900005EB450007EB8002E9B2F0B202F5B87226
:1033A000FEF726FF6D1CADB2202DEFD3761CB6B212
:1033B000082EE5D3FEF71AFC07480078062804D14A
:1033C000BDE8F0410320FDF7D3BDBDE8F08100006A
:1033D000001801409C610020900200202DE9F04778
:1033E00081461B4A0F004FF0640002EB490602D0F1
:1033F000012F06D00AE0B6F8821D0025B1FBF0F4DB
:1034000004E0B6F8821D0024B1FBF0F54FF6FF781A
:10341000AC4202D9A4F1010402E002D204F1010499
:10342000A4B204EBC40000EB041108EA8101484691
:10343000FFF772FDAC42EBD1012F06D1B6F8821D29
:103440004846BDE8F047FFF767BDBDE8F0870000DC
:103450009C6100202DE9FF4F8DB091460E46184625
:103460001A9DFDF7C1F80022674BFCF7AEFF674CD1
:1034700000222346FDF721F8804628460291FDF7F9
:10348000B3F800222346FDF718F804900191304666
:10349000FDF7AAF800225E4BFCF797FF00222346B7
:1034A000FDF70BF805460F464846FDF79DF8044624
:1034B0000E460022574B28463946FCF7FEFF564D74
:1034C00002460B460020294608F060FE0091534951
:1034D00083460122D1E90001FDF75EF8224633461A
:1034E000FCF779FF4E4BD3E90023FCF7E6FF81465A
:1034F0008A46012201990498FDF74EF804460E46CB
:103500004846514609F0CCFF22463346FCF7D5FF2A
:10351000044601910022434B40460299FCF7CDFF3F
:1035200002460B460020294608F030FE8846DDE9B9
:10353000003107465A462046FCF7BFFF00223A4BAF
:103540000B910990FCF7A0FE0E46DDE9003105461F
:103550005A462046FCF73FFF0022334BCDE90001DD
:10356000FCF736FF3A464346FCF735FF2A4633461A
:10357000FCF7A3FF0D9AC2E900010D9C484604F137
:10358000080B514608F00AF900224FF04043FCF7BF
:1035900022FF3A464346FCF71EFF2A463346FCF715
:1035A0008CFFCBE90001DDE900010BF1080B0022E3
:1035B0001D4BFCF769FE3A464346FCF70CFF2A46D2
:1035C0003346FCF77AFFCBE900010BF10804002237
:1035D000154B0B990998FCF7F8FE2A463346FCF781
:1035E0006CFFC4E900014846514608F0D7F80122B3
:1035F000FCF7D2FF2A463346FCF75FFFC4E902011D
:1036000011B0BDE8F08F00000070974000005940F5
:1036100000C0A240000044400000244070C10108E6
:1036200068C10108000034400000F03F124810B5A6
:103630000168491C016011480068800616D5002009
:103640000F4A0A21B0FBF1F301FB1303303313548B
:10365000401CC0B20A28F5D340220949094805F0A8
:1036600051FF0A220649084803F01DFBBDE810403F
:10367000202001F00BBC0000500000201404014089
:10368000E806002068070020E805002010B50120AA
:10369000FEF7F2FA03220221BDE81040002004F0F8
:1036A000D1BC000010B50220FDF762FC14490420D3
:1036B0000870002005F0BEF80020FDF789F9114CD4
:1036C00000224FF48051204601F0EDFC0022A115AC
:1036D0000D4801F0E8FC0022E114204601F0E3FC73
:1036E00000226114204601F0DEFC0849486820F4FD
:1036F000803048600649C0F3C040087010BD00002B
:10370000AC5F00200014014000080140E878002070
:10371000A6020020704770B50D4601461E461446AD
:10372000002005F029F8C5F30741002005F024F832
:10373000C5F30721002005F01FF8E9B2002005F0CD
:103740001BF805E0FF21002005F016F804F8010B36
:10375000761EB6B2F6D270BD70B50C4601461D4657
:103760001646002005F008F8C4F30741002005F0D4
:1037700003F8C4F30721002004F0FEFFE1B200E0EB
:103780003146002004F0F8FF6D1EADB2F8D270BDD6
:1037900010B50C460146002004F0EEFFC4F30741CB
:1037A000002004F0E9FFC4F30721002004F0E4FF47
:1037B000E1B2BDE81040002004F0DEBF70B50D4658
:1037C00001461E461446002004F0D6FFC5F307410B
:1037D000002004F0D1FFC5F30721002004F0CCFF46
:1037E000E9B201E014F8011B002004F0C5FF761EC9
:1037F000B6B2F7D270BD0146002004F0BDBF7047DD
:1038000003780A78534003700A785A400A700178A6
:103810005140017070470000064A0021D1610649FD
:103820000A6942F002020A614861086940F04000FA
:1038300008617047F00E0020002002400A46002375
:103840000146022001F0E0BA0A46002301460320A7
:1038500001F0DABA044B0022DA61044A136943F03A
:103860000103136101807047F00E00200020024028
:1038700014480022C168CB06134904D5CA6942F036
:103880000202CA611022C3685B0705D5CB6943F009
:103890000103CB6142F00402C369DB0707D0CB69A7
:1038A00043F00403CB61C16921F00101C161A2F5BC
:1038B0008071013901D0C2607047C16921F00101F6
:1038C000C161704700200240F00E002070B505462F
:1038D00001F0EEFB0646114C09E0681C07D025B14B
:1038E00001F0E6FB801BA84201D9032070BDE0680F
:1038F000C007F2D1E068800601D52020E060E068D2
:10390000C00605D4E069C00702D1E068400703D5CE
:10391000FFF7AEFF012070BD002070BD0020024007
:10392000704700002DE9FF4F83B09A461046FCF720
:103930005BFE0C46514905460122D1E90001FCF726
:103940002BFE2A462346FCF746FD4D4BD3E90023C8
:10395000FCF7B3FD05460C4609F0A2FD80468946FA
:103960002846214607F01AFF06460F4642464B46B8
:10397000FCF78AFC0022434BFCF786FC0D4604460C
:103980001421BAFBF1F0FCF72FFE02460B46002093
:103990003D4908F0FBFB8246DDE903208B460832F7
:1039A000C8B3012834D1039800214B46C0E9001167
:1039B0000392424650465946FCF70DFD8346224687
:1039C0002B460091FCF779FD039A2B46C2E90001D2
:1039D000039A584602F1080A22460099FCF76DFD49
:1039E0000AF10802CAE900010020E2E8020092465A
:1039F00032463B4640464946FCF7E7FC0022214B55
:103A0000FCF7E6FC22462B46FCF757FDCAE900010D
:103A100007B0BDE8F08FFFE703980021194BC0E91C
:103A2000001103920A4630463946FCF72DFCCDE9D9
:103A3000000102468BF0004C0B4650466146FCF7F5
:103A4000CAFC22462B46FCF738FD039A5B46C2E9C6
:103A50000001039ADDE90001083203925246FCF7A7
:103A6000BAFC22462B46FCF728FD039AC2E9000166
:103A7000039A0020C2E902001032B8E770C10108C1
:103A800068C101080000F03F000024402DE9FF4F0D
:103A900083B098461046FCF7A7FD0C465C490546E6
:103AA0000122D1E90001FCF777FD2A462346FCF705
:103AB00092FC584BD3E90023FCF7FFFC04460D466B
:103AC00009F0EEFC06460F462046294607F066FE42
:103AD00081468A460020504909F032FD4F4C02468B
:103AE0000B4600202146FCF7E8FC0122FCF754FDC0
:103AF00002460B4630463946FCF7DFFC834600227F
:103B000023460291FCF7C0FB0D4604461421B8FB86
:103B1000F1F0FCF769FD02460B460020404908F031
:103B200035FB06460F46DDE9030100F108080029D0
:103B30004ED0012949D14A46534600203749FCF767
:103B400044FC22462B46CDE90001FCF7B6FC324688
:103B50003B46FCF740FC4FF0FF32FCF71DFD039A9B
:103B60002B46C2E90001DDE900012246FCF7A5FC75
:103B700032463B46FCF72FFCC8E90001DDE90001B5
:103B800022462B46FCF799FC32463B46FCF723FCC9
:103B90004FF0FF32FCF700FDC8E9020100221F4B85
:103BA00058460299FCF711FC22462B46FCF785FC8F
:103BB000C8E90401012248465146FCF7EDFC2246C3
:103BC0002B46FCF77AFCC8E9060107B0BDE8F08F88
:103BD0000022124B48465146FCF756FB22462B4624
:103BE000CDE90001FCF769FC32463B46FCF7F3FBEC
:103BF0004FF0FF32FCF7D0FC039A5346C2E90001B4
:103C00004A4600200749FCF7E0FB22462B46ADE779
:103C100070C1010868C10108000008400000F03FC1
:103C2000000024400000F0BF2DE9FF4F83B098460C
:103C30001046FCF7D9FC0C465D4905460122D1E946
:103C40000001FCF7A9FC2A462346FCF7C4FB594BAC
:103C5000D3E90023FCF731FC04460D4609F020FCB3
:103C600006460F462046294607F098FD81468A46BB
:103C700000204FF0804109F063FC4F4C02460B4698
:103C800000202146FCF719FC0122FCF785FC0246C6
:103C90000B4630463946FCF710FC8346002223468B
:103CA0000291FCF7F1FA0D4604461421B8FBF1F03D
:103CB000FCF79AFC02460B460020404908F066FAE1
:103CC00006460F46DDE9030100F1080800294FD040
:103CD00001294AD14A46534600203749FCF775FB73
:103CE00022462B46CDE90001FCF7E7FB32463B4676
:103CF000FCF771FB4FF0FF32FCF74EFC039A2B46AA
:103D0000C2E90001DDE90001224600BFFCF7D5FB56
:103D100032463B46FCF75FFBC8E90001DDE90001E4
:103D200022462B46FCF7C9FB32463B46FCF753FBC9
:103D30004FF0FF32FCF730FCC8E9020100221E4BB5
:103D400058460299FCF741FB22462B46FCF7B5FB8F
:103D5000C8E90401012248465146FCF71DFC2246F1
:103D60002B46FCF7AAFBC8E9060107B0BDE8F08FB7
:103D70000022114B48465146FCF786FA22462B4654
:103D8000CDE90001FCF799FB32463B46FCF723FBEB
:103D90004FF0FF32FCF700FC039A5346C2E90001E2
:103DA0004A4600200649FCF710FB22462B46ADE7A9
:103DB00070C1010868C101080000F03F0000244004
:103DC0000000F0BF0021C0E90011C0E90211044A5F
:103DD000C0E90412C0E90611C0E9081170470000EB
:103DE0000000F03F2DE9FF4F83B01046DDF844B0EE
:103DF000FCF7FAFB694E05460C46D6E900010122A4
:103E0000FCF7CAFB2A462346FCF7E5FA644BD3E9E4
:103E10000023FCF752FB05460F4609F041FB044620
:103E200088462846394607F0B9FC81468A465846F6
:103E3000FCF7DAFB00225B4BFCF726FA05460F463F
:103E40001098FCF7D1FB02460B46D6E90001FCF7BF
:103E500034FB2A463B46FCF7BEFA09F021FB01225F
:103E6000FCF79AFB504D02460B4600202946FCF712
:103E700024FB0122FCF790FB02460B4620464146FC
:103E8000FCF71BFB834600222B460291FCF7FCF952
:103E900004460D4606981421B0FBF1F0FCF7A4FB94
:103EA00002460B460020414908F070F90746884653
:103EB000DDE9030100F1080600294FD001294AD1AC
:103EC0004A46534600203849FCF77FFA22462B46E3
:103ED000CDE90001FCF7F1FA3A464346FCF77BFADC
:103EE0004FF0FF32FCF758FB039A2B46C2E9000162
:103EF000DDE90001224600BFFCF7DFFA3A464346FF
:103F0000FCF769FAC6E90001DDE9000122462B460B
:103F1000FCF7D3FA3A464346FCF75DFA4FF0FF321E
:103F2000FCF73AFBC6E9020100221F4B58460299F2
:103F3000FCF74BFA22462B46FCF7BFFAC6E9040110
:103F4000012248465146FCF727FB22462B46FCF748
:103F5000B4FAC6E9060107B0BDE8F08F0022124BA3
:103F600048465146FCF790F922462B46CDE9000120
:103F7000FCF7A3FA3A464346FCF72DFA4FF0FF321E
:103F8000FCF70AFB039A5346C2E900014A460020A7
:103F90000749FCF71AFA22462B46ADE770C1010823
:103FA00068C101080000E03F0000F03F000024402D
:103FB0000000F0BF2DE9F041374C0503174660784B
:103FC0000A46430805EB032CFF2801D001EB03222E
:103FD000012606EB500307F1FF05B3EB152F01D2C5
:103FE000330200E0FBB210282AD00BDC102850D29C
:103FF000DFE800F0262B262B262B262B262B262B24
:10400000262B262B192820D009DCA0F11100082826
:104010003FD2DFE800F01A151A151A151A151D28D7
:1040200013D006DC1A280BD01B280ED01C2830D148
:1040300006E01E2804D01F2807D0FF2829D113E04E
:104040000620FFF7D8FB60780BE061460320FFF7FE
:1040500062FB607806EB5001B1EB152F01D1FF2018
:1040600000E0401C607014E00B460021121D084661
:104070003F1F04E012F8015B401C294480B2B842A3
:10408000F8DB002060701868884202D10120BDE88A
:10409000F0810020FBE700007E02002070B50503E0
:1040A0000620FFF7A8FB082004F004FD2946202085
:1040B000FFF76EFBC82004F0FDFC00244FF480766F
:1040C0000620FFF798FB082004F0F4FC3346FF229B
:1040D00029460220FFF740FB082004F0EBFC641C9B
:1040E000E4B205F58075102CEAD370BD2DE9F047D8
:1040F0004E4E17460A46347824B1641E14F0FF046D
:1041000034706DD1494C4FEA0030A41C07F1FF0513
:1041100094F802C05FEA5C0810D04FEA5C0300EB41
:10412000032001EB0322A0F58070A2F58072B3EBAF
:10413000152F02D24FF4807300E0FBB24FF000095C
:10414000BCF1110F5BD00DDCBCF1110F66D2DFE8C2
:104150000CF0334850565056505650565056505604
:1041600050565000BCF11A0F43D00ADCACF1120CCF
:10417000BCF1080F52D2DFE80CF03C423C423C421A
:104180003C42BCF11F0F3AD00CDCBCF11B0F36D007
:10419000BCF11C0F2DD0BCF11D0F30D0BCF11E0F97
:1041A0003CD126E0BCF1200F23D0BCF1210F26D05A
:1041B000BCF1FF0F32D134E00020121D3F1FC1F8C7
:1041C000009006E00B6812F8015B401C2B4480B2A3
:1041D0000B60B842F6DB0620FFF70DFB0120A07054
:1041E0001CE001462020FFF7D3FA1920307002208E
:1041F000F5E70620FFF7FFFAA078401CEFE701463D
:104200000220FFF7DBFAA0784108B1EB152F01D1AE
:10421000FF2000E0401CA070062030700020BDE8A8
:10422000F08784F802900120F9E700007C0200206A
:1042300008B56946032000F055F80098082800D911
:104240000020024981F8F10D08BD00009C610020AA
:104250002DE9F041064614460D4680073CD111E099
:10426000284609F093F903462D1D284609F08EF9DA
:104270000246194630462D1DFFF7E6FA60BB083CA2
:10428000A4B20836E008EBD10BE0284609F07EF92D
:10429000014630462D1DFFF7D1FAE8B9241FA4B21C
:1042A000361DA008F1D1D4B100210846FF2300E05B
:1042B0003CB115F8012BC700BA401143641EA4B2EB
:1042C00003E0C70003FA07F21143401C0428EFD3B0
:1042D0003046FFF7B3FA10B10020BDE8F0810120AD
:1042E000FBE70000024A404202EB402000F040B8E9
:1042F00000000408074B404203EB402004E000BFED
:1043000010F8013B01F8013B521E92B2F8D2012095
:10431000704700000000040870B50D460649404291
:1043200001EB40242046FFF777FA29462046BDE8F6
:10433000704000F033B800000000040870B50E466D
:104340000749404201EB402415462046FFF764FA36
:104350002A4631462046BDE87040FFF779BF00008D
:104360000000040801490020487070477E020020C8
:10437000820701D000207047006808600120704764
:10438000024890F8F11D0320FFF7C6BF9C61002092
:1043900001490020887070477E0200200A4610B54F
:1043A00001460023022000F02FFD08B1002010BDBF
:1043B000012010BD10B5FDF782FC04F0DDFA03F01A
:1043C000E3F902F01DFFFCF71BFBBDE81040FFF70F
:1043D000A1B900000246002003E000BF12F8013B33
:1043E0005840491EC9B2F9D270470000024A02EB98
:1043F0000010012203F06ABF50030020884200D958
:104400000846704738B5044669460120FFF76AFF41
:104410000098A04201D1012038BD002038BD000025
:10442000F8B500250446009590F82400012808D02E
:10443000012084F824002046FCF7EAFA060002D0A6
:104440004BE00220F8BDA06A20F4885040F0020042
:10445000A062022001F076F922490968B1FBF0F070
:10446000400000E0401E00900028FBD12046FCF7F1
:104470002FFB2068816841F00801816000F018FE80
:10448000074604E000F014FEC01B0A2811D820687B
:1044900080680007F6D42068816841F004018160DB
:1044A00000F006FE07460EE000F002FEC01B0A28E0
:1044B00009D9A06A20F0020040F01000A06284F840
:1044C00024500120F8BD206880684007ECD4A06A21
:1044D00020F0020040F00100A06284F82450304631
:1044E000F8BD0000E800002070470000F8B5002487
:1044F000009490F824202546012A12D0012280F849
:1045000024204A681F23072A0DD20668776B521EA3
:1045100002EB820293409F430B6893401F437763F3
:1045200019E00220F8BD06680D2A0AD2376BD21FA7
:1045300002EB820293409F430B6893401F43376313
:1045400009E0F76A0D3A02EB820293409F430B6841
:1045500093401F43F7620A68072306680A2A0AD3B2
:10456000F7680A3A02EB420293409F438B689340FC
:104570001F43F76008E0376902EB420293409F4314
:104580008B6893401F4337610A68102A01D0112AB3
:1045900020D1124B02689A4217D193681B0219D49A
:1045A000936843F4000393600968102912D10C4901
:1045B0000C4A0968B1FBF2F101EB8101490000E00E
:1045C000491E00910029FBD104E0816A41F02001DD
:1045D0008162012480F824502046F8BD0024014067
:1045E000E800002040420F0070477047704710B548
:1045F000044600684168890626D50168890723D5E5
:10460000A16AC90603D4A16A41F40071A16281685C
:10461000C1F34241072910D1217B71B9416821F0D2
:1046200020014160A06A20F48070A062A06AC004EA
:1046300003D4A06A40F00100A0622046FFF7D4FF37
:1046400021686FF0120008602068416809062ED5C5
:10465000016849072BD5A16AC90603D4A16A41F4B0
:104660000051A1628168C1F30231072909D0416874
:10467000490515D48168C1F34241072910D1217B36
:1046800071B9416821F080014160A06A20F4805036
:10469000A062A06AC00503D4A06A40F00100A06235
:1046A0002046FFF721FF21686FF00C0008602068AA
:1046B000416849060DD50068C0070AD0A06A40F4D9
:1046C0008030A062204600F095F821686FF001006C
:1046D000086010BD2DE9F04104004FF000057FD0C7
:1046E000A06A002628B9E66284F82460204600F01B
:1046F00083F82046FCF78CF9A16AC90600D420B1E2
:10470000A06A40F01000A0626AE0A16A21F488511A
:1047100041F00201A162334923688B42E16904D16F
:10472000B1F5402F01D14FF40021277B4FF4807C5D
:1047300041EA470261680A43A168614508D001293E
:1047400006D0002194F814E0BEF1010F02D00AE077
:104750006146F7E7C7B1A76A47F02007A762E76A93
:1047600047F00107E7625F6827F469470F435F601E
:10477000236899681C4F394011439960A1686145CD
:104780000BD0012909D00CE0DFF860E0A7690EEB3F
:1047900047370F4347F40061E5E7218A0D05A5F58A
:1047A00080152168CB6A23F470032B43CB62216808
:1047B00089680F4B1940914208D1E662A16A21F045
:1047C000020141F00101A162BDE8F081A06A20F080
:1047D000020040F01000A062E06A40F00100E062D8
:1047E0000120F1E7003C0140FDF7E1FF00E0FFFFA1
:1047F000FE0E1FFF7047000070B586B0002506460C
:10480000009501950295039500681E49884236D1AE
:104810001D49886940F400708861886900F400705F
:104820000490886940F0100088618869694600F04A
:10483000100004903020009003200190134800F0F5
:1048400031FB144C1248C4E900058020C4E9025031
:1048500080002061800060612020C4E906052046B8
:1048600000F05CFA08B1FEF7CAFF346200220521AD
:104870001220666200F0A8FC122000F097FC06B03F
:1048800070BD0000002401400010024000100140F3
:1048900008000240080400202DE9F047894604463C
:1048A0003B4900683B4F0E1D9046884201D0B842FC
:1048B00007D1306810F4702F03D001252846BDE8D9
:1048C000F08794F8240001280CD0012084F82400FB
:1048D0002046FCF7FDF805004FF0000004D084F8F6
:1048E0002400EBE70220EAE7A16A40F60162914367
:1048F00041F48071A1622168B94218D1326812F482
:10490000702F14D0A16A41F48011A1623168490569
:1049100005D5A16A21F4005141F48051A162A16A38
:10492000C9040AD5E16A21F00601E16206E0A26A43
:1049300022F48012A2624968E9E7E06284F8240068
:10494000216A15488862216A1448C862216A14489D
:10495000086321686FF0020008602068816841F4F4
:1049600080718160216843464A464C31206A00F0DC
:1049700013FA20688168C1F342410729816803D096
:1049800041F48011816099E741F4A001FAE7000049
:1049900000240140002801405D0A0008C50A000803
:1049A000AB0A00082DE9F05F90F8211000240229DD
:1049B00003D004218163012485E001680A6822F0A4
:1049C0000E020A6001680A6822F001020A603F4E86
:1049D0003E4FB215DFF8F4C0DFF8F090DFF8ECA03E
:1049E000DFF8E8B0DFF8E4E00168783F1301150272
:1049F000ACF1640CA9F15009AAF13C0AABF1280B07
:104A0000AEF1140E4FF48018B14227D9B9420ED03E
:104A1000614512D049451DD0514518D0594518D08F
:104A2000714501D1424615E0294EB14201D1012222
:104A300010E0274E1436B14201D110220AE0244E74
:104A40002836B14206D0224A3C32914201D11A4660
:104A500000E02A461E49091F0A602BE0B94213D024
:104A6000614517D0494522D051451DD059451DD02B
:104A7000714501D142461AE0B14202D14FF0807235
:104A800015E0134EB14201D1012210E0104E143650
:104A9000B14201D110220AE00D4E2836B14206D0B3
:104AA0000B4A3C32914201D11A4600E02A4607499E
:104AB00080394A60012180F82110002180F82010FF
:104AC000416B01B188472046BDE8F09F800002405D
:104AD000080402402DE9F05FC16B0A6801680B68A9
:104AE000046C4FF0040808FA04F8844D844E854F96
:104AF000DFF814C2DFF81492DFF814A2DFF814B262
:104B0000DFF814E218EA020F65D05FEA437862D555
:104B10000A68920603D40A6822F004020A60DFF8E9
:104B2000F0814FF48062016808F114081301140247
:104B3000414524D9A9420DD0B1420FD0B9421AD073
:104B4000614515D0494515D0514501D1120312E0F8
:104B5000594501D104220EE0714501D140220AE0FD
:104B60006D4D1435A94206D06B4A2832914201D1CD
:104B70001A4600E022466749091F0A6029E0A94257
:104B800013D0B14215D0B94220D061451BD0494560
:104B90001BD0514502D14FF4800217E0414502D1AC
:104BA0004FF0806212E0594501D104220EE07145B8
:104BB00001D140220AE0584D1435A94206D0564A88
:104BC0002832914201D11A4600E022464B49083969
:104BD0004A60C16A71E04FF0020808FA04F818EA66
:104BE000020F70D05FEA83786DD50A68920606D40A
:104BF0000A6822F00A020A60012180F82110DFF819
:104C000010814FF40072016808F1140813011402B6
:104C1000414524D9A9420DD0B1420FD0B9421AD092
:104C2000614515D0494515D0514501D1120312E017
:104C3000594501D102220EE0714501D120220AE03E
:104C4000354D1435A94206D0334A2832914201D15C
:104C50001A4600E022462F49091F0A6029E0A942AE
:104C600013D0B14215D0B94220D061451BD049457F
:104C70001BD0514502D14FF4001217E0414502D13B
:104C80004FF0007212E0594501D102220EE0714549
:104C900001D120220AE0204D1435A94206D01E4A37
:104CA0002832914201D11A4600E0224613490839C0
:104CB0004A60002180F82010816A00291CD0BDE8DC
:104CC000F05F0847FFE70825A540154214D01A07F2
:104CD00012D50A6822F00E020A6090F84020C36BD9
:104CE000012101FA02F25A60816380F8211000214B
:104CF00080F82010016BE0E7BDE8F09F080002405B
:104D00001C000240300002404400024058000240B3
:104D10006C000240080402401C04024030B560B13F
:104D20001A4B026814219A4209D2194B1344B3FB5F
:104D3000F1F18900016417490AE0012030BD134BED
:104D40005B421344B3FBF1F1890001640F49083958
:104D5000C163022180F82110136843F6F0718B4380
:104D6000F0E901142143D0E902452C4321430469B1
:104D7000214344692143846921431943116000217F
:104D80004163012242770177084630BD08040240A2
:104D9000F8FFFDBF0000024070B5044690F8200007
:104DA000002501280CD0012084F8200094F821600F
:104DB0000020012E06D084F820000225284670BD70
:104DC000022070BD022684F82160A0632068066876
:104DD00026F0010606602046FCF75CFFE06A00282A
:104DE0002068016802D041F00E0106E021F00401C4
:104DF00001602068016841F00A01016020680168D3
:104E000041F001010160D9E72DE9F05F07461C4838
:104E100088460024017E15461E46012909D001213D
:104E2000814601764CF2503A5046FEF74FFD18B1DC
:104E300022E00220BDE8F09F012F02D0022F00D017
:104E40000427D346DFF83CA0220128463146FBF771
:104E5000D7F981B208EB4400FEF7FCFC5846FEF798
:104E600035FDDAF8102022F00102CAF8102018B936
:104E7000641CE4B2BC42E7D3002289F81820D9E7C9
:104E8000F00E00200020024070470000044910B5D9
:104E90000A68024202D00860FFF7F6FF10BD00006A
:104EA000140401402DE9F84FDFF8C891002409F1FE
:104EB000040A0AF1040B23460F270BF1040ED1E07C
:104EC0000125A54006EA0502AA4276D1DFF8A8C16D
:104ED0004E68A6EB0C0866452BD00DDC032E34D0B3
:104EE00005DC36B3012E19D0022E2FD11BE0112E76
:104EF00016D0122E2AD119E0B8F5881F19D006DC79
:104F0000B8F5803F15D0B8F5801F1FD111E0B8F576
:104F1000001F0ED0B8F5041F18D10AE0CB6815E0C9
:104F2000CB681B1D12E0CB6808330FE0CB680C3355
:104F30000CE08B682BB1012B4FF0080303D04561C7
:104F400004E0042302E0056100E00023FF2A01D809
:104F5000064601E000F104064FEA840501D9A5F1F7
:104F60002005D6F8008007FA05FC28EA0C0803FAA9
:104F700005F548EA0508C6F800804D68ED0070D5D3
:104F80003E4DAE6946F00106AE61AD6924F0030600
:104F900005F0010500953A4D06EB050CDCF80850CC
:104FA000A607360F07FA06F825EA0805DFF8D480C9
:104FB000404503D14FF0000825E052E0DFF8C880FB
:104FC000404502D14FF001081DE0DFF8C0804045A8
:104FD00002D14FF0020816E0DFF8B480404502D15C
:104FE0004FF003080FE0DFF8AC80404502D14FF0EE
:104FF000040808E0DFF8A080404502D14FF0050822
:1050000001E04FF0060808FA06F848EA0508CCF86F
:1050100008804D68D9F80060ED034D4601D5164370
:1050200000E096432E604D68DAF80060AD03554607
:1050300001D5164300E096432E604D68DBF8006012
:10504000ED025D4601D5164300E096432E604D68A3
:10505000DEF80060AD02754601D5164300E09643C8
:105060002E60641C0A681646E2407FF429AFBDE852
:10507000F88F0000000401400000111000100240F1
:105080000000014000080140000C014000100140F8
:105090000014014000180140001C014080680840D5
:1050A00000D0012070470AB1016170470904FBE795
:1050B0000148806870470000DC00002002488168D9
:1050C0000278114481607047DC000020074810B569
:1050D000016841F010010160032000F095F8002004
:1050E00000F006F800F03EF8002010BD002002405D
:1050F00000B5014687B00022192000F065F819209C
:1051000000F054F81348816941F4006181618069BD
:1051100005A900F400600690684600F089FC00F0E4
:10512000B7FC0D490D4AB0FBF1F10D48491E026074
:10513000416040F2E7320021C0E90321816001F0C3
:1051400069FA10B1012007B000BD054801F09CFAD2
:10515000F9E700000010024040420F00002C01401F
:10516000280700200F4808B5816941F001018161DD
:10517000816901F001010091C16941F08051C16173
:10518000C069002200F0805000900F21901E00F0B6
:105190001BF80548416821F0E06141F00071416071
:1051A00008BD00000010024000000140002809DB9B
:1051B00000F01F02012191404009800000F1E02031
:1051C000C0F8001170470000F0B40E4B1B680C468D
:1051D000C3F30223C3F10705042D00D90425191DCB
:1051E000072901D2002300E0DB1E012606FA05F1A3
:1051F000491E214099409E40761E16403143F0BC26
:1052000005F006BB0CED00E0064900F00702086857
:105210004FF6FF03184040EA0220034A104308609B
:10522000704700000CED00E00000FA0510B50C0618
:1052300005D501F0070100EB4110283003E000EB39
:10524000411000F5947099B232B1012202730181CC
:10525000190C4181002010BD00220273C180F9E7C2
:10526000704700EB4112D0F86802D26B04F06FBBBC
:1052700000EB4112D0F86802D2F83C2104F0CABB1E
:1052800070B504460B0601F0070004EB40114FF027
:1052900001024FF0000503D581F82920283103E0F1
:1052A00081F8295101F59471087094F828020128B9
:1052B00008D084F82822206804F0E5FF84F82852FA
:1052C000002070BD022070BD70B5044601F00F00D3
:1052D0006268904201D9012070BD0B0601F0070001
:1052E00004EB40114FF001024FF0000503D581F8A7
:1052F0002920283103E081F8295101F594718D703E
:10530000087094F82802012808D084F82822206820
:1053100005F05CF884F82852002070BD022070BDB2
:105320002DE9F04104460F0601F0070004EB40119F
:105330004FF001064FF0000503D581F829602831B0
:1053400003E081F8295101F5947108700A61CB706E
:105350004A7802B1C881022B00D10D7194F828025D
:10536000012809D084F82862206804F057FE2846F6
:1053700084F82852BDE8F0810220FBE770B50C46A6
:1053800001F0070500EB4511C1E94F230022C1F8E8
:10539000442181F8292181F8285101F5947162078F
:1053A000006805F068F8002070BD70B504460D4631
:1053B00001F007006168884201D9012070BD29060B
:1053C0004FF000064FF0010205D504EB401181F8C3
:1053D0002920283105E004EB451181F8296101F508
:1053E00094718A70087094F82802012807D084F814
:1053F0002822206805F026F8680702D006E002207F
:1054000070BD04F50C71206804F0DEFF84F828629A
:10541000002070BD70B50C4601F0070500EB45118A
:10542000C1E90F2300224A64012281F8292001F8F2
:10543000285F6207006805F01EF8002070BD10B5F7
:105440000446006805F0F8F8000402D5204602F092
:1054500097FC206805F0F0F840050CD5206830F87E
:10546000441F21F480610180204600F003F90021EF
:10547000204600F01AF9206805F0DEF8400405D552
:10548000206830F8441F21F480410180206805F035
:10549000D3F8800405D5206830F8441F21F400516A
:1054A0000180206805F0C8F8C00414D5206830F8E1
:1054B000401F21F004010180206830F8401F21F0D6
:1054C00008010180204600F0E8F8206830F8441F09
:1054D00021F480510180206805F0AEF800051FD549
:1054E000206830F8401F41F008010180206830F842
:1054F000441F21F400610180206830F8401F41F012
:1055000004010180206805F097F8C00405D52068E3
:1055100030F8441F21F480510180204600F0FAF851
:10552000206805F089F8800508D5206830F8441F08
:1055300021F400710180204600F0B3F8206805F0E6
:105540007BF8C00505D5206830F8441F21F4807130
:10555000018010BD2DE9F04186B0040004D094F81C
:105560002902002520B108E0012006B0BDE8F08145
:1055700084F82852204600F057F8032084F82902C6
:10558000206804F01AFF04F11001142288466846CE
:10559000FAF746FE94E80F0004F073FE0227B0BB52
:1055A0000021206805F062F8002001260DE000BF10
:1055B00004EB401181F8296001F8280FC881CD70F3
:1055C0000D614D61401CC0B28D6161688142EFD8B0
:1055D00000200FE004EB401181F8295181F82801E7
:1055E00081F82B51C1F83851C1F83C51401CC0B270
:1055F000C1F8405161688142ECD8142241466846A6
:10560000FAF70EFE94E80F0004F0C8FE10B184F81B
:105610002972A9E784F8245084F82962206804F0EC
:10562000BBFE0020A1E7000008B500680F498842D2
:105630001AD10F48C16941F40001C161C06900225B
:1056400000F40000009005211320FFF7BDFD13209A
:10565000FFF7ACFD002205211420FFF7B5FDBDE8E2
:1056600008401420FFF7A2BD08BD0000005C004008
:105670000010024070B5044680680125022801D060
:10568000FEF7BDF82946D4F8680204F09EFAD4F873
:105690006802BDE8704004F05ABAD0F8680204F01D
:1056A0007EBAD0F8680204F084BA10B5044690F8C7
:1056B000280201280BD0012084F8280284F8241045
:1056C000206804F0D5FF002084F8280210BD0220D5
:1056D00010BDD0F8682200F50C71104604F081BAB4
:1056E00010B5044690F82802012810D0012084F853
:1056F000280201462046FFF7B3FD206804F04AFE69
:10570000206804F086FF002084F8280210BD0220E3
:1057100010BD000010B50446D0F8680204F0A0FAED
:10572000A069002804D00348016841F00601016027
:1057300010BD000010ED00E0014901200862704733
:1057400000000E4210B52CA401461DCC86B08DE899
:105750001D002DA02D4C00680490002004292FD09E
:105760000BDC01292FD0022928D100F091F96168C2
:10577000C1F38131491C49001EE0082920D01029BD
:105780001CD161682268D20118D5C1F38342C903D4
:105790001DF8020009D5616804AAC1F34041515CBB
:1057A0001B4AB2FBF1F1484301E01A4948436168E2
:1057B000490203D440000321B0FBF1F006B010BD54
:1057C00000F076F9FAE7226AC2F30121012903D138
:1057D000920701D5C803F1E7022905D1626A920751
:1057E00002D549F64040E9E70329E7D1216889035A
:1057F000E4D54FF22440E1E7020304050607080957
:105800000A0B0C0D0E0F10100102000000100240D8
:1058100000127A0000093D002DE9F84305460078A2
:10582000354CC00754D0E0690026C00008D4E069B8
:1058300040F08050E061E069012600F08050009067
:105840002E480168C90512D40168804641F4807170
:105850000160FFF72DFC074605E000BFFFF728FCBD
:10586000C01B642823D8D8F80000C005F6D5206AEC
:1058700010F4407021D0A98801F4407181421CD0FD
:10588000206A1F49012220F440700A6000220A6049
:105890002062C00711D0FFF70BFC074641F28838A1
:1058A00008E000BFFFF704FCC11B414502D90320FB
:1058B000BDE8F883206A8007F4D5206A696820F47F
:1058C0004070084320621EB1E06920F08050E06122
:1058D0002878800705D56068A96820F4404008430F
:1058E00060602878C00605D56068696920F480008A
:1058F000084360600020DBE70010024000700040B9
:10590000400442422DE9F0470F46050061D0434E66
:10591000306800F00700B84209D2306820F0070074
:1059200038433060306800F00700B84251D1286831
:105930003B4C810712D5400703D5606840F4E06016
:1059400060602878000703D5606840F460506060AC
:105950006068A96820F0F000084360602878C007FC
:1059600028D06868012810D02168022810D0890743
:1059700000292EDA616821F0030101436160FFF71D
:1059800097FB804641F288390DE021688903EFE7F3
:105990008901EDE7FFF78CFBA0EB0801494502D92F
:1059A0000320BDE8F0876068696800F00C00B0EB88
:1059B000810FEFD1306800F00700B8420BD9306892
:1059C00020F0070038433060306800F00700B8422C
:1059D00001D00120E5E72878400705D56068E9682F
:1059E00020F4E060084360602878000706D560680E
:1059F000296920F4605040EAC100606000F058F866
:105A00006168084AC1F30311515CC8400649086047
:105A100006480068FFF76CFB0020C2E70020024048
:105A200000100240B4EB0008E8000020E000002075
:105A30000F2202600C4A536803F00303436053686B
:105A400003F0F0038360536803F4E063C3605268BB
:105A50004FF4E06303EAD20202610448006800F0F8
:105A6000070008607047000000100240002002405C
:105A70000448054900684968044AC1F30221515CA1
:105A8000C8407047E800002000100240C4EB000846
:105A90000448054900684968044AC1F3C221515CC1
:105AA000C8407047E800002000100240C4EB000826
:105AB00012A185B00FC98DE80F0014A0144A006828
:105AC00004905168134801F00C03042B10D0082BEC
:105AD0000ED1C1F38343C9031DF803000AD55168F1
