:020000040800F2
:1000000048A80020DD01000821A70008F18F0008A2
:100010001DA70008E9210008FFE600080000000015
:100020000000000000000000000000004501000882
:100030007924000800000000890100088DB700083D
:10004000F7010008F7010008F7010008F7010008B0
:10005000F7010008F7010008F7010008F7010008A0
:10006000F7010008F7010008F701000899230008CC
:10007000F7010008F7010008F7010008F701000880
:10008000F7010008F7010008E909000839E5000850
:1000900049E50008F7010008F7010008514500088C
:1000A000F7010008A5C00008F7010008F7010008E3
:1000B000F7010008F7010008F7010008F701000840
:1000C000F7010008F7010008F701000805B400086F
:1000D000F701000899C50008A9C50008F701000844
:1000E000F7010008F7010008F7010008F701000810
:1000F000F7010008F7010008F7010008F701000800
:10010000F7010008F7010008B9C00008F70100086E
:10011000F7010008F7010008F7010008F7010008DF
:10012000F7010008F7010008F7010008F7010008CF
:10013000DFF80CD000F0BCFB0048004701030108C9
:1001400048A80020224B19680868B0E8F00F80F337
:100150000988BFF36F8F4FF0000080F311884EF0D5
:100160000D0E70470000000006480068006880F32C
:10017000088862B661B6BFF34F8FBFF36F8F00DFA1
:1001800000BF00BF08ED00E0EFF30980BFF36F8F01
:100190000F4B1A6820E9F00F106008B54FF05000BF
:1001A00080F31188BFF34F8FBFF36F8F12F00CFAFB
:1001B0004FF0000080F31188BDE808401968086816
:1001C000B0E8F00F80F30988BFF36F8F704700BF6E
:1001D00004010020EFF305807047000006488047C7
:1001E00006480047FEE7FEE7FEE7FEE7FEE7FEE71C
:1001F000FEE7FEE7FEE7FEE7EDB900083101000883
:10020000202A04DB203A21FA02F00021704721FA6B
:1002100002F3D040C2F120029140084319467047D2
:1002200040EA01039B0703D009E008C9121F08C078
:10023000042AFAD203E011F8013B00F8013B521EF8
:10024000F9D27047D2B201E000F8012B491EFBD26F
:1002500070470022F6E710B513460A4604461946D1
:10026000FFF7F0FF204610BD2DE9FE4F804681EAE2
:100270000300C00F0C46009021F0004123F0004520
:10028000B8EB0200A94105D24046214690461C46E3
:100290000B46024623F00040104347D0270DC7F31A
:1002A0000A00C3F30A510290401A019040286BDA09
:1002B000C3F3130040F4801B0098924620B1002342
:1002C000D2EB030A63EB0B0B01985946C0F14002D5
:1002D000504600F0EEF906460D4650465946019A42
:1002E00000F0F6F910EB08006141002487EA115292
:1002F00084EAE7731A4340D0009A62B3019A012A54
:100300004FEA075215DC001B61EB02014FF000427F
:1003100002EA0752CDE90042001C41F58011324645
:100320002B4600F0F6F903B0BDE8F08F40462146B9
:10033000F9E7001B61EB0201001C41F58013001876
:100340005B412018A2F5001747EB030140EAD57086
:10035000B6196D4111E06D084FEA360645EAC075E1
:100360004FEA0752001B61EB0201001C41F58011AE
:1003700049084FEA30000019514132462B4603B07C
:10038000BDE8F04F00F0B6B900980122400000230C
:10039000D0EB020263EBE073009821464FEAE07471
:1003A000B8EB000061EB0401E9E783F000435BE791
:1003B00081F0004158E72DE9FE4F81EA030404F083
:1003C000004421F0004100944FF0000B23F0004363
:1003D00050EA01045ED052EA03045BD0C3F30A542E
:1003E000C1F30A552C44A4F2F3340194A0FB025447
:1003F000C1F3130141F48011C3F3130343F48013D9
:1004000001FB024400FB034E840A970A44EA81542C
:1004100047EA8357A4FB076802958D0A05FB078509
:100420004FEA932C04FB0C542705029D4FEA065813
:1004300047EA1637B5EB08056EEB070C870E920EF0
:1004400047EA811742EA8312A7FB0201B6EB0B01D0
:1004500064EB00042B0D43EA0C335E1844EB1C5094
:10046000DA465146E7FB0201C5F313044FEA0B33AA
:1004700043EA14534FEA0432019C43EA0603A4F111
:100480000C040294009CCDE900B400F042F903B0E2
:10049000BDE8F08F00200146F9E72DE9F04D81EA33
:1004A000030404F0004B21F0004514464FF0000A0D
:1004B00023F0004150EA050220D054EA01021DD089
:1004C000C5F30A570246C5F31303C1F31300C1F382
:1004D0000A5640F4801543F48013A7EB0608101B5E
:1004E000D64608F2FD3873EB050002D308F1010887
:1004F00001E092185B41B8F1000F03DA00200146D9
:10050000BDE8F08D00204FF48011064684460EE0D1
:10051000171B73EB050705D3121B63EB050306439B
:100520004CEA010C49084FEA300092185B4150EA4E
:100530000107EDD152EA030012D082EA040083EAF7
:100540000501084305D0101BAB4106D20122002350
:1005500006E000224FF0004302E06FF0010253106A
:100560001AEB06004CEB085110EB0A0041EB0B01B3
:10057000BDE8F04D00F0BEB80EB5C10F80EAE070E6
:100580000844CA07002140F233438DE80E000A46B2
:100590000B4600F0BEF803B000BD0EB540F233418B
:1005A00002910021CDE900110A460B4600F0B1F896
:1005B00003B000BD70B5C1F30A5201F0004500243C
:1005C000C1F3130140F2FF3341F480119A4201DA82
:1005D000002070BD40F233439A42A2F2334203DC62
:1005E0005242FFF70DFE00E090402C43F1D0404214
:1005F00070BD000030B5041E71F1000404DB4FF043
:100600000044404264EB0101141E73F1000405DB59
:100610001C464FF00043524263EB0403994208BF6B
:10062000904230BD30B50B46014600202022012407
:1006300009E021FA02F59D4205D303FA02F5491BB0
:1006400004FA02F52844151EA2F10102F1DC30BDC6
:100650002DE9F05F0546002092469B4688460646F7
:10066000814640241BE02846414647462246FFF784
:10067000C7FD53465A46C01A914110D31146184639
:10068000224600F016F82D1A67EB01084F46224665
:100690000120002100F00DF817EB00094E41201E4B
:1006A000A4F10104DFDC484631462A464346BDE852
:1006B000F09F202A04DB203A00FA02F10020704764
:1006C0009140C2F1200320FA03F319439040704790
:1006D000202A06DBCB17203A41FA02F043EAE07306
:1006E00006E041FA02F3D040C2F1200291400843F3
:1006F0001946704710B5141E73F1000408DA401C47
:1007000041F1000192185B411A4301D120F0010030
:1007100010BD2DE9F04D92469B4611B1B1FA81F220
:1007200002E0B0FA80F220329046FFF7C2FF0446A2
:100730000F4640EA0A0041EA0B0153465A46084375
:1007400013D0114653EA010019D0C8F140025046B7
:10075000FFF756FD05460E46504659464246FFF7FE
:10076000A8FF084305D0012004E020463946BDE833
:10077000F08D0020054346EAE0762C4337430A9883
:100780006305E40AA0EB08000022FD0A44EA47548E
:100790000A3002D500200146E9E701051019694138
:1007A000DDE9084500196941BDE8F04DA2E770B5E3
:1007B00021F0004303430CD0C1F30A550024D5EBCC
:1007C000040564EB0403D617AD1AB34102DB002025
:1007D000014670BD201841EB025170BD2DE9F04D6E
:1007E00000231A461B1A8A4103DB00200146BDE89C
:1007F000F08DC1F30A52C1F3130141F480154FF09B
:10080000000BD10702D100186D41521E002704468B
:1008100040F2FF11384601EB620A3E46804602462E
:1008200000204FF48011FFF7EBFCC2197141BB1897
:1008300046EB0100B4EB030C75EB000C04D3E41A97
:1008400065EB000517460E46241908F101006D41BD
:1008500080463428E3DDF91946EB0600091BA84160
:1008600003D24FF0FF32134601E0002213461BEB88
:10087000070046EB0A51BDE8F04DFFF73BBFC1F35F
:100880000A52C1F3130140F2FF3341F480119A423E
:1008900002DA00200146704740F233439A42A2F246
:1008A000334202DC5242FFF7ABBCFFF702BF00004D
:1008B000064C074D06E0E06840F0010394E80700AD
:1008C00098471034AC42F6D3FFF736FCE413020825
:1008D0000414020870B58C1810F8015B15F00703BA
:1008E00001D110F8013B2A1106D110F8012B03E0C9
:1008F00010F8016B01F8016B5B1EF9D12B0705D4D1
:100900000023521E0DD401F8013BFAE710F8013B19
:10091000CB1A921C03E013F8015B01F8015B521E35
:10092000F9D5A142D8D3002070BD000010B5012137
:100930001B4806F047F9012800D100E000201949C2
:1009400008700846007818490979C1F3C001884247
:1009500022D014484078401CC0B21249487019286F
:100960001DDB002048700846007870B10E484068D2
:1009700020F4801000F580100B494860084640685C
:1009800020F008000830486009E00748406820F07F
:1009900008000549486002E000200249487010BD87
:1009A00000100140E1020020FCA20020704700007E
:1009B0001FB500200090019002900390012000904C
:1009C0000020019002906946044805F05BFF022276
:1009D0000021034811F068FA1FBD0000001001401B
:1009E000E10200207047000010B5024805F04BF905
:1009F00010BD00004404002070B5044600252068A6
:100A0000806800F00100F0B12068806820F00100EB
:100A10002168886006F0E4F805460EE006F0E0F88C
:100A2000401B022809D9A06A40F01000A062E06AC9
:100A300040F00100E062012070BD2068806800F095
:100A400001000028EAD10020F6E770B505466C6A7F
:100A5000A06A00F05000E0B9A06A40F40070A06203
:100A60002068806800F46020B0F5602F0DD1207BF5
:100A700058B9A06A20F48070A062A06A00F4805087
:100A800018B9A06A40F00100A062204605F0F8F80D
:100A900003E0206A016B2846884770BD70B50546A3
:100AA0006C6AA06A40F04000A062E06A40F0040076
:100AB000E062204605F0E6F870BD70B50446656A50
:100AC000284605F0DEF870BD38B504460025002044
:100AD00000902068806800F0010080BB206880687A
:100AE00040F0010021688860164800681649B0FB94
:100AF000F1F0009002E00098401E0090009800285D
:100B0000F9D106F06DF8054613E006F069F8401BD0
:100B100002280ED9A06A40F01000A062E06A40F0FE
:100B20000100E06200BF002084F8240000BF012023
:100B300038BD2068806800F001000028E5D0002062
:100B4000F6E700000001002040420F00704700005F
:100B500010B50221184806F035F808B9012000E068
:100B60000020164908700846007815494968C1F305
:100B7000804188421CD011484078401CC0B20F49C7
:100B80004870192817DB002048700846007840B1EB
:100B90000B48406820F4802000F580200849486018
:100BA00009E00748406820F480200549486002E0D9
:100BB00000200249487010BD000C0140E3020020F3
:100BC000FCA2002010B504A000F08EF808480949E6
:100BD00088600948C86010BD416D70547970652007
:100BE0002D2D2D2054444638353431200D0A000077
:100BF000F1BF00081C6000202DC0000810B50020C7
:100C000021494871002424E02049085D08F0C4FA15
:100C100000281CD01C48407970B91C48005D1A4956
:100C20004870084641781AA000F05EF80120164985
:100C300048710846C4700AE01448005D1249887083
:100C400008460471817812A000F04EF803E0601CA1
:100C5000C4B2042CD8DB00BF0B48C078042804D1F0
:100C600012A000F041F8002010BD0748C0781549D7
:100C700051F8200028B10449C978124A52F82100DD
:100C800080470120F0E700001C6000204439010883
:100C9000416D7041646472436865636B204F4B2003
:100CA0002D2D2D202558200D0A000000416D70418A
:100CB000646472436865636B206661696C200D0A29
:100CC000000000004839010800214868804700BF43
:100CD000FEE7000010B5012011F0B8FD01490860E1
:100CE00010BD0000140000200FB400B5FFB081A8B3
:100CF000009040F2F51101A8009B809A0DF028FDAC
:100D000000200090411E074800680FF043FC01A935
:100D100005A00DF00DFD034800680FF0E1FC7FB069
:100D20005DF814FB4C000020257300001CB5044640
:100D300009227DA1204611F095F8012801D17D49B5
:100D4000087004227CA1204611F08CF801281ED1E5
:100D500000207B4908701E22611D7A4811F096F828
:100D6000052279A1774811F07DF8012801D1744955
:100D700008707048007828B94FF403720A210320E4
:100D800009F09CFE132272A101200DF0A1FC0622A5
:100D900074A1204611F066F801280FD10C2204F14D
:100DA0000901724811F072F86248007858B94FF49E
:100DB00086720A21032009F081FE04E006226CA15C
:100DC000204611F04FF809226BA1204611F04AF895
:100DD000012806D1607A303880B90120694908704D
:100DE0000CE0092268A1204611F03CF8012805D149
:100DF000607A303810B9002062490870042265A179
:100E0000204611F02FF801280DD10C22E11D574882
:100E100011F03CF84748007828B94FF486720A214F
:100E2000032009F04BFE08225CA1204611F01AF8BD
:100E3000012813D1012204F1080101A811F026F8BC
:100E40009DF80400302805D1002057490870012082
:100E50005649087001200AF03DFD11E0082254A116
:100E6000204610F0FFFF01280AD100204F490870EA
:100E700001200AF02FFD0E2250A101200DF028FCC8
:100E8000082252A1204610F0EDFF012813D10122C3
:100E900004F10801684610F0F9FF9DF800003028C1
:100EA00005D100204149087001203F490870012008
:100EB0000AF010FD11E0082247A1204610F0D2FFF1
:100EC00001280AD100203849087001200AF002FDEB
:100ED0000E223AA101200DF0FBFB082241A1204681
:100EE00010F0C0FF012801D10AF0F4FC052240A156
:100EF000204610F0B7FF012801D10AF0EBFC0822D0
:100F00003DA1204610F0AEFF01280CD10020094978
:100F100008700E2229A101200DF0DAFB13220CA18A
:100F200001200DF0D5FB1CBD44415441494E4954AC
:100F300020000000600200204756455220000000BB
:100F40006202002039600020505930373200000022
:100F500041542B4220534C444E204453505F313671
:100F600043480D004846434F4E4E20002C60002061
:100F7000484644495343200041324450434F4E4E6B
:100F80002000000064020020413244504449534391
:100F900020000000474C42442000000053505043C2
:100FA0004F4E4E200000000063020020610200202E
:100FB00053505044495343200000000041542B42F9
:100FC00020424C4541445620310D0000424C4543DF
:100FD0004F4E4E2000000000424C454449534320F0
:100FE00000000000535050444154412000000000D4
:100FF000474F544120000000534E4B494E49542066
:101000000000000020B1012802D0022800D000BF5B
:10101000704700001FB500200090019002900390DF
:10102000022000900020019002906946044805F0DB
:1010300029FC02220021034810F036FF1FBD0000EA
:10104000000C0140E30200202DE9F04106460C4669
:10105000E2E103F059FC94F86500062876D006DC3E
:10106000062874D2DFE800F0102D3D50637B202865
:101070006ED004DC10286CD0112868D1B0E0212893
:1010800068D03028F9D1B9E10122214630460DF06F
:1010900014FB2078AA2806D1012084F865000020DE
:1010A000E14908700CE02078412803D1022084F83F
:1010B000650005E02078442802D1032084F865000B
:1010C000A9E10122611C30460DF0F7FA607855283D
:1010D00003D1102084F8650002E0002084F8650048
:1010E00099E10122611C30460DF0E7FA607854283E
:1010F00006D1042084F86500002084F8640002E032
:10110000002084F8650086E10122611C30460DF064
:10111000D4FA6078422806D1302084F86500002097
:1011200084F8640002E0002084F8650073E1012285
:10113000A11C30460DF0C1FAA0782D280BD1052056
:1011400084F86500002084F8640007E01AE061E19B
:1011500089E02AE0A4E0002084F865005BE1012238
:10116000E11C30460DF0A9FAE078422806D10620AD
:1011700084F86500002084F8640002E0002084F810
:10118000650048E10122211D30460DF096FA2079D4
:10119000202806D1212084F86500002084F864000E
:1011A00002E0002084F8650035E10122A11C3046F0
:1011B0000DF083FAA07884F8640094F86400502855
:1011C00003DC94F86400032803DA002084F8650047
:1011D00021E196A0FFF788FD112084F865001AE14F
:1011E00094F86400C01E82B2E11C30460DF065FA2E
:1011F00008B9BDE8F08194F86400401EC1B22046F1
:1012000004F0B8FB014694F86400401E205C814263
:1012100023D18A480078B04208D0304601F024F843
:1012200094F864202146864810F030FE94F865104A
:1012300084A0FFF759FD002506E08148415D85A0A7
:101240000DF076FA681CC5B283480078C01C205C9B
:10125000A842F2DC00F02AF900BF002084F8650003
:1012600084F86400C5E794F86400401D0119012268
:1012700030460DF022FA94F86400401D205C2028CE
:1012800002D1212084F8650014F8640F401C2070FE
:1012900014F86409962802DD002084F86500BAE09D
:1012A00094F86400401D0119012230460DF005FA42
:1012B0000A226AA1601D10F0D5FD012806D00A227D
:1012C00069A1601D10F0CEFD01287CD10027607C53
:1012D0002C2802D0A07C2C281ED1E07B202809D10C
:1012E000607C2C2806D1207C3138C7B211205A49A5
:1012F000087011E0E07B20280ED1A07C2C280BD1B7
:10130000617C207C303800EB800001EB40003038FD
:10131000C7B212205049087094F8641007F10E000B
:10132000814244DBF7B394F86400401D205C0D2833
:1013300034D142480078B04202D0304600F094FFE9
:1013400045480078C01C225C43480078401C2118A6
:101350003B4810F09BFD47A0FFF7C6FC002506E0C8
:101360003748415D3BA0FFF7BFFC681CC5B23A4857
:101370000078C01C205CA842F2DC31488078401E16
:10138000C1B22F4804F0F6FA2D498978491E2C4A3B
:10139000515C884201D100F089F800BF002084F838
:1013A000640001E003E00EE084F8650025E014F835
:1013B000640F401C207014F8640964281DDD0020AF
:1013C00084F8650019E094F86400401D205C0D2845
:1013D00008D1601DFFF7AAFC002084F8640084F89F
:1013E00065000AE014F8640F401C207014F86409CA
:1013F000642802DD002084F865000CE00122A11CB5
:1014000030460DF05AF9A07801F038F8002084F841
:10141000650000E000BF00BF30460DF047F900282E
:101420007FF417AE00BFE4E6F1000020527820758B
:101430006461746120686561643A2000750200206F
:10144000E26000205278207564617461203A2025A2
:101450007800000020257800780200205350504486
:10146000415441494E440000424C45444154414995
:101470004E4400000D0A2052782064617461203AC5
:10148000200000007047704710B54FF4E131002094
:101490000AF0EFF94FF4E13101200AF0EAF94FF4D4
:1014A000E13102200AF0E5F910BD0000FEB5F74C6D
:1014B000A01F0079F02802DAFF2000F00FFEF348A9
:1014C000801F00790B2877D006DC012816D0082869
:1014D00073D00A2872D11EE00F2870D0FF28F9D1EE
:1014E000EA48801FC078EA49497B884205D100203C
:1014F000E74981F8690081F86800F4E3E348801F58
:101500004079042805D103220121104609F0D6FABA
:1015100000BF00BFF1E7DD48801F407913287DD070
:1015200016DC13287CD2DFE810F039008F0052015E
:10153000C50109021503360366038403A203C90328
:10154000E8032D045D0483047B007B007B006701BE
:10155000872866D010DC832871D006DC14286FD071
:1015600015286ED082285BD17BE184286AD085283B
:1015700069D08628F7D134E388380D28D2D2DFE845
:1015800010F06C0393034F004F004F004D04810493
:101590004F004F004F007A018F015A02BD4890F86A
:1015A000D60BE0BB207858B9B848801F42790A2191
:1015B000032009F083FA41E0F2E3F2E3F2E3F2E31D
:1015C0002078012815D1B4484068C0F3C04030B934
:1015D0000121B04880F8D61B617880F8D71BAB4852
:1015E000801F407900F580720A21032009F066FA15
:1015F00024E02078022821D1A7484068C0F3C040E9
:1016000030B90221A34880F8D61B617880F8D71B37
:101610009E48801F407900F5007203E006E106E075
:10162000FBE3FCE20A21032009F048FA06E09748B0
:10163000801F42790A21032009F040FA26E273E173
:1016400051E224E2C1E19CE2207828B901220A217A
:10165000032009F033FAB9E02078012808D18E4838
:101660004068C0F3C0400028F5D100F0B7FFADE0FE
:101670002078022827D160780028ECD0864840687E
:10168000C0F3C04010B9607801F08AF9607800EBCF
:10169000D0714910A0EB410151B16078401E4FF468
:1016A000004141EA401081B27A48A0F8D21B8DE097
:1016B0006078401E4FF4004141EA401081B2754805
:1016C000A0F8D41B82E02078032828D16078002875
:1016D0007CD071484068C0F3C04018B960780121DF
:1016E00000F0E6FF607800EBD0714910A0EB4101FB
:1016F00051B16078401E4FF4004141EA401081B280
:101700006448A0F8D21B61E06078401E4FF40041AD
:1017100041EA401081B25F48A0F8D41B56E020781F
:10172000042821D16078E8B35B484068C0F3C0402A
:1017300010B9607801F038FC6078401E032101EB9D
:10174000402082B20A21032009F0B8F96078401ED7
:10175000012101EB4000032101EB002082B20A21AC
:10176000032009F0ABF931E02078052829D1607811
:10177000C0B149484068C0F3C04018B96078002142
:1017800000F096FF607800EBD0714910A0EB4101AA
:1017900061B16078401E4FF4004141EA401081B2CF
:1017A0003C4800E012E0A0F8D21B0FE06078401E39
:1017B0004FF4004141EA401081B23648A0F8D41BF2
:1017C00004E02078062801D102F0C4FB65E332482A
:1017D0004068C0F3C04018B92078A11C01F01EFF7A
:1017E0002A48801F4079217800EB012082B20A212B
:1017F000032009F063F950E327484068C0F3C04074
:1018000040B90522A11C254810F040FB2078A11CFE
:1018100001F004FF1D48801F4079217800EB012072
:1018200082B20A21032009F049F936E31A484068D8
:10183000C0F3C04048B90522A11C1848401D10F053
:1018400025FB2078154901F0E9FE1048801F4079FA
:10185000217800EB012082B20A21032009F02EF941
:101860001BE32078022101EB002082B20A21032031
:1018700009F024F911E32078122101EB002082B253
:101880000A21032009F01AF907E30000E8600020AC
:10189000786000202C720020FCA200202062002032
:1018A0002078132101EB002082B20A21032009F0E5
:1018B00005F9F2E2F8484068C0F3C04048BB6078E0
:1018C0008DF80000A0788DF80100E0788DF8020016
:1018D00020790006617900EB0140A17900EB01203D
:1018E000E17908440190607A217A00EB012080B20E
:1018F000ADF80800257805EBD5725210A5EB420231
:10190000D1B22E4605EBD67250106A4601F0ACFB00
:1019100000BFE2484079217800EB012082B20A2121
:10192000032009F0CBF8B8E22078032101EB002076
:1019300082B20A21032009F0C1F8AEE2D64840681D
:10194000C0F3C040B0BB60788DF80000A0788DF87F
:1019500001002079E17800EB012080B2ADF80200AF
:1019600060790006A17900EB0140E17900EB0120EC
:10197000217A08440190A07A617A00EB012080B2BC
:10198000ADF80800207BE17A00EB012080B2ADF8D1
:101990000A002578EA1705EBD2625211A5EB421234
:1019A000D1B22E46EA1705EBD26250116A4601F019
:1019B000E7F800BFB9484079217800EB012082B2F6
:1019C0000A21032009F07AF867E22078C11700EBBA
:1019D000D1614911A0EB41111F2922D12078C117F3
:1019E00000EB91618911A0EB811120290CDA20789C
:1019F000C11700EBD16149114FF4004242EA411195
:101A0000A74AA2F8D21B15E02078C11700EBD161DC
:101A100049114FF4004242EA4111A14AA2F8D41BF5
:101A200008E02078042101EB002082B20A21032083
:101A300009F044F831E22078C11700EBD161491177
:101A4000A0EB41111F2921D12078C11700EB916132
:101A50008911A0EB811120290CDA2078C11700EB45
:101A6000D16149114FF4004242EA41118C4AA2F877
:101A7000D21B0BE02078C11700EBD16149114FF464
:101A8000004242EA4111864AA2F8D41B05E282488C
:101A90004068C0F3C040D8B9A078617800EB01205D
:101AA000804908812079E17800EB01207D49488157
:101AB0002578EA1705EBD2625211A5EB4212D1B29A
:101AC0002E46EA1705EBD2625011764A01F058F81B
:101AD00072484079217800EB012082B20A2103206C
:101AE00008F0ECFFD9E16C484068C0F3C04030BB5F
:101AF00060786C490870A07848702079E17800EB34
:101B000001206849488060790006A17900EB014016
:101B1000E17900EB0120217A084462494860257888
:101B2000EA1705EBD2625211A5EB4212D1B22E4652
:101B3000EA1705EBD26250115A4A01F021F85748D2
:101B40004079217800EB012082B20A21032008F0BD
:101B5000B5FFA2E150484068C0F3C04030B9A27858
:101B6000637802EB0321207800F056FD4B48407962
:101B7000217800EB012082B20A21032008F09EFFA9
:101B80008BE12078052101EB002082B20A2103209D
:101B900008F094FF81E140484068C0F3C04088B934
:101BA000207838B92079E17800EB012081B23C48F7
:101BB000A0F8241BA278637802EB032291B220786C
:101BC00001F07CFF35484079217800EB012082B29A
:101BD0000A21032008F072FF207808B900F07CFB8E
:101BE0005BE12078062101EB002082B20A2103206C
:101BF00008F064FF51E128484068C0F3C04018B9BC
:101C00006178207801F072FE24484079217800EB59
:101C1000012082B20A21032008F050FF3DE1207824
:101C2000072101EB002082B20A21032008F046FFC1
:101C300033E119484068C0F3C04018B96178207892
:101C400001F066FD15484079217800EB012082B251
:101C50000A21032008F032FF1FE12078082101EB60
:101C6000002082B20A21032008F028FF15E10A486B
:101C70004068C0F3C04018B92078611C01F0EAFE4A
:101C800006484079217800EB012082B20A21032026
:101C900008F014FF01E10000FCA20020E260002037
:101CA0002C720020146200202078092101EB002012
:101CB00082B20A21032008F001FFEEE02178F74804
:101CC00080F8E41B617880F8E51B6178207802F0E9
:101CD00085F948B1F248407900F580720A21032065
:101CE00008F0ECFE08E0F6E1ED48407900F50072FE
:101CF0000A21032008F0E2FECFE02078012825D158
:101D00002078E8490870601C07F0ECFBA8B1E01DE2
:101D100009F018FC40B1E248407900F580720A21D0
:101D2000032008F0CBFE2CE0DD48407900F540723E
:101D30000A21032008F0C2FE23E0D948407900F5CB
:101D400000720A21032008F0B9FE1AE02078022868
:101D500017D12078D3490870601C07F0C3FB40B14D
:101D6000CF48407900F580720A21032008F0A6FED2
:101D700007E0CB48407900F500720A21032008F003
:101D80009DFE8AE02078012818D1C74800780128F4
:101D90000AD14FF486720A21032008F08FFE20E05A
:101DA0007DE06EE196E166E1C0480078C8B94FF485
:101DB00086720A21032008F081FE12E020780228B2
:101DC0000FD1B9480078012806D14FF403720A21D7
:101DD000032008F073FE04E00B22B5A101200CF0F3
:101DE00077FC5AE02078012816D1B4484068C0F347
:101DF000C04010B960780CF085FCA9484079217882
:101E000000EB012082B20A21032008F057FE0622CF
:101E10000A21032008F052FE3FE03DE020780D212A
:101E200001EB002082B20A21032008F047FE34E0D3
:101E3000207801280AD101F0FDFCA048406820F478
:101E4000002000F500209D4948600AE02078022823
:101E500007D101F02BFD9948406820F400209749F4
:101E600048608F484079217800EB012082B20A2136
:101E7000032008F023FE4FF47E420A21032008F0DD
:101E80001DFE0AE020780E2101EB002082B20A211B
:101E9000032008F013FE00BF00BF00BF1BE1804815
:101EA000407905287ED2DFE800F003456297BD0047
:101EB0002078012814D1794890F8D60B48B9607879
:101EC00038B16178754880F8D71B032180F8D61B9C
:101ED0002FE04FF47F420B21032008F0EFFD28E0B4
:101EE0002078022814D16D4890F8D60B48B9607854
:101EF00038B16178694880F8D71B042180F8D61B77
:101F000017E04FF47F420B21032008F0D7FD10E0CB
:101F1000207881280DD10021604880F8D71BC0F8B7
:101F2000DC1B80F8D81B80F8D91B80F8DA1BC0F8BE
:101F3000E01B9EE0594890F8D60B032816D1217873
:101F4000564890F8D70B814210D141F64C31534896
:101F5000C0F8DC1B52484179504890F8D70B01EB90
:101F6000002082B20B21032008F0A8FD81E04B483D
:101F700090F8D60B03282ED12178484890F8D70B3B
:101F8000814228D16178454880F8D81B90F8D80B59
:101F9000401C4249D1F8DC1B3F31B0EB911F0AD302
:101FA0003E4800E064E090F8DC0B00F03F013B4865
:101FB00080F8D91B03E04021384880F8D91B384805
:101FC0004179364890F8D70B01EB002082B20B2103
:101FD000032008F073FD4CE0304890F8D60B04283D
:101FE0001FD121782D4890F8D70B814219D1607804
:101FF0000006A17800EB0140E17800EB0120217997
:1020000001442648C0F8DC1B60790006A17900EB8A
:102010000140E17900EB0120217A01441F48C0F81A
:10202000E01B26E01D4890F8D60B04281FD121782C
:102030001A4890F8D70B814219D16178174890F867
:10204000D80B814213D11E4D144890F8D80B402173
:1020500001FB005512488078093882B2A11C28463D
:102060000FF014FF01210D4880F8DA1B00BF00E0DB
:1020700000BF00BF2FE00E2212A101200CF028FBB0
:1020800029E007484079012806D10C48406820F033
:102090000200801C094948601DE000002C720020ED
:1020A000E26000206D020020750200206C0200201A
:1020B00041542B4220475645520D0000FCA20020FF
:1020C0002C62002041542B4220534F544120310DAB
:1020D0000A00000000BF00BFFEBD000030B585B0A3
:1020E000054641208DF8000054208DF801003E2067
:1020F0008DF8020001208DF803003048007818B1F7
:1021000001208DF8040009E02D48007818B1022064
:102110008DF8040002E000208DF8040000208DF806
:10212000050009208DF8060080208DF807000020AA
:102130008DF808000D208DF8090055208DF80A0053
:10214000AA208DF80B0006208DF80C001D48C078E1
:102150008DF80D008DF80E5005210DF10A0003F0E9
:1021600009FC8DF80F000D208DF81000164800783E
:1021700090B9002405E01DF8040014490855601CBE
:10218000C4B2112CF7DB4022104911480AF0B8FA0A
:10219000642010F0CFF80EE00B48007801280AD137
:1021A000112269460B4806F0F6FE142010F0C2F822
:1021B00009A0FEF799FD05B030BD000063020020C4
:1021C00061020020E260002075020020040400206B
:1021D000D4070020540600200D0A205478206163A3
:1021E0006B203A200000000000BFFEE7002070478F
:1021F000002070472DE9F04106460F461048D0F800
:10220000B852002416E0285D0E490855295D0020CB
:102210000CF06CFA0B48025D21460BA00CF088FA1A
:10222000402010490870A878401EA04200DC03E05E
:10223000601CC4B2402CE6DB00BF0020BDE8F0818A
:10224000D4070020040400205553425F52785F42B7
:1022500075665B25645D203D2030782578200D0A69
:10226000000000000500002010B50446144890F856
:10227000D60B18BB13480078844204D11149124888
:1022800002F07EFA07E011480078844203D10F493A
:102290000D4802F075FA0C48007818B90C4809F09E
:1022A00059F90BE008480078022803D1094809F0E1
:1022B00051F903E04FF0FF3009F04CF910BD000078
:1022C0002C72002076020020750200207702002088
:1022D0005555AAAA55AA55AA10B5002412E00B48D4
:1022E000B0F8000B0A4931F81410884208DA09489E
:1022F000047040F20D120A21032008F0DFFB10BD2C
:10230000601CC4B2282CEADD00BFF8E72C72002064
:10231000E81002089D02002010B50F4803F06EFB84
:1023200048B100200D49087001200D4908700220B5
:102330000C4908700CE00C4803F060FB40B102202F
:1023400006490870012006490870002005490870F8
:1023500001200249087010BD5555AAAA7502002037
:10236000760200207702002055AA55AA10B5002455
:1023700000BF04E0204600F005F8601CC4B2042C45
:10238000F8DB10BD10B50446024901EB041008F05B
:1023900087FC10BDBC03002010B5024803F0AAFF63
:1023A00010BD00007404002030B590F840500124A6
:1023B000AC40C56B6C60046863604468102C04D149
:1023C0000468A2600468E16003E00468A160046836
:1023D000E26030BD7047704710B52348007806288A
:1023E00000D010BD2148007821490978884236D0B4
:1023F0001E484078401CC0B21C494870192831DB87
:10240000002048700846007870B11A48406820F4EF
:10241000002000F500201749486001201449087089
:10242000012401F007FA0BE01248406820F4002074
:102430001049486000200E490870022401F036FA65
:102440000E2000EB042082B20A21032008F036FBA4
:102450004FF47E420A21032008F030FB02E0002006
:102460000249487000BFBCE7D202002005030020EB
:1024700007030020FCA200207047000070B505464D
:10248000042D33D007DC6DB1012D0CD0022D0DD001
:10249000032D5BD11AE0052D38D0062D46D0102D26
:1024A00054D144E053E00DF0A1F950E000224FF484
:1024B0008051284804F08EFB4FF4FA7009F00AFAB4
:1024C00001221103234804F085FB40E000224FF471
:1024D0000061204804F07EFB4FF4FA7009F0FAF92D
:1024E0000122D1021B4804F075FB30E000224FF4BA
:1024F0000051184804F06EFB4FF4FA7009F0EAF945
:1025000001225103134804F065FB20E000224FF440
:102510008071114804F05EFB4FF4FA7009F0DAF9AB
:10252000012211020C4804F055FB10E00FE00024DA
:1025300009E0204602F0FAFF02F0E6F9082009F06F
:10254000C9F9601CC4B2102CF3DD00E000BF00BF6D
:1025500070BD0000001401400008014070B5044641
:102560000D4601F08FFA00F0E1FF00F0B7FC00F03B
:10257000EFF800F08FF80CB101F0ACFB01F04EF970
:1025800001F0FAF970BD000010B50021084880F88C
:10259000D11BA0F8D21BA0F8D41B80F8D01B80F868
:1025A000D61B00F007F801210846FFF7D7FF10BD42
:1025B0002C72002010B5002408E0064901EBC4008D
:1025C000082205490FF062FC601CC4B2102CF4DB39
:1025D00010BD00007C7D0020C60E020810B5002151
:1025E0000C4880F8D11B03F091F901210846FFF750
:1025F000B5FF0121084601F04DFD00220A2103200C
:1026000008F05CFA4FF47E420A21032008F056FAE3
:1026100010BD00002C7200207CB504460D46002041
:102620000190122C02DC0CB1092C00D17CBD280ECB
:102630008DF80400280C8DF80500280A8DF8060096
:10264000E8B28DF80700092C0ADA01A800900F48BB
:1026500030F8142004230021084608F04BFE0FE058
:10266000092094FBF0F100FB1140084931F810609B
:1026700001A80423324600210090012008F03AFE10
:10268000034921F8145000BFD0E70000800E020873
:10269000087D0020002005E00021044A22F81010E7
:1026A000411C88B21128F7DB70470000087D00202C
:1026B00070B504460E46102C00DC0CB9002070BD2D
:1026C000601EC4B200253DE0012E17D1642009F040
:1026D0000DF904EB44011D4800EBC11005EB450169
:1026E00010F8210020F0010104EB4402174800EB30
:1026F000C21005EB450200F8221014E004EB44017F
:10270000124800EBC11005EB450110F8210020F044
:102710000100401C04EB44020C4901EBC21105EB23
:10272000450201F8220004EB4401084800EBC11007
:1027300005EB450100EB81022946204600F020FA16
:10274000681CC5B2202DBFDB0120B8E7086500205A
:1027500010B5002161E000205BE0002301EB4104A3
:102760002F4A02EBC41200EB400402F8243001EBC4
:1027700041032B4A02EBC31200EB400312F8232063
:1027800022F00102521C01EB4104254B03EBC41360
:1027900000EB400403F82420002301EB4104204A0D
:1027A00002EBC41200EB400402EB840253704FF4BE
:1027B000166301EB41041A4A02EBC41200EB400419
:1027C00002EB84025380174A52F8203001EB410497
:1027D000134A02EBC41200EB400402EB8402536084
:1027E00040F2DC5301EB41040D4A02EBC41200EB52
:1027F000400402EB840213818D2301EB4104084A5B
:1028000002EBC41200EB400402EB84025381421C31
:1028100090B22028A1DB4A1C91B210299BDB10BD8D
:1028200008650020100F020810B55848B0F8D20B08
:1028300000F4004000B910BD55480078401C5449D0
:1028400008705448007818B95348007800283DD0E3
:102850004F480078042802DB5048007878B14C4893
:102860000078042803DB4D480078022807D0484848
:102870000078082829DB49480078012825D1002064
:1028800043490870414890F8D20B042101EB002025
:1028900082B20A21032008F011F9002874D03B48C5
:1028A000B0F8D20B401C81B23848A0F8D21B0146C8
:1028B000B1F8D20BC11700EBD1614911A0EB411166
:1028C000002961D13148A0F8D21B5DE03048007882
:1028D000042802D13148007878B12D4800780428C6
:1028E00003D12E480078022807D0294800782828EC
:1028F0000ED12A48007801280AD1244890F8D20B3A
:10290000142101EB002082B20A21032008F0D6F83E
:102910001F480078082802DB2048007878B11C485E
:102920000078082803DB1D480078022807D01848E3
:1029300000783C2828DB19480078012824D10020A1
:1029400013490870114890F8D20B152101EB0020B3
:1029500082B20A21032008F0B1F8A8B10B48B0F800
:10296000D20B401C81B20948A0F8D21B0146B1F835
:10297000D20BC11700EBD1614911A0EB411119B97C
:1029800000210248A0F8D21B00BF54E72C7200209F
:1029900095020020610200206202002075020020E2
:1029A0003EB50546102D00DC0DB900203EBD681E69
:1029B000C5B200208DF800009DF8000020F0010055
:1029C000401C8DF8000000208DF801004FF41660C7
:1029D000ADF8020040F2DC50ADF808008D20ADF8F3
:1029E0000A0000240AE0074850F8240001906A46D3
:1029F0002146284600F0C4F8601CC4B2202CF2DB4B
:102A00000120D3E7100F020810B55848B0F8D40BD6
:102A100000F4004000B910BD55480078401C5449EE
:102A200008705448007818B95348007800283DD001
:102A30004F480078042802DB5048007878B14C48B1
:102A40000078042803DB4D480078022807D0484866
:102A50000078082829DB49480078012825D1002082
:102A600043490870414890F8D40B042101EB002041
:102A700082B20A21032008F021F8002874D03B48D4
:102A8000B0F8D40B401C81B23848A0F8D41B0146E2
:102A9000B1F8D40BC11700EBD1614911A0EB411182
:102AA000002961D13148A0F8D41B5DE0304800789E
:102AB000042802D13148007878B12D4800780428E4
:102AC00003D12E480078022807D0294800780C2826
:102AD0000ED12A48007801280AD1244890F8D40B56
:102AE000142101EB002082B20A21032007F0E6FF47
:102AF0001F480078082802DB2048007878B11C487D
:102B00000078082803DB1D480078022807D0184801
:102B10000078192828DB19480078012824D10020E2
:102B200013490870114890F8D40B152101EB0020CF
:102B300082B20A21032007F0C1FFA8B10B48B0F808
:102B4000D40B401C81B20948A0F8D41B0146B1F84F
:102B5000D40BC11700EBD1614911A0EB411119B998
:102B600000210248A0F8D41B00BF54E72C720020BB
:102B700096020020610200206202002075020020FF
:102B80002DE9F04391B006460D461446102E01DAA9
:102B90001F2D03DB002011B0BDE8F08361884FF4E6
:102BA0009652002006F0BBFC6080544A0020616809
:102BB00006F0B5FC6060218940F6B832002006F0CE
:102BC000AEFC208161894FF4C862002006F0A7FCAA
:102BD00060812846EB1705EB13731F113246F3177C
:102BE00006EB5373DB10A6EBC30307EB4303444F21
:102BF00037F813302946EF1705EB17773F11A5EB90
:102C0000071707EB87073B441FFA83F9207800F08A
:102C1000010060B1607840B96089009023896188C3
:102C200006A8626801F070FB12E00020B3E74FF4E1
:102C3000967008F05BFE00210691079108910991BA
:102C40003048CDE90A100C910D9100200E900F90A4
:102C50002078C0F3001088B1DDE9060181F0004161
:102C6000CDE90601DDE9080181F00041CDE9080167
:102C7000DDE90A0181F00041CDE90A0101AADDE99F
:102C80000671384608F0D8F902AADDE9087138461D
:102C900008F0D2F903AADDE90A71384608F0CCF948
:102CA00004AADDE90C71384608F0C6F905AADDE989
:102CB0000E71384608F0C0F9082E08DA01A805237D
:102CC0004A4600210090084608F0DAF907E001A81A
:102CD00005234A4600210090012008F0D1F906EBB7
:102CE0004601094800EBC11005EB450100EB8100EE
:102CF00094E80E000EC001204DE7000000770100AF
:102D0000900F02080000F03F0865002070B50446EF
:102D10006E480078401C6D4908706D4800780528A1
:102D20007CD2DFE800F003153B7CA400694890F8F2
:102D3000D70B032101EB002082B20B21032007F007
:102D4000BDFE002061490870012061490870BAE0A9
:102D50006048D0F8DC0B70B15E4890F8D70B0421C6
:102D600001EB002082B20B21032007F0A7FE022016
:102D70005749087011E0554800780A280DDB0020FB
:102D800052490870534890F8D70B032101EB0020FB
:102D900082B20B21032007F091FE94E04D4890F899
:102DA000DA0B40B34B4890F8D80B401C4949D1F896
:102DB000DC1B3F31B0EB911F03D303204449087063
:102DC00014E0002041490870424890F8D80B401C9C
:102DD000C1B2404880F8D81B90F8D70B042101EB12
:102DE000002082B20B21032007F068FE0021394841
:102DF00080F8DA1B11E03548007832280DDB00201E
:102E000032490870334890F8D70B042101EB0020B9
:102E100082B20B21032007F051FE54E052E0002162
:102E20002D4A002003E013781944521C401C294B02
:102E3000D3F8DC3B8342F6D8264BD3F8E03B8B42F9
:102E400003D10423224D2B7010E00023204D2B7062
:102E50001E4D2B7000251F4BC3F8DC5B83F8D85B3D
:102E600083F8D95B83F8DA5BC3F8E05B2BE01949A0
:102E700091F8D70B00F048FF18B3002014490870F0
:102E80000121084601F006F9124890F8D71B80F896
:102E9000D11B02F03BFD00210E4880F8D71BC0F883
:102EA000DC1B80F8D81B80F8D91B80F8DA1BC0F82F
:102EB000E01B4FF402420B21032007F0FFFD01202D
:102EC00070BD00E000BF00BF0020F9E7A7020020AE
:102ED000A60200202C7200202C62002000205DE061
:102EE000002200EB40032F4901F8332000EB4003A0
:102EF00001EBC3010A7300EB40022A4911F83210BA
:102F000021F00101491C00EB4003264A02F833106E
:102F100000EB4002234901EBC201097B21F00101D2
:102F2000491C00EB40031F4A02EBC302117303224A
:102F300000EB40031B4901EBC3014A7000EB400367
:102F4000184901EBC3014A7300EB4003154901EB3B
:102F5000C3018A7000EB4003124901EBC3018A737D
:102F6000142200EB40030F4901EBC3014A6044F611
:102F7000206200EB40030B4901EBC3010A61002210
:102F800000EB4003074901EBC3010A8100EB40035A
:102F9000044901EBC3018A82411C88B210289FDBDF
:102FA00070470000886300203EB50446102C00DC0A
:102FB0000CB900203EBD601EC4B200208DF8000098
:102FC0009DF8000020F00100401C8DF80000032057
:102FD0008DF801008DF80200142001900020ADF85A
:102FE00008006A460021204600F03EF844F62060C2
:102FF00001906A460121204600F036F80120D9E709
:1030000070B505460C46012C02D100201449087009
:103010001348007810B101281DD112E0284600F0B5
:1030200055FA68B10F4880F8D15B02F06FFC4FF49D
:1030300080720B21032007F041FD01200849087030
:103040000AE0084890F8D70B20B90020044908701E
:10305000012070BD00E000BF00BF0020F9E70000C4
:10306000A50200202C7200202DE9F047B0B00546E3
:103070000F461446142103A8FDF7EBF8102D01DAD2
:10308000022F03DB002030B0BDE8F08705EB4501DF
:10309000FB4800EBC10007EB470110F82100C0F32B
:1030A00000102178C1F3001180EA010AF54A0020DE
:1030B000616806F034FA6060207800F001000028B2
:1030C0007ED06078012815D1A078012812D12389FB
:1030D000394608A8626801F019FC2389394612A80C
:1030E000626801F013FC1CA801F0BEFF26A801F0E5
:1030F000BBFF1EE16078012815D1A078032812D10A
:103100002389394608A8626801F054FE23893946AC
:1031100012A8626801F04EFE1CA801F0A5FF26A8C7
:1031200001F0A2FF05E16078012823D1A0780528ED
:1031300020D100200321CDE900102389394608A8B9
:10314000626801F0A7FF2389394612A8626801F07E
:10315000DDFB00200321CDE90010238939461CA89E
:10316000626801F097FF2389394626A8626801F05A
:10317000CDFBDEE0607801282DD1A07807282AD188
:1031800000200421CDE900102389394608A862688F
:1031900001F080FF01200421CDE900102389394688
:1031A00012A8626801F076FF00200421CDE900102A
:1031B000238939461CA8626801F06CFF012000E0F9
:1031C000A7E00421CDE900102389394626A86268CA
:1031D00001F060FFADE06078022812D1A0780128EC
:1031E0000FD12389394608A8626801F087FC12A82C
:1031F00001F03AFF1CA801F037FF26A801F034FFC8
:1032000097E06078022815D1A078022812D123898E
:10321000394608A8626801F071FC2389394612A872
:10322000626801F073FB1CA801F01EFF26A801F0E4
:103230001BFF7EE06078022815D1A078032812D108
:103240002389394608A8626801F058FC2389394669
:1032500012A8626801F052FC1CA801F005FF26A824
:1032600001F002FF65E06078032812D1A078012800
:103270000FD12389394608A8626801F09BFD12A886
:1032800001F0F2FE1CA801F0EFFE26A801F0ECFE12
:103290004FE06078032819D1A078022816D10020C9
:1032A0000321CDE900102389394608A8626801F09E
:1032B000F1FE2389394612A8626801F027FB1CA899
:1032C00001F0D2FE26A801F0CFFE32E0607803289C
:1032D0001DD1A07803281AD100200421CDE90010C7
:1032E0002389394608A8626801F0D4FE0120042130
:1032F000CDE900102389394612A8626801F0CAFEA0
:103300001CA801F0B1FE26A801F0AEFE11E00020DD
:10331000B9E64FF4967008F0E9FA08A801F0A4FEA7
:1033200012A801F0A1FE1CA801F09EFE26A801F043
:103330009BFE2078C0F3001088B1DDE9080181F020
:103340000041CDE90801DDE90A0181F00041CDE944
:103350000A01DDE90C0181F00041CDE90C01BAF16F
:10336000000F0DD04849681C085C012808D1691C71
:10337000C8B20022114600F0DDF90A2008F0AAFACE
:10338000002657E006EB860008A901EBC00003AA5F
:10339000D0E90081404607F04FFE06EB860008A901
:1033A00001EBC00004AAD0E90281404607F044FEC8
:1033B00006EB860008A901EBC00005AAD0E904814C
:1033C000404607F039FE06EB860008A901EBC00075
:1033D00006AAD0E90681404607F02EFE06EB8600DD
:1033E00008A901EBC00007AAD0E90881404607F010
:1033F00023FE082D0EDA03A80090244800EB0510E8
:1034000000EBC70030F8162005230021084607F01E
:1034100037FE0DE003A800901C4800EB051000EB00
:10342000C70030F8162005230021012007F028FEF0
:10343000701CC6B2042EA5DBBAF1000F0DD01249E4
:10344000681C085C012808D11E2008F043FA691C9A
:10345000C8B20022012100F06DF905EB45010848D2
:1034600000EBC10007EB470100EB810094E80E0080
:103470000EC0D4E90101CDE900013A46294607E032
:103480008863002000770100527D0020B00F020801
:1034900002A02368FDF728FC0120F4E50D0A204670
:1034A000696C74657220646174613A204368616E6E
:1034B0006E656C3D25642C48504C503D25782C663B
:1034C000696C7465723D25780000000010B50446F3
:1034D0000CB9002010BD41F64C320B49204601F0DA
:1034E00059FF08B90020F5E70121084600F0D2FD98
:1034F000611E064A02EBC10008220349091D0EF0B5
:10350000C5FC0120E6E700002C6200207C7D002045
:1035100010B584220449002001F03CFF08B90020C6
:1035200010BD0120FCE70000787D002010B50020D0
:1035300026E0002120E0092290FBF2F302FB1302B7
:103540003AB131B1092290FBF2F302FB13028A4235
:1035500008D1902300EB400202EBC0040A4A224447
:10356000535407E0002300EB400202EBC004064A7C
:10357000224453544A1C91B20B29DCDB421C90B20A
:103580001228D6DB10BD0000C06200202DE9FC5FD0
:10359000834600200190824632E05846FCF7FDFF4A
:1035A00006460022194BFCF700FF04460D46002298
:1035B000174B20462946FCF770FF804642460B46D3
:1035C000002014490DF0A4F9064601AA07F034FDC5
:1035D00001A80090104830F81A2001230021084665
:1035E00007F04EFD01A800900B4830F81A20012387
:1035F0000021184607F044FD0AF1010000F0FF0A1F
:10360000BAF10A0FC9DB0120BDE8FC9F000062404F
:103610000000344000002440C21002082DE9FE4F93
:103620000446894600200290122C02DC0CB1092CC1
:1036300002D10020BDE8FE8F4FF0000A58E099F853
:103640000010BA22002005F06AFF89F8000099F8FE
:103650000000FCF7A2FF07460022284BFCF7A5FE5E
:1036600005460E460022264B28463146FCF715FF3C
:1036700007463A460B46002022490DF049F902AAB6
:10368000CDE9000107F0D8FC092C12DA092094FBDF
:10369000F0F100FB11401C4931F81000504487B292
:1036A00002A801233A4600210090084607F0E8FCF2
:1036B00011E0092094FBF0F100FB1140124931F8B0
:1036C0001000504487B202A801233A46002100901E
:1036D000184607F0D5FC19F8011B04EB440000EB79
:1036E000C4020A4802440AF10100115400F0FF0A22
:1036F000BAF10A0FA3DB01209CE700000000624042
:103700000000344000002440B0100208C0620020D5
:1037100070B504460D460DB1012000E000200646BC
:1037200000223146204600F005F80148065570BDDC
:10373000527D00202DE9FC4104460D46164600202E
:1037400001908DF80750112C01DDBDE8FC813DB9D9
:1037500036B90021204600F099FD0A2008F0BAF899
:10376000092C0ADA01A80090214830F8142004231B
:103770000021084607F0BEFD0FE0092094FBF0F1A0
:1037800000FB11401A4931F8107001A804233A4691
:1037900000210090012007F0ADFD012D25D1E4B1FD
:1037A000144890F8260BC0B9092C09DA01A800903A
:1037B0000F48028804230021084607F09BFD08E01B
:1037C00001A800900A48028804230021012007F084
:1037D00091FD0121074880F8261B36B90A2008F020
:1037E00079F80121204600F051FD00BFADE700004F
:1037F0003A1102082C72002070B504460D460DB136
:10380000012000E000200646012231462046FFF755
:1038100091FF0148065570BD527D0020002004E054
:103820000121034A1154411C88B21228F8DB704769
:10383000527D002010B500210846FEF78FFE0024BF
:103840000CE0002104EB4402164800F8321004EBAF
:10385000440200EBC2000173601C84B2102CF0DB48
:1038600000210720FFF754FF00210820FFF750FF39
:1038700000200D490872C8710021084600F00AFCBA
:10388000002408E001F040F8611CC8B20121FEF7F5
:103890000FFF601C84B2102CF4DB9220FFF776FE41
:1038A00010BD000088630020527D002010B5022169
:1038B0000C4880F8D61B90F8D11B80F8D71B4FF42A
:1038C00000720A21032007F0F9F801210720FFF711
:1038D0001FFF01210820FFF71BFF0120024908728A
:1038E000C87110BD2C720020527D00207CB50446AA
:1038F0000D4600200190112C02DC0CB1092C00D1E6
:103900007CBD10222946002005F009FEC0B28DF8CA
:10391000070015484078012805D19DF80700134994
:10392000085C8DF80700092C0ADA01A800901048FD
:1039300030F8142004230021084607F0DBFC0FE0D8
:10394000092094FBF0F100FB1140094931F81060A7
:1039500001A80423324600210090012007F0CAFC90
:103960000448055500BFCBE7FCA20020920E0208D8
:10397000A40E0208647D0020012009E0C1B20922E2
:1039800091FBF2F302FB1311034A1154411C88B25C
:103990001228F3DB70470000647D002010B52B482F
:1039A00090F8D00B06284ED2DFE800F00304234243
:1039B000434849E00BF01AFF01F0E2FE234890F87B
:1039C000D10B40B10221214880F8D61B90F8D11BC1
:1039D00080F8D71B08E00121084600F05BFB0022BD
:1039E0000A21032007F06AF80221184880F8D01B4A
:1039F0002AE0164890F8D60BC8B90521134880F87C
:103A0000D61B1348007870B903220121104607F035
:103A100055F80E4890F8D10B28B94FF47E420A2190
:103A2000032007F04BF80321084880F8D01B0BE077
:103A30000AE00521054880F8D01B05E00021034875
:103A400080F8D01B00E000BF00BF10BD2C7200202A
:103A50008002002070B504460D46112C00DD70BDBB
:103A6000092094FBF0F100FB1141054800EBC10671
:103A70000822294630460EF009FA00BFEFE70000A1
:103A80003062002070B5002410E0092094FBF0F1B2
:103A900000FB1140074901EBC005074901EBC400D9
:103AA000082229460EF0F2F9601C84B2122CECDBDD
:103AB00070BD0000C60E0208306200202DE9F04102
:103AC00005460F46122D01DDBDE8F0813DB91B48CA
:103AD000B0F8242B3946002005F021FD87B21848A4
:103AE00030F81500642190FBF1F084B2642097FB5C
:103AF000F0F086B21AE0B44202DD601E84B203E048
:103B0000B44201DA601C84B204EBC40000EB041080
:103B10004FF6FF7202EA8001284600F013F8B44223
:103B200004D13946284600F00DF800E0E3E700BF75
:103B3000034820F8157000BFC6E700002C72002073
:103B40002C7D00202DE9F04F87B00446894647A020
:103B5000006803904FF4FA524946002005F0DFFC5C
:103B60001FFA80F94846FCF718FD07460022404B33
:103B7000FCF71BFC054600223E4BFCF78EFC824600
:103B80008B4600223C4B50465946FCF786FC0546C6
:103B90002A460B46002039490CF0BAFECDE9040153
:103BA000092C1ADA03A80090354830F81400401C9C
:103BB00082B204230021084607F09CFB9DF80F0009
:103BC0009DF80E10CDE900109DF80D309DF80C20E9
:103BD00021462CA0FDF788F81FE0092094FBF0F1A6
:103BE00000FB1140264931F81000401C85B203A8A3
:103BF00004232A4600210090012007F07BFB9DF85A
:103C00000F009DF80E10CDE900109DF80D309DF8C5
:103C10000C20214625A0FDF767F803AADDE9040181
:103C200007F00AFA092C0ADA03A80090144830F8C1
:103C3000142001230021084607F022FA0FE0092092
:103C400094FBF0F100FB11400D4931F8105003A82E
:103C500001232A4600210090184607F011FA01209E
:103C600007F038FE07B0BDE8F08F00000000208AA2
:103C70000040BF4000005940000034400000244094
:103C8000D61002080D0A20445350312053696E6744
:103C9000413A4164643D257820446174613A3D2590
:103CA000782C25782C25782C257800000D0A2044C6
:103CB0005350322053696E67413A4164643D257820
:103CC00020446174613A3D25782C25782C25782C88
:103CD000257800004FF4FA520949A1F8002B012081
:103CE00006E04FF4FA52074921F81020411C88B22F
:103CF0001228F6DB4FF4FA520149A1F8242B704741
:103D00002C7200202C7D002010B504460CB9002038
:103D100010BD41F64C320949204601F031FC08B98A
:103D20000020F5E7611E064A02EBC10008220349A4
:103D3000091D0EF0ABF80120EAE700002C6200201C
:103D40007C7D002010B579480088401C77490880A8
:103D5000774890F8D60B07287ED2DFE800F00408F9
:103D60002D6191B6CB00002070490880DBE06F48E0
:103D70000088B0F5BC7F0BDB01F0D2FD00216C4860
:103D800080F8D61B4FF47F420A21032006F096FEEE
:103D9000674991F8D70BFFF7B7FF60B1002063497F
:103DA00008800621624880F8D61B90F8D71B80F85F
:103DB000D11B01F0ABFDB6E05C480088B0F5BC7FDC
:103DC0000DDB01F093FD0021594880F8D61B4FF41C
:103DD0007F420A21032006F071FEFEF7FFFB5449E3
:103DE00091F8D70BFFF772FBC8B10021504880F85B
:103DF000D61B90F8D71B80F8D11B01F087FDFEF78A
:103E00006BFA4C48007850B900220A21032006F0D2
:103E100055FE4FF47E420A21032006F04FFE82E059
:103E200042480088B0F57A7F11DD01F05FFD002186
:103E30003F4880F8D61B4FF47F420B21032006F049
:103E40003DFE3B4991F8D70B0121FFF7D9F83849DE
:103E500091F8D70B002100E064E0FFF7D1F870B1D2
:103E60000021334880F8D61B00220A21032006F0E7
:103E700025FE4FF47E420A21032006F01FFE52E089
:103E80002A480088B0F57A7F0BDD01F049FD00215A
:103E9000274880F8D61B4FF47F420B21032006F001
:103EA0000DFE234991F8D70BFEF730FF60B10020DB
:103EB0001E49088006211E4880F8D61B4FF47E421A
:103EC0000A21032006F0FAFD2DE018480088B0F51D
:103ED000BC7F07DB01F00AFDFEF76CFB00211448F4
:103EE00080F8D61BFFF714FB18B10021104880F8AA
:103EF000D61B18E00D480088B0F5BC7F05DB01F04B
:103F00000FFD00210A4880F8D61B00F015F840B1DB
:103F10000021074880F8D61B00220A21032006F062
:103F2000CDFD00E000BF00BF10BD0000A8020020D2
:103F30002C720020A402002010B584220449002025
:103F400001F01EFB08B9002010BD0120FCE70000B5
:103F5000787D002010B500211E4880F8D11B01F0AB
:103F6000D5FC01210846FEF7F9FA4FF4FA51194839
:103F7000A0F8001BA0F8241B00240CE0002104EB97
:103F80004402154800F8321004EB440200EBC20072
:103F90000173601C84B2102CF0DB0121084600F094
:103FA00079F8002408E000F0AFFC611CC8B20121E0
:103FB000FEF77EFB601C84B2102CF4DB00220A2189
:103FC000032006F07BFD4FF47E420A21032006F019
:103FD00075FD10BD2C72002088630020FEB50546DB
:103FE0000C46A54205D0102D03DC102C01DC05B1D8
:103FF0000CB90020FEBD681E00EB4001224800EB1A
:10400000C10207CA8DE80700601E00EB40011E4890
:1040100010F8310001099DF8000061F304108DF8DB
:104020000000611EC8B26A460021FFF71DF8691E34
:1040300001EB4103144901EBC30101F10C02611EC4
:10404000C8B20121FFF710F8002612E000F05CFC76
:104050006B1E03EB43070D4B03EBC71306EB460741
:1040600003EB8702F1B2631ED8B2FEF789FD701C24
:1040700086B2202EEADB064830F815102046FFF7FE
:104080001DFD0120B6E700008863002008650020C0
:104090002C7D00202DE9F04106460F465F4801784F
:1040A0005FA0FCF721FE00221021644802F092FD7F
:1040B000002E37D0012417E004EB440202EBC403C6
:1040C0005F4A1A44511CE0B2FFF7A8FA04EB44001F
:1040D00000EBC4015A48084443782246002159A005
:1040E000FCF702FE601C84B2092CE5DB0A2417E011
:1040F00004EB440202EBC403514A1A44511CE0B2DF
:10410000FFF78CFA04EB440000EBC4014C48084470
:104110004378224600214BA0FCF7E6FD601C84B2E8
:10412000122CE5DB9620FFF731FA002419E000F0AD
:10413000EBFB04EB44034249C83101EBC302E0B29C
:104140000021FEF791FF04EB44033D49C83101EB28
:10415000C30101F10C02E0B20121FEF785FF601CF2
:1041600084B2102CE3DB012407E0404A32F814103B
:10417000E0B2FEF751FA601C84B2122CF5DB67B195
:10418000002408E0394A243232F81410E0B2FFF774
:1041900095FC601C84B2122CF4DB002407E0334A47
:1041A0004A32115DE0B2FFF727FB601C84B2122C8B
:1041B000F5DB002407E02D4A5C32115DE0B2FFF729
:1041C00095FB601C84B2122CF5DB002416E0002560
:1041D00010E000F099FB04EB440C254B03EBCC13EF
:1041E00005EB450C03EB8C02E9B2E0B2FEF7C8FC2C
:1041F000681C85B2202DECDB601C84B2102CE6DB41
:10420000FEF76AF805480078062805D10320FCF778
:10421000F9FE18A0FCF768FDBDE8F081D20200208D
:104220000D0A2055706461746120647370206D758F
:104230007465206F6E3A202564000000001801406C
:10424000C06200200D0A204D697820646174613AD3
:10425000204368616E6E656C3D25642C6164643D2D
:1042600025782C646174613D25780000087D00206C
:10427000086500200D0A2055706461746120647324
:1042800070206D757465206F66663A002DE9F04107
:1042900006460F4647B91B4830F81600642190FBCC
:1042A000F1F084B2002509E0012F07D10024154860
:1042B00030F81600642190FBF1F085B21EE0AC42AC
:1042C00002DD601E84B203E0AC4201DA601C84B2FD
:1042D00004EBC40000EB04104FF6FF7202EA800109
:1042E0003046FFF72FFCAC4208D1012F05D105481D
:1042F00030F816103046FFF725FC00E0DFE700BF7E
:10430000BDE8F0812C7D00202DE9FF4F93B082465F
:104310008B461698FCF741F90022844BCDE9020147
:10432000FCF743F80022824BCDE90401FCF7B5F815
:10433000CDE910012098FCF730F900227C4BCDE943
:104340000401FCF7AAF8CDE90E015846FCF725F95F
:104350000022784BCDE90201FCF727F80022744BCC
:10436000CDE90401FCF799F8CDE90C011598FCF7AB
:1043700014F9CDE90A0100226F4BDDE90C01FCF7CD
:104380008CF802460B46CDE9040100206B490CF085
:10439000BFFA06460F466A480CC800204FF080411D
:1043A000FCF709F8CDE90201DDE90A23FCF703F87F
:1043B000CDE9040163480CC80498FCF76EF8CDE918
:1043C000080100204FF08041DDE90E23FBF7F3FFE9
:1043D000CDE90401DDE908010DF072FDCDE902012E
:1043E000DDE90423FCF759F8804689460022564B44
:1043F000DDE91001FCF751F802460B46CDE9040156
:1044000000204E490CF084FACDE9060132463B46C5
:1044100040464946FCF741F800224C4BCDE90401E7
:10442000FBF722FF04460D4632463B4640464946CE
:10443000FBF7C1FF0022454BCDE90001FBF7B8FFB8
:10444000CDE90201DDE90623FBF7B5FF22462B4645
:10445000CDE90401FCF721F8CAE900010AF1080AD4
:10446000DDE908010BF074F900224FF08043CDE93B
:104470000001FBF7A0FF81F00041CDE90201DDE979
:104480000623FBF798FF22462B46CDE90401FCF7F3
:1044900004F8CAE900010AF1080A32463B464046E0
:1044A0004946FBF788FF0022284BCDE90001FBF7C6
:1044B000DBFECDE90201DDE90623FBF77CFF2246A6
:1044C0002B46CDE90401FBF7E8FFCAE900010AF138
:1044D000080A32463B4640464946FBF7DEFF0022CB
:1044E0001A4BCDE90201FBF760FF22462B46CDE9CE
:1044F0000401FBF7D2FFCAE900010AF1080ADDE96D
:1045000008010BF025F900224FF08043CDE90201AC
:10451000FBF751FF22462B46CDE90401FBF7BDFF17
:10452000CAE9000117B0BDE8F08F000000709740A5
:104530000000594000C0A240000044400000244058
:10454000780E0208700E0208000034400000F03FB0
:1045500010B513480068401C1149086011480068F4
:1045600000F02000B8B1002409E00A2094FBF0F12B
:1045700000FB114030300C490855601CC4B20A2CB5
:10458000F3DB40220849094808F0BAF80A22064934
:10459000074804F000FD202002F066F910BD00007D
:1045A000200000201404014054070020D4070020FC
:1045B0005406002010B50120FDF7E4FE032202217D
:1045C000002006F07BFA10BD10B50220FCF71AFDA2
:1045D00018A0FCF789FB04201D490870002006F094
:1045E0008FFF0020FCF7E2F900224FF480511948B8
:1045F00002F0F0FA00224FF48071174802F0EAFA54
:1046000000224FF40061134802F0E4FA00224FF454
:104610000051104802F0DEFA1048406820F4803063
:104620000E49486008464068C0F3C0400C49087015
:1046300010BD00000D0A20456E746572205077721F
:104640004F6666206D757465206F6E3A000000003D
:104650001C6000200014014000080140FCA2002062
:104660000703002070472DE9F04106460C46154629
:104670001F463146002006F0DBFEC4F30741002050
:1046800006F0D6FEC4F30721002006F0D1FEE1B209
:10469000002006F0CDFE05E0FF21002006F0C8FE58
:1046A00005F8010B381EA7F101018FB2F4D1BDE866
:1046B000F0812DE9F04105460C4616461F46294675
:1046C000002006F0B5FEC4F30741002006F0B0FE5E
:1046D000C4F30721002006F0ABFEE1B2002006F093
:1046E000A7FE03E03146002006F0A2FE381EA7F127
:1046F00001018FB2F6D1BDE8F08170B505460C46D8
:104700002946002006F094FEC4F30741002006F07D
:104710008FFEC4F30721002006F08AFEE1B20020DC
:1047200006F086FE70BD2DE9F04106460C461546A2
:104730001F463146002006F07BFEC4F307410020EF
:1047400006F076FEC4F30721002006F071FEE1B208
:10475000002006F06DFE04E015F8011B002006F0B5
:1047600067FE381EA7F101018FB2F5D1BDE8F081D7
:1047700010B504462146002006F05AFE10BD7047D1
:1047800002780B785A4002700A7803785A400A700F
:1047900002780B785A400270704700000021074AE7
:1047A000D1610749096941F00201054A11611146C9
:1047B0004861096941F0400111617047600F0020B4
:1047C0000020024070B505460C46224600232946CB
:1047D000022001F0EFFF70BD2DE9F04105460C46C7
:1047E00017462646324600232946032001F0E2FF01
:1047F000BDE8F0810022054BDA61054A126942F0FA
:104800000102034B1A61018070470000600F002015
:104810000020024000201E49C96801F0100139B192
:104820001C49C96941F002011A4AD16140F01000E7
:104830001749C96801F0040139B11649C96941F045
:104840000101144AD16140F004001149C96901F025
:10485000010169B10F49C96941F004010D4AD161F3
:1048600000BF0B49C96921F00101094AD16100BFAC
:1048700000BF40F20111884206D10549C96921F003
:104880000101034AD16101E00149C86000BF7047DE
:1048900000200240600F002070B5044602F0A0F92D
:1048A000054609E0601C38B124B102F099F9401BBB
:1048B000A04201D9032070BD1248C06800F0010079
:1048C0000028EFD10F48C06800F0200020B100BFE1
:1048D00020200C49C86000BF0A48C06800F01000E2
:1048E00048B90848C06900F0010020B90548C0680F
:1048F00000F0040018B1FFF78DFF0120DBE7002076
:10490000D9E7000000200240704700002DE9FF4F6A
:104910008BB082468B460D98FBF73FFECDE9020136
:1049200072480CC800204FF08041FBF744FDCDE9F0
:104930000001DDE90223FBF73EFDCDE904016C48EF
:104940000CC80498FBF7A9FDCDE90801DDE90801D1
:104950000DF0B6FA80468946DDE908010AF0F8FE56
:10496000CDE9060140464946DDE90623FBF77CFC1C
:104970000022604BCDE90401FBF776FC06460F46AA
:1049800014210E9890FBF1F00390FBF7F5FD024621
:104990000B46CDE90401002057490BF0B9FF04464E
:1049A0000D46BBF1000F56D10021CAF80010CAF81D
:1049B00004100AF1080A00204E49DDE90623FBF73E
:1049C00053FCCDE9020185F00040CDE900400B46E3
:1049D0002046DDE90112FBF7EEFC32463B46CDE90D
:1049E0000401FBF75AFDCAE900010AF1080A002098
:1049F0004049DDE90623FBF737FC22462B46CDE98B
:104A00000201FBF7D8FC32463B46CDE90401FBF737
:104A100044FDCAE900010AF1080A0021CAF80010A1
:104A2000CAF804100AF1080A40464946DDE906239F
:104A3000FBF7BBFC00222F4BCDE90201FBF7B5FCD5
:104A400081F0004132463B46CDE90401FBF725FDEC
:104A5000CAE9000146E0BBF1010F43D10021CAF8C9
:104A60000010CAF804100AF1080A42464B462046D4
:104A70002946FBF7A0FC32463B46CDE90401FBF793
:104A80000CFDCAE900010AF1080A42464B462046DD
:104A90002946FBF790FC32463B46CDE90401FBF783
:104AA000FCFCCAE900010AF1080A0021CAF800105A
:104AB000CAF804100AF1080A40464946DDE906230F
:104AC000FBF773FC00220B4BCDE90201FBF76DFCF9
:104AD00081F0004132463B46CDE90401FBF7DDFCA5
:104AE000CAE900010FB0BDE8F08F0000780E02089F
:104AF000700E02080000F03F000024402DE9FF4F37
:104B00008DB082468B460F98FBF747FDCDE9020139
:104B1000A3480CC800204FF08041FBF74CFCCDE9C6
:104B20000001DDE90223FBF746FCCDE904019D48C5
:104B30000CC80498FBF7B1FCCDE90801DDE90801D8
:104B40000DF0BEF9CDE90601DDE908010AF000FE2D
:104B500006460F46002094490DF002FA02460B4625
:104B6000CDE9000100209149FBF797FC00224FF0AE
:104B70008043CDE90201FBF71EFC02460B46CDE95E
:104B80000401DDE90601FBF788FCCDE90A010020FC
:104B90008649DDE90A23FBF767FB04460D4614212D
:104BA000109890FBF1F00390FBF7E6FC02460B46F1
:104BB000CDE9040100207E490BF0AAFE804689461B
:104BC000BBF1000F74D132463B4600207749FBF71A
:104BD0004BFB22462B46CDE90001FBF75EFC42462B
:104BE0004B46CDE90201FBF7E6FB00224FF0804384
:104BF000CDE90401FBF751FCCAE900010AF1080AFA
:104C000032463B4600206949FBF72EFB81F000410C
:104C100022462B46CDE90201FBF73FFC42464B46BC
:104C2000CDE90401FBF7C7FBCAE900010AF1080A54
:104C300032463B4600205D49FBF716FB22462B46D9
:104C4000CDE90001FBF729FC42464B46CDE90201C4
:104C5000FBF7B1FB00224FF08043CDE90401FBF7E5
:104C60001CFCCAE900010AF1080A00204F49DDE9ED
:104C70000A23FBF79AFB81F0004122462B46CDE93F
:104C80000401FBF70AFCCAE900010AF1080A3246EE
:104C90003B4600204FF08041FBF78DFB22462B4620
:104CA000CDE90401FBF7F9FBCAE9000174E0FFE775
:104CB000BBF1010F70D132463B4600203B49FBF768
:104CC00074FB22462B46CDE90001FBF7E6FB42468A
:104CD0004B46CDE90201FBF76EFB00224FF080430B
:104CE000CDE90401FBF7D9FBCAE900010AF1080A82
:104CF00032463B4600202D49FBF757FB22462B4608
:104D0000CDE90201FBF7C9FB42464B46CDE9040160
:104D1000FBF751FBCAE900010AF1080A32463B469B
:104D200000202249FBF741FB22462B46CDE900013A
:104D3000FBF7B3FB42464B46CDE90201FBF73BFBD9
:104D400000224FF08043CDE90401FBF7A6FBCAE93E
:104D500000010AF1080A00201449DDE90A23FBF7E3
:104D600024FB81F0004122462B46CDE90401FBF7EC
:104D700094FBCAE900010AF1080A32463B460020CA
:104D80004FF08041FBF717FB22462B46CDE904018B
:104D9000FBF783FBCAE9000111B0BDE8F08F00000A
:104DA000780E0208700E0208000008400000F03F74
:104DB000000024402DE9FF4F8FB082468B461198AA
:104DC000FBF7EBFBCDE90601A3480CC800204FF030
:104DD0008041FBF7F0FACDE90201DDE90623FBF79C
:104DE000EAFACDE904019D480CC80498FBF755FB8D
:104DF000CDE90A01DDE90A010DF062F8CDE908010B
:104E0000DDE90A010AF0A4FC06460F4600204FF037
:104E100080410DF0A5F802460B46CDE900010020C7
:104E20008F49FBF73AFB00224FF08043CDE90201A6
:104E3000FBF7C1FA02460B46CDE90401DDE90801A2
:104E4000FBF72BFBCDE90C0100208549DDE90C23A4
:104E5000FBF70AFA04460D461421129890FBF1F074
:104E60000390FBF789FB02460B46CDE904010020C5
:104E70007C490BF04DFD80468946BBF1000F74D193
:104E800032463B4600207649FBF7EEF922462B4698
:104E9000CDE90001FBF701FB42464B46CDE902019B
:104EA000FBF789FA00224FF08043CDE90401FBF7BC
:104EB000F4FACAE900010AF1080A32463B4600202A
:104EC0006749FBF7D1F981F0004122462B46CDE935
:104ED0000201FBF7E2FA42464B46CDE90401FBF73B
:104EE0006AFACAE900010AF1080A32463B46002084
:104EF0005B49FBF7B9F922462B46CDE90001FBF7E8
:104F0000CCFA42464B46CDE90201FBF754FA0022A7
:104F10004FF08043CDE90401FBF7BFFACAE9000175
:104F20000AF1080A00204E49DDE90C23FBF73DFA9F
:104F300081F0004122462B46CDE90401FBF7ADFA92
:104F4000CAE900010AF1080A32463B4600204FF048
:104F50008041FBF730FA22462B46CDE90401FBF7EE
:104F60009CFACAE9000174E0FFE7BBF1010F70D1C0
:104F700032463B4600203A49FBF717FA22462B46B9
:104F8000CDE90001FBF789FA42464B46CDE9020123
:104F9000FBF711FA00224FF08043CDE90401FBF743
:104FA0007CFACAE900010AF1080A32463B460020B1
:104FB0002B49FBF7FAF922462B46CDE90201FBF714
:104FC0006CFA42464B46CDE90401FBF7F4F9CAE915
:104FD00000010AF1080A32463B4600202049FBF74F
:104FE000E4F922462B46CDE90001FBF756FA42468A
:104FF0004B46CDE90201FBF7DEF900224FF080437A
:10500000CDE90401FBF749FACAE900010AF1080AEF
:1050100000201349DDE90C23FBF7C7F981F00041BB
:1050200022462B46CDE90401FBF737FACAE9000115
:105030000AF1080A32463B4600204FF08041FBF758
:10504000BAF922462B46CDE90401FBF726FACAE954
:10505000000113B0BDE8F08F780E0208700E020850
:105060000000F03F0000244000220260426008304F
:105070000260426008300649C0E900210830002182
:1050800001604160083002604260083070470000F3
:105090000000F03F2DE9FF4F91B082468B461398F8
:1050A000FBF77BFACDE90401B5480CC800204FF0AE
:1050B0008041FBF780F9CDE90201DDE90423FBF72C
:1050C0007AF9CDE90601AF480CC80698FBF7E5F977
:1050D000CDE90C01DDE90C010CF0F2FECDE90A018D
:1050E000DDE90C010AF034FB06460F461F98FBF77A
:1050F00054FA0022A44BCDE90201FBF7B5F8CDE943
:1051000006011E98FBF749FA02460B46CDE902015B
:105110009B4903C9FBF7C1F9CDE90401DDE9062389
:10512000FBF749F9CDE90801DDE908010CF0C8FEFB
:1051300000224FF08043CDE90001FBF73CF9024625
:105140000B46CDE9020100209049FBF7A6F90022A9
:105150004FF08043CDE90401FBF72DF902460B46E1
:10516000CDE90601DDE90A01FBF797F9CDE90E016A
:1051700000208649DDE90E23FBF776F804460D464C
:105180001421149890FBF1F00590FBF7F5F9024615
:105190000B46CDE9060100207D490BF0B9FB8046A6
:1051A0008946BBF1000F74D132463B460020774957
:1051B000FBF75AF822462B46CDE90201FBF76DF9C1
:1051C00042464B46CDE90401FBF7F5F800224FF0CB
:1051D0008043CDE90601FBF760F9CAE900010AF155
:1051E000080A32463B4600206849FBF73DF881F04B
:1051F000004122462B46CDE90401FBF74EF9424619
:105200004B46CDE90601FBF7D6F8CAE900010AF1E1
:10521000080A32463B4600205C49FBF725F8224647
:105220002B46CDE90201FBF738F942464B46CDE962
:105230000401FBF7C0F800224FF08043CDE90601DE
:10524000FBF72BF9CAE900010AF1080A00204F49CF
:10525000DDE90E23FBF7A9F881F0004122462B4639
:10526000CDE90601FBF719F9CAE900010AF1080ABC
:1052700032463B4600204FF08041FBF79CF8224627
:105280002B46CDE90601FBF708F9CAE9000174E0F5
:10529000FFE7BBF1010F70D132463B4600203B498E
:1052A000FBF783F822462B46CDE90201FBF7F5F820
:1052B00042464B46CDE90401FBF77DF800224FF052
:1052C0008043CDE90601FBF7E8F8CAE900010AF1DD
:1052D000080A32463B4600202C49FBF766F8224676
:1052E0002B46CDE90401FBF7D8F842464B46CDE901
:1052F0000601FBF760F8CAE900010AF1080A324624
:105300003B4600202149FBF750F822462B46CDE9C9
:105310000201FBF7C2F842464B46CDE90401FBF718
:105320004AF800224FF08043CDE90601FBF7B5F8BB
:10533000CAE900010AF1080A00201449DDE90E2338
:10534000FBF733F881F0004122462B46CDE90601F8
:10535000FBF7A3F8CAE900010AF1080A32463B4606
:1053600000204FF08041FBF726F822462B46CDE97E
:105370000601FBF792F8CAE9000115B0BDE8F08F0D
:10538000780E0208700E02080000E03F0000F03FB7
:10539000000024402DE9F04706460F4614463D46DE
:1053A0006149487800EBD0714910090201EB063AD7
:1053B0005D484078FF2806D05B49487800EBD07103
:1053C000491005EB0125584B5A7802EBD2735B105C
:1053D0005B1C04F1FF014FEAE17C01EB1C6C4FEA1E
:1053E0002C2C634502DA4FF4807306E02046C31785
:1053F00000EB13631B12A0EB03231FFA83F94A4847
:105400004078102832D00BDC102872D2DFE800F090
:10541000263E273F284029412A422B432C442D4534
:1054200019283FD009DCA0F11100082877D2DFE865
:1054300000F0351E361F372038211D2834D006DCF9
:105440001A2818D01B282ED01C2868D114E01E283A
:1054500013D01F2829D0FF2861D145E000BF00BF2D
:1054600000BF00BF00BF00BF00BF00BF00BF00BF44
:1054700000BF00BF00BF00BF00BF0620FFF778F9E4
:1054800029484078401C2849487049E000BF00BFC7
:1054900000BF00BF00BF00BF00BF00BF00BF00BF14
:1054A00000BF00BF00BF00BF00BF4B462A465146A9
:1054B0000320FFF7D8F804F1FF001B4A517801EBF5
:1054C000D172012303EB6202C31700EB1363B2EB4B
:1054D000232F03D1FF201449487004E0124840787C
:1054E000401C114948701BE03A4600212D1D88469A
:1054F00007E014E0287801446D1C08F101001FFA50
:1055000080F8201F4045F5DC0020074B58701068DC
:10551000884202D10120BDE8F0870020FBE700BFF0
:1055200000BF0020F7E70000B102002070B504467C
:1055300026030620FFF71CF9082006F0CBF93146B8
:105540002020FFF7DAF8C82006F0C4F9002513E0A0
:105550000620FFF70DF9082006F0BCF94FF4807320
:10556000FF2231460220FFF7A4F8082006F0B2F926
:1055700006F58076681CC5B2102DE9DB70BD000011
:105580002DE9F05F06460F4614463D467648007802
:1055900020B175480078401E734908707248007841
:1055A00010B10020BDE8F09F7049887800EBD07101
:1055B000491059B36D49887800EBD0714910491EE4
:1055C000090201EB06396949887800EBD07149106E
:1055D000491E05EB0125654B9A7802EBD2734FEA21
:1055E000630C04F1FF01CB1701EB13631B129C4505
:1055F00002DA4FF4807306E02046C31700EB136312
:105600001B12A0EB03231FFA83FA01E04FEA0639CD
:1056100056488078112873D00CDC11287DD2DFE841
:1056200000F0294550685169526A536B546C556DAE
:10563000566E57001A2850D009DCA0F11200082835
:10564000ECD2DFE800F0465E475F486049611F2802
:105650005DD008DC1B2858D01C283FD01D2855D011
:105660001E287CD13BE020283AD0212850D0FF28AA
:1056700075D16FE0BB460020CBF800002D1D8046A1
:105680000AE02978DBF800000844CBF800006D1C24
:1056900008F101001FFA80F8201F4045F1DC0620C8
:1056A000FFF766F801203149887059E0494620200B
:1056B000FFF723F819202C49087002202B49887025
:1056C0004EE000BF00BF00BF00BF00BF00BF00BF73
:1056D00000BF00BF00BF00BF00BF00BF00BF00BFD2
:1056E0000620FFF745F821488078401C1F49887044
:1056F00036E000BF00BF00BF00BF00BF00BF00BF5B
:1057000000BF00BF00BF00BF00BF00BF00BF00BFA1
:1057100053462A464946022000E020E0FFF703F8FE
:1057200004F1FF00114A917801EBD1725210C317B6
:1057300000EB1363B2EB232F03D1FF200B498870DA
:1057400004E00A488078401C084988700620064911
:10575000087005E0002005498870012022E700BF9D
:1057600000BF00201EE70000B5020020B1020020AB
:1057700010B504462046FFF711F8012010BD0000C7
:1057800008B56946032000F06BF80098102801D88E
:10579000009800E00020C1B2014880F8D11B08BD8C
:1057A0002C7200202DE9F04107460D46144607F003
:1057B000030010B10020BDE8F08115E028460CF090
:1057C000F5FB80462D1D28460CF0F0FB06462D1DEE
:1057D000324641463846FEF7FFFF08B10020EAE7AF
:1057E0000837A4F1080084B2E11704EB5171C91025
:1057F0000029E3D10EE028460CF0D8FB80462D1D91
:1058000041463846FEF7DEFF08B10020D3E73F1DD2
:10581000201F84B2E11704EB917189100029EAD1AD
:10582000DCB1884600260FE044B115F8010BF10009
:10583000884040EA0808601E84B204E0F100FF20BE
:10584000884040EA0808761C042EEDD341463846CD
:10585000FEF7B8FF08B10020ADE70120ABE700007C
:1058600030B503460C460448A0EB432521462846A4
:1058700000F042F830BD00000000040830B50346D7
:105880000748A0EB432403E0207801F8010B641CD7
:10589000101EA2F10105AAB2F6D1012030BD000010
:1058A0000000040870B504460D460548A0EB4426E8
:1058B0003046FFF75DFF2946304600F037F870BDEF
:1058C000000004082DE9F04104460D46164606483E
:1058D000A0EB44273846FFF74BFF324629463846AF
:1058E000FFF760FFBDE8F0810000040800200149D7
:1058F00048707047B1020020024602F0030008B170
:1059000000207047106808600120FAE710B50348CE
:1059100090F8D11B0320FFF7C5FF10BD2C720020AB
:105920000020014988707047B102002070B505461B
:105930000C46224600232946022000F03BFF08B90E
:10594000012070BD0020FCE710B5FCF743FDFBF71C
:1059500099FDFCF740FD05F0DDFE05F0AEF8FBF724
:10596000F5F804F06BFB03F0D9FDFBF73BF8FEF70D
:1059700079FE10BD10B50246002002E012F8013B8E
:1059800058400B1EA1F10104E1B2F7D110BD02464F
:105990008A4201D9104670470846FCE770B50446B4
:1059A0000D46044901EB04100122294605F087F950
:1059B00070BD0000BC03002002468A4201D908469F
:1059C00070471046FCE7000070B50A480468001DE7
:1059D0000568001D0668344454B108220649204673
:1059E00003F060FD042204491031284603F05AFDFB
:1059F00070BD0000E8F7FF1F9A00002038B504468C
:105A000069460120FFF72CFF0098A04201D1012038
:105A100038BD0020FCE70000F8B504460026002051
:105A2000009000BF94F82400012801D10220F8BDA5
:105A3000012084F8240000BF2046FAF7DDFF064667
:105A4000002E62D1A06A20F4885040F00200A062CB
:105A5000022001F02DFD30490968B1FBF0F0400053
:105A6000009002E00098401E009000980028F9D1B4
:105A70002046FBF729F82068806840F0080021687C
:105A8000886001F0ADF8054611E001F0A9F8401B6F
:105A90000A280CD9A06A20F0020040F01000A06291
:105AA00000BF002084F8240000BF0120BFE7206869
:105AB000806800F008000028E7D12068806840F086
:105AC00004002168886001F08BF8054611E001F0C0
:105AD00087F8401B0A280CD9A06A20F0020040F089
