:020000040800F2
:10000000487E0020DD010008C7770008C76B0008A4
:10001000C577000831190008199F0008000000008A
:100020000000000000000000000000004501000882
:10003000391B00080000000089010008D98200086F
:10004000F7010008F7010008F7010008F7010008B0
:10005000F7010008F7010008F7010008F7010008A0
:10006000F7010008F7010008F7010008851A0008E9
:10007000F7010008F7010008F7010008F701000880
:10008000F7010008F7010008050A0008559D00085F
:10009000619D0008F7010008F70100089D33000882
:1000A000F701000815870008F7010008F7010008AC
:1000B000F7010008F7010008F7010008F701000840
:1000C000F7010008F7010008F70100082D8000087B
:1000D000F7010008F70100080D8B0008F701000880
:1000E000F7010008F7010008F7010008F701000810
:1000F000F7010008F7010008F7010008F701000800
:10010000F7010008F701000875870008F7010008EB
:10011000F7010008F7010008F7010008F7010008DF
:10012000F7010008F7010008F7010008F7010008CF
:10013000DFF80CD000F0E2FB004800473DB40008B7
:10014000487E0020224B19680868B0E8F00F80F361
:100150000988BFF36F8F4FF0000080F311884EF0D5
:100160000D0E70470000000006480068006880F32C
:10017000088862B661B6BFF34F8FBFF36F8F00DFA1
:1001800000BF00BF08ED00E0EFF30980BFF36F8F01
:100190000F4B1A6820E9F00F106008B54FF05000BF
:1001A00080F31188BFF34F8FBFF36F8F0CF0A0FF68
:1001B0004FF0000080F31188BDE808401968086816
:1001C000B0E8F00F80F30988BFF36F8F704700BF6E
:1001D000C4000020EFF30580704700000648804708
:1001E00006480047FEE7FEE7FEE7FEE7FEE7FEE71C
:1001F000FEE7FEE7FEE7FEE7218400083101000884
:10020000202A04DB203A21FA02F00021704721FA6B
:1002100002F3D040C2F120029140084319467047D2
:1002200040EA01039B0703D009E008C9121F08C078
:10023000042AFAD203E011F8013B00F8013B521EF8
:10024000F9D27047D2B201E000F8012B491EFBD26F
:1002500070470022F6E710B513460A4604461946D1
:10026000FFF7F0FF204610BD421C10F8011B0029CB
:10027000FBD1801A7047034611F8012B00F8012BBF
:10028000002AF9D1184670472DE9FE4F804681EAD1
:100290000300C00F0C46009021F0004123F0004500
:1002A000B8EB0200A94105D24046214690461C46C3
:1002B0000B46024623F00040104347D0270DC7F3FA
:1002C0000A00C3F30A510290401A019040286BDAE9
:1002D000C3F3130040F4801B0098924620B1002322
:1002E000D2EB030A63EB0B0B01985946C0F14002B5
:1002F000504600F01CFA06460D4650465946019AF3
:1003000000F024FA10EB08006141002487EA115242
:1003100084EAE7731A4340D0009A62B3019A012A33
:100320004FEA075215DC001B61EB02014FF000425F
:1003300002EA0752CDE90042001C41F58011324625
:100340002B4600F024FA03B0BDE8F08F404621466A
:10035000F9E7001B61EB0201001C41F58013001856
:100360005B412018A2F5001747EB030140EAD57066
:10037000B6196D4111E06D084FEA360645EAC075C1
:100380004FEA0752001B61EB0201001C41F580118E
:1003900049084FEA30000019514132462B4603B05C
:1003A000BDE8F04F00F0E4B90098012240000023BE
:1003B000D0EB020263EBE073009821464FEAE07451
:1003C000B8EB000061EB0401E9E783F000435BE771
:1003D00081F0004158E72DE9FE4F81EA030404F063
:1003E000004421F0004100944FF0000B23F0004343
:1003F00050EA01045ED052EA03045BD0C3F30A540E
:10040000C1F30A552C44A4F2F3340194A0FB025426
:10041000C1F3130141F48011C3F3130343F48013B8
:1004200001FB024400FB034E840A970A44EA81540C
:1004300047EA8357A4FB076802958D0A05FB0785E9
:100440004FEA932C04FB0C542705029D4FEA0658F3
:1004500047EA1637B5EB08056EEB070C870E920ED0
:1004600047EA811742EA8312A7FB0201B6EB0B01B0
:1004700064EB00042B0D43EA0C335E1844EB1C5074
:10048000DA465146E7FB0201C5F313044FEA0B338A
:1004900043EA14534FEA0432019C43EA0603A4F1F1
:1004A0000C040294009CCDE900B400F070F903B094
:1004B000BDE8F08F00200146F9E72DE9F04D81EA13
:1004C000030404F0004B21F0004514464FF0000AED
:1004D00023F0004150EA050220D054EA01021DD069
:1004E000C5F30A570246C5F31303C1F31300C1F362
:1004F0000A5640F4801543F48013A7EB0608101B3E
:10050000D64608F2FD3873EB050002D308F1010866
:1005100001E092185B41B8F1000F03DA00200146B8
:10052000BDE8F08D00204FF48011064684460EE0B1
:10053000171B73EB050705D3121B63EB050306437B
:100540004CEA010C49084FEA300092185B4150EA2E
:100550000107EDD152EA030012D082EA040083EAD7
:100560000501084305D0101BAB4106D20122002330
:1005700006E000224FF0004302E06FF0010253104A
:100580001AEB06004CEB085110EB0A0041EB0B0193
:10059000BDE8F04D00F0ECB870B521F00043034326
:1005A0000CD0C1F30A550024D5EB040564EB040319
:1005B000D617AD1AB34102DB0020014670BD2018EA
:1005C00041EB025170BD0EB5C10F80EAE0700844E6
:1005D000CA07002140F233438DE80E000A460B465D
:1005E00000F0D5F803B000BD0EB540F233410291E2
:1005F0000021CDE900110A460B4600F0C8F803B00F
:1006000000BD70B5C1F30A5201F000450024C1F3EA
:10061000130140F2FF3341F480119A4201DA0020C5
:1006200070BD40F233439A42A2F2334203DC52429D
:10063000FFF7E6FD00E090402C43F1D0404270BD52
:1006400030B5041E71F1000404DB4FF00044404259
:1006500064EB0101141E73F1000405DB1C464FF02E
:100660000043524263EB04038B4208BF824230BD19
:1006700030B5041E71F1000404DB4FF00044404229
:1006800064EB0101141E73F1000405DB1C464FF0FE
:100690000043524263EB0403994208BF904230BDCD
:1006A00030B50B46014600202022012409E021FA42
:1006B00002F59D4205D303FA02F5491B04FA02F53F
:1006C0002844151EA2F10102F1DC30BD2DE9F05FD6
:1006D0000546002092469B468846064681464024B1
:1006E0001BE02846414647462246FFF789FD534610
:1006F0005A46C01A914110D311461846224600F0BE
:1007000016F82D1A67EB01084F46224601200021FA
:1007100000F00DF817EB00094E41201EA4F1010472
:10072000DFDC484631462A464346BDE8F09F202A92
:1007300004DB203A00FA02F1002070479140C2F138
:10074000200320FA03F3194390407047202A06DB68
:10075000CB17203A41FA02F043EAE07306E041FA8F
:1007600002F3D040C2F1200291400843194670477D
:1007700010B5141E73F1000408DA401C41F10001A9
:1007800092185B411A4301D120F0010010BD2DE900
:10079000F04D92469B4611B1B1FA81F202E0B0FAF7
:1007A00080F220329046FFF7C2FF04460F4640EA2F
:1007B0000A0041EA0B0153465A46084313D011463A
:1007C00053EA010019D0C8F140025046FFF718FD66
:1007D00005460E46504659464246FFF7A8FF0843D5
:1007E00005D0012004E020463946BDE8F08D002008
:1007F000054346EAE0762C4337430A986305E40A4A
:10080000A0EB08000022FD0A44EA47540A3002D552
:1008100000200146E9E7010510196941DDE90845B5
:1008200000196941BDE8F04DA2E72DE9F04D002324
:100830001A461B1A8A4103DB00200146BDE8F08DF1
:10084000C1F30A52C1F3130141F480154FF0000BBC
:10085000D10702D100186D41521E0027044640F214
:10086000FF11384601EB620A3E46804602460020F0
:100870004FF48011FFF7C4FCC2197141BB1846EB5D
:100880000100B4EB030C75EB000C04D3E41A65EB28
:10089000000517460E46241908F101006D418046F7
:1008A0003428E3DDF91946EB0600091BA84103D201
:1008B0004FF0FF32134601E0002213461BEB070006
:1008C00046EB0A51BDE8F04DFFF752BFC1F30A52A3
:1008D000C1F3130140F2FF3341F480119A4202DA6E
:1008E00000200146704740F233439A42A2F233425D
:1008F00002DC5242FFF784BCFFF719BF064C074DDC
:1009000006E0E06840F0010394E8070098471034DF
:10091000AC42F6D3FFF710FC70B6010890B60108A0
:1009200070B58C1810F8015B15F0070301D110F8B1
:10093000013B2A1106D110F8012B03E010F8016BDE
:1009400001F8016B5B1EF9D12B0705D40023521E61
:100950000DD401F8013BFAE710F8013BCB1A921CC9
:1009600003E013F8015B01F8015B521EF9D5A142C7
:10097000D8D3002070BD000070B50121114804F0EB
:10098000EBF9012816D000220F481049002402700C
:100990004B68C3F3C005AA4212D045786D1CEDB276
:1009A0004570192D0BD3447032B143F4801040F0E0
:1009B000080003E00122E7E723F00800486070BD6B
:1009C000447070BD0010014064020020FC780020DB
:1009D000704700001FB50020019002900390012095
:1009E00000906946044804F0BBF802220021034845
:1009F0000BF0C4FF1FBD0000001001406402002086
:100A000070470000014803F050BC00009C03002028
:100A100070B5044600688168C943C9071CD1816864
:100A200021F00101816004F0A1F905460FE000BF4B
:100A300004F09CF9401B022809D9A06A40F010007C
:100A4000A062E06A40F00100E062012070BD206811
:100A50008068C043C007EBD0002070BD10B50146D0
:100A6000406A826A12F0500F05D0006A026BBDE83E
:100A7000104008461047816A41F4007181620168A4
:100A80008968C1F3424107290CD1017B51B9816AC0
:100A900021F480718162816AC90403D4816A41F0C2
:100AA0000101816203F0FEFB10BD10B5406A816A4E
:100AB00041F040018162C16A41F00401C16203F06A
:100AC000F3FB10BD10B5406A03F0EDFB10BD000054
:100AD000F8B500260446009600688168C943C90736
:100AE00028D0816841F001018160134813490068F2
:100AF000B0FBF1F000E0401E00900028FBD104F0B4
:100B000035F9054611E000BF04F030F9401B02281A
:100B10000BD9A06A40F01000A062E06A40F001002A
:100B2000E06284F824600120F8BD20688068C0433A
:100B3000C007E9D10020F8BDC000002040420F00EE
:100B400070B50221104804F007F9A0B100220F4847
:100B50000F49002402704B68C3F38045AA4210D0AD
:100B600045786D1CEDB24570192D09D3447022B142
:100B700043F4802003E00122E9E723F48020486069
:100B800070BD447070BD0000000C01406602002082
:100B9000FC78002004490A78032A03D1C968002997
:100BA00000D00847704700001C600020002040680B
:100BB0008047FEE72DE9FC410546092276A10BF0AE
:100BC000C3FE0127774C012800D12770042276A1AB
:100BD00028460BF0B9FE002601281AD1A6701E2265
:100BE000691D73480BF0C0FE052272A170480BF01E
:100BF000ABFE012800D1A770207828B94FF403720A
:100C00000A21032006F042FF13226CA1022009F002
:100C10002AF906226EA128460BF096FE4FF486783C
:100C2000012813D006226CA128460BF08DFE092264
:100C30006BA128460BF088FE012817D009226BA172
:100C400028460BF081FE012815D018E058480C22E8
:100C500005F109010D380BF087FE20780028E6D158
:100C600042460A21032006F011FFE0E7687A3028A7
:100C700005D1277103E0687A302800D1267104225B
:100C80005DA128460BF060FE01280CD148480C22DB
:100C9000E91D0D380BF068FE207820B942460A2184
:100CA000032006F0F3FE082255A128460BF04CFE67
:100CB000014605F108008046012907D0082253A10A
:100CC00028460BF041FE01280FD017E00146012213
:100CD00068460BF049FE9DF80000302801D1E6700F
:100CE0006770012007F02DFB08E06670012007F017
:100CF00028FB0E2248A1022009F0B5F808224AA1DB
:100D000028460BF021FE012807D0082249A12846D9
:100D10000BF01AFE01280FD017E00122414601A86E
:100D20000BF022FE9DF80400302801D16670E770B8
:100D3000012007F006FB08E0E670012007F001FB48
:100D40000E2235A1022009F08EF808223CA1284687
:100D50000BF0FAFD012801D107F0F3FA05223BA1BF
:100D600028460BF0F1FD012801D107F0EAFA08222C
:100D700038A128460BF0E8FD01280AD126700E2282
:100D800025A1022009F06FF813220CA1022009F01E
:100D90006AF8BDE8FC81000044415441494E495481
:100DA000200000001A020020475645522000000093
:100DB00039600020505930373200000041542B4236
:100DC00020534C444E204453505F384348310D006B
:100DD0004846434F4E4E2000484644495343200066
:100DE00041324450434F4E4E2000000041324450A7
:100DF0004449534320000000474C42442000000077
:100E0000535050434F4E4E2000000000535050446A
:100E1000495343200000000041542B4220424C45DE
:100E200041445620310D0000424C45434F4E4E2068
:100E300000000000424C454449534320000000009C
:100E4000535050444154412000000000474F54414A
:100E500020000000534E4B494E4954200000000032
:100E600000280BD0012809D0022805D0032805D17D
:100E70005FF0000006F090B90120FBE7704700002A
:100E80001FB5002001900290039002200090694657
:100E9000044803F065FE0222002103480BF06EFDBA
:100EA0001FBD0000000C0140660200202DE9F05F2C
:100EB00000250C4681464FF021084FF0110AAA4E3A
:100EC0004F1D3DE102F0B8FB94F86500062860D0A4
:100ED00006DC0628F5D2DFE800F010252F3948524D
:100EE00020286FD004DC10285ED01128E9D16EE0F4
:100EF000212868D03028E4D12DE10122214648463E
:100F000008F0A9FF2078AA2804D0412804D044285A
:100F1000D7D105E0012000E0022084F865000FE150
:100F20000320FAE70122611C484608F094FF60782C
:100F3000552844D11020F0E70122611C484608F0F2
:100F40008AFF607854283AD1042008E00122611C0D
:100F5000484608F080FF6078422830D1302084F87D
:100F6000650000BF84F86450EAE00122A11C4846F5
:100F700008F071FFA0782D2821D10520EFE701228C
:100F8000E11C484608F067FFE078422817D10620A8
:100F9000E5E70122211D484608F05DFF2079202861
:100FA0000DD184F86580DDE70122A11C484608F0D8
:100FB00052FFA07884F86400C01E4E2804D384F841
:100FC0006550BDE02EE042E084F865A0B8E094F8FA
:100FD0006400E11CC01E82B2484608F03CFF0028B5
:100FE0001ED094F86400401EC1B2204603F050F8B1
:100FF00094F86420611E515C88420DD131784846D6
:10100000494507D000F0C4FC94F8642021465748B5
:101010000BF0AAFC00F0CAF884F8655084F864501C
:10102000BDE8F09F94F864000122C119484608F019
:1010300012FF94F86400C15D202901D184F8658015
:10104000401CC0B284F86400962879D9B7E794F8B8
:1010500064000122C119484608F0FDFE0A2244A19D
:10106000601D0BF071FC01280CD00A2243A1601D09
:101070000BF06AFC012805D094F86400C15D0D29CD
:1010800065D057E0607C00212C2802D0A27C2C2A5D
:1010900019D1E27B202A16D12C2803D0A27C2C2A3D
:1010A00006D010E0207C86F803A03138C1B20AE0F7
:1010B000217CD022303901EB810102EB410108444F
:1010C000C1B21220F07094F8640001F10E02904257
:1010D00030D371B3C05D0D2827D1317848464945DA
:1010E00001D000F055FCF07821182048CA78491C3E
:1010F0000BF03AFCF17800202144C97801E0401C53
:10110000C0B28142FBD8DFF864B09BF80200401EF9
:10111000C1B2584602F0BCFF9BF80220ABF10101BE
:10112000515C884201D100F041F884F8645046E7F0
:1011300006E0FFE7401CC0B284F86400642885D84C
:10114000484608F085FE00287FF4BCAE68E7601DC5
:10115000FFF730FDE9E70122A11C484608F07BFEBD
:10116000A07800F0EAFC2AE721020020C2600020FB
:1011700053505044415441494E440000424C454470
:10118000415441494E440000704710B54FF4E134DA
:101190002146002007F0C1F82146012007F0BDF8E4
:1011A0002146BDE81040022007F0B7B82DE9FE4304
:1011B000FE4EB41D3079F02802D2FF2000F066FB0D
:1011C0003279002004210323F94D4FF001080B2A46
:1011D00071D01BDC012A29D0F64F082A6CD00A2ACC
:1011E00022D172794FF0020C132A73D024DCF24919
:1011F000132A19D2DFE802F0496FD1EEEDECEBEAE9
:10120000E9E8E7E6E5E4E3181818D9000F2A76D0F4
:10121000FF2A09D1E549F2786A394B7B9A4203D11A
:1012200081F8690081F86800BDE8FE8370790428C0
:10123000FAD10322012140E0872A71D018DC832AE9
:101240006FD00CDCD948142A00F166006AD0152A48
:1012500069D0822AE8D120780CEB0020A3E0842A10
:101260007ED0852A7DD0862ADED12078062150E2E4
:10127000883A0D2AD8D2DFE802F0F0EF070707EE30
:10128000ED070707BDC0EC00CEE795F8F60D002886
:1012900010D1207800280DD0012810D00228C3D109
:1012A0007868000304D485F8F6CD607885F8F70DEA
:1012B0004FF40072F1E12FE2CEE20320CFE1786833
:1012C000000304D485F8F68D607885F8F70D4FF4A7
:1012D0008072E2E17FE0207878B1012810D0022806
:1012E00015D0032820D0042826D005283FD0062872
:1012F0009AD1BDE8FE4301F009BE0122CDE1A8E28A
:101300007868000390D4BDE8FE4300F087BC6078A5
:10131000002889D07968090332D400F0ABFD2FE0B2
:101320004FE192E0EEE0DCE060780028ACD0796834
:10133000090325D4012121E060780028A4D0796830
:10134000090301D400F07CFF60786FF4FE7101EBBB
:10135000402082B20A21032006F098FB607801E069
:10136000AAE0F8E06FF0FC0101EB40201BE06078A0
:10137000002889D07968090302D4002100F0A2FC7A
:101380006078C1074FEA4010A0F120007DD000BF77
:1013900040F40040A5F8F20D46E77868000328D431
:1013A0002078A11C23E082B277E17868000320D482
:1013B0007E480522A11C72300BF0D6FAF0E788E1D6
:1013C00070E151E12FE119E109E1FDE0E8E0C5E05C
:1013D000B6E043E014E0786800030AD473480522BD
:1013E000A11C77300BF0C0FA70492078723101F0FF
:1013F00061FAFBE0207812218BE12078132188E14B
:101400007868000320D460788DF80000A0788DF80B
:101410000100E0788DF80200E0792179A27900EBF3
:1014200001606179090401EB022108440190607AAE
:10143000217A6A4600EB0120ADF80800207800F020
:101440000101400800F04AFFD0E0207803EB0020C3
:10145000A9E741E05BE139E1CDE0BDE07868000358
:101460004FD460788DF80000A0788DF801002079C5
:10147000E17800EB0120ADF80200207A6179E27991
:1014800000EB0160A179090400E020E001EB0221FA
:1014900008440190A07A617A6A4600EB0120ADF819
:1014A0000800207BE17A00EB0120ADF80A002078EB
:1014B00000F01F01400922E02078C243D2069BD1F0
:1014C00000F03F01202920F01F00FFF461AF40F43D
:1014D0000040A5F8F40DA7E62078C143C906EFD077
:1014E000A2E6796809030CD4A178627801EB0221A5
:1014F00001812179E27801EB0221418119E000F0BC
:101500004DFD73E07968090370D461780170A178AA
:1015100041702179E27801EB02214180217A6279E0
:10152000E37901EB0261A279120402EB0322114478
:10153000416020781D4A00F01F0140096632DEE755
:101540007868000352D4A078617800EB01212078FC
:1015500000F082FB4AE020780521DAE07868000399
:101560000ED4207828B92179E27801EB0221A5F880
:10157000961DA178627801EB022189B201F054FB3B
:101580007079217800EB012082B20A21032006F055
:101590007DFA207800289ED1BDE8FE4300F024BAF1
:1015A0007868000322D46178207807E0C2600020C8
:1015B000A8610020FC7800201F02002001F094FAAE
:1015C00014E020780721A4E0786800030ED4617845
:1015D000207801F0C3F909E02078082199E07868C3
:1015E000000303D42078611C01F0FCFA70792178A3
:1015F00000EB0120D7E6207809218AE0207885F8E1
:10160000040E617885F8051E01F0BCFC14E07279C7
:101610000A21032002F5807221E072790A21032059
:1016200002F500721BE02078012808D00228B2D110
:101630004870601C05F00EFB0028EED0E7E748700C
:10164000601C05F007FB0028E7D0E01D06F098FDC0
:101650000028DCD172790A21032002F5407203B020
:10166000BDE8F04306F012BA20787F4A01280CD07A
:10167000022890D11078022811D00B227BA103B050
:101680000220BDE8F04308F0EEBB10784FF48672FC
:10169000022802D008780028C9D10A210DE64FF4AB
:1016A0000372FAE720780128C1D17868000302D4D8
:1016B000607808F033FC7079217800EB012082B269
:1016C0000A21032006F0E2F90622E6E720780D2140
:1016D0001FE02078012802D0022806D00BE001F09C
:1016E000ABF9786840F4002004E001F0DBF9786899
:1016F00020F4002078607079217800EB012082B21C
:101700000A21032006F0C2F94FF47E42C5E7207893
:101710000E2101EB002046E67279052ABFF43CAEAB
:10172000DFE802F0032D3D5B7D0026784FF47F4219
:10173000012E0ED0022E16D0812E9AD185F8F70DEB
:10174000C5F8FC0D85F8F80D85F8F90D85F8FA0D4A
:1017500062E095F8F60D80B9607870B185F8F70D04
:1017600085F8F63D60E595F8F60D30B9607820B162
:1017700085F8F70D85F8F61D56E50B219DE595F8E2
:10178000F60D0328EED1217895F8F70D8142E9D1C5
:1017900040F6AC5102EB0020C5F8FC1D1BE095F8AB
:1017A000F60D0328DED1207895F8F73D9842D9D17F
:1017B000607885F8F80DD5F8FC1D401C01F13F0458
:1017C000B0EB941F02D301F03F0000E0402085F809
:1017D000F90D02EB032082B2CFE795F8F60D04284D
:1017E000C0D1207895F8F71D8842BBD12079617867
:1017F000E27800EB0160A178090401EB02210844C2
:10180000C5F8FC0D207A6179E27900EB0160A179DD
:10181000090401EB02210844C5F8000E04E595F81F
:10182000F60D04289ED1207895F8F71D884299D1AD
:10183000617895F8F80D814294D10F4901EB801041
:10184000B17809398AB2A11C0BF08EF885F8FA8DAF
:10185000EAE40E2209A112E7707901288CD1786898
:1018600040F002007860DFE42102002041542B4266
:1018700020475645520D0000A861002041542B42DC
:1018800020534F544120310D0A00000010B586B09E
:1018900041218DF8001054218DF801103E218DF862
:1018A00002101F4901228DF803200B78002113B18B
:1018B0008DF8042006E01B4A12780AB10222F7E7ED
:1018C0008DF804108DF805108DF808100D248DF892
:1018D000094055218DF80A10AA218DF80B10062118
:1018E00009228DF80C108DF806200F4980228DF802
:1018F0000720C9788DF80D108DF80E0005210DF127
:101900000A0002F0C5FB8DF80F0008488DF8104062
:1019100011226946007808F0A6FA06B010BD000052
:101920001D0200201B020020C260002021020020B6
:10193000FEE70020704700207047000070B50B489C
:101940000B4E0024D0F8B852285D3055295D002098
:1019500008F0BCFA325D214606A008F0F3FA641CD8
:10196000E4B2402CF0D3002070BD0000D40700206A
:101970005C0300205553425F52785F4275665B25D9
:10198000645D203D2030782578200D0A000000009D
:10199000114910B591F8F61D00291BD10F4C617843
:1019A000884201D1611C04E0A178884204D10B492E
:1019B000891C0A4801F0C2FD207838B1012807D0FF
:1019C0004FF0FF30BDE8104006F0DFBB0448F9E7F8
:1019D0000448F7E710BD0000A861002021020020A4
:1019E0005555AAAA55AA55AA0B490C4A0020B1F888
:1019F000821D00BF32F81030994207D2084940F2E8
:101A00000D1208700A21032006F040B8401CC0B235
:101A10002828EFD970470000A8610020C2B3010850
:101A2000410200202DE9F0410A4802F049FB00275D
:101A3000094C0225012620B127706570A670BDE80B
:101A4000F081064802F03CFB0028F8D02670657053
:101A5000A770F4E75555AAAA2102002055AA55AA55
:101A600010B50024204600F005F8641CE4B2042CF4
:101A7000F8D310BD024901EB001006F0EAB80000EF
:101A800014030020014802F083BE0000CC030020B4
:101A900030B590F840500124AC40C56B6C600468D0
:101AA00063604368102B036803D099600068C260CC
:101AB00030BD9A600068C16030BD70471B4810B5EA
:101AC0000078062830D11A480021421E0478137885
:101AD0009C4228D043785B1CDBB24370192B23D384
:101AE00041701448436844B143F40021416001202F
:101AF0001070044600F0A0FF06E023F400234360CA
:101B00001170022400F0CEFF0E2000EB04220A2107
:101B1000032005F0BBFF0A21BDE810404FF47E42D0
:101B2000032005F0B3BF417010BD00005C0200202F
:101B30006D020020FC7800207047014610B54FF47C
:101B4000FA70042921D008DC002919D0012918D005
:101B500002291AD0032913D117E0052915D0062927
:101B60000ED010290CD10024204602F023F901F0F8
:101B700063FD082006F0E5FB641CE4B2082CF3D9F1
:101B800010BDBDE8104009F01DBABDE8104006F0D8
:101B9000D8BB10B5044601F031F80CB100F034FEAA
:101BA00000F02EFB00F0CAF800F07CF80CB101F058
:101BB000BBF800F033FFBDE8104000F0C1BF0000EB
:101BC0000A4810B5002180F8F11DA0F8F21DA0F818
:101BD000F41D80F8F01D80F8F61D00F009F80121D1
:101BE000BDE810400846FFF7D4BF0000A861002000
:101BF00070B5084D002400BF05EBC400082206495B
:101C000000F55B600AF0B0FE641CE4B2082CF3D36C
:101C100070BD0000A86100203AB101080D4910B55F
:101C2000002081F8F10D02F015FA01210846FFF7B6
:101C3000B0FF0121084601F0F9F900220A21032032
:101C400005F024FF0A21BDE810404FF47E42032036
:101C500005F01CBFA861002038B5054600200C46E1
:101C60000090082D19D8002D17D0200E8DF80000F7
:101C7000200C8DF80100200A8DF8020007488DF82D
:101C800003406B4630F815100422002006F0B2F92C
:101C9000034800EB4500A0F8704D38BD0CB10108B9
:101CA000A861002000200649024600BF01EB400366
:101CB000401C80B2A3F8702D0928F7D370470000AC
:101CC000A86100202DE9F0410E46082825D820B350
:101CD000401EC7B2184807EB4701002400EBC115AE
:101CE000012E1CD004EB440005EB800090F870112D
:101CF00041F0010180F8701104EB440005EB800213
:101D00002146384602F5B87200F048F9641CE4B286
:101D1000202CE5D30120BDE8F0810020FBE7642002
:101D200006F018FB04EB440005EB800090F87011FE
:101D300021F00101DEE70000A86100202DE9F04755
:101D40000022DFF858A0164D164601274FF41664FE
:101D500040F2DC5C4FF08D0902EB420300200AEBFD
:101D6000C31300BF00EB400103EB810181F87071E8
:101D700081F87161A1F8724155F82080C1F8748131
:101D8000401CA1F878C180B2A1F87A912028E9D34B
:101D9000521C92B2082ADFD3BDE8F087A861002068
:101DA00098B101082DE9F0412D4CB4F8F22D100442
:101DB00025D52C4D2E4F4FF000062878401CC1B27F
:101DC000294829700378294800780343387818D0C7
:101DD000042902D328B1012803D008290FD30228EF
:101DE0000DD104202E7000EB022030E0B4F8F20D8B
:101DF000401CA4F8F20DC00601D1A4F8F26DBDE8B4
:101E0000F081042902D0282904D00DE020B1012856
:101E100002D0F4E702280AD1142000EB022082B29B
:101E20000A21032005F032FE2878082803D33878E9
:101E300038B1012805D028783C28E0D3387802282A
:101E4000DDD12E7094F8F20D152101EB002082B245
:101E50000A21032005F01AFE0028C7D1CFE70000B1
:101E6000A8610020260200201B0200201C02002086
:101E700021020020FEB5082824D818B3401EC5B2A0
:101E8000012000218DF800008DF801104FF416603C
:101E9000ADF8020040F2DC50ADF808008D200A4E8B
:101EA000ADF80A000C4600BF56F8240001906A46BF
:101EB0002146284600F072F8641CE4B2202CF3D3CB
:101EC0000120FEBD0020FEBD98B101082DE9F041C2
:101ED0002D4CB4F8F42D100425D52C4D2E4F4FF079
:101EE00000066878401CC1B2294869700378294807
:101EF00000780343387818D0042902D328B1012888
:101F000003D008290FD302280DD104206E7000EBF6
:101F1000022030E0B4F8F40D401CA4F8F40DC00623
:101F200001D1A4F8F46DBDE8F081042902D00C2998
:101F300004D00DE020B1012802D0F4E702280AD134
:101F4000142000EB022082B20A21032005F09EFD3E
:101F50006878082803D3387838B1012805D0687824
:101F60001928E0D338780228DDD16E7094F8F40D8A
:101F7000152101EB002082B20A21032005F086FD25
:101F80000028C7D1CFE70000A8610020260200206A
:101F90001B0200201C02002021020020F0B591B09D
:101FA00014460D46064608282ED21F2D2CD26188D5
:101FB0004FF49652002004F066FE60803F4A0020F5
:101FC000616804F060FE6060218940F6B83200204C
:101FD00004F059FE208161894FF4C862002004F0AA
:101FE00052FE7100364A80B201EB1511608132F861
:101FF000111005F00F0202EB820211448FB221781A
:10200000C9070CD0617811B1002011B0F0BD00906B
:102010002389618802A8626801F0D4F80FE04FF4C8
:10202000967006F097F90020CDE90200CDE9040092
:102030002449CDE90800CDE90601CDE90A00207860
:10204000C0060BD5039981F000410391059981F0F9
:1020500000410591079981F000410791DDE90201F6
:102060000CAA05F038FFDDE904010DAA05F033FFE5
:10207000DDE906010EAA05F02EFFDDE908010FAA31
:1020800005F029FFDDE90A0110AA05F024FF0CABD9
:1020900005223946002005F048FF0B4906EB4600B3
:1020A00001EBC01005EB450100EB810094E80E0048
:1020B00000F5B87080E80E000120A6E70077010067
:1020C00018B201080000F03FA86100202DE9F04798
:1020D000494E4A4C4FF0040AB0784FF00309401CB7
:1020E000C7B2B77094F8F70D96F801C00025D4F880
:1020F000FC1D09EB00230AEB0022BCF1050F78D28E
:10210000DFE80CF0030B193A58009AB20B210320B8
:1021100005F0BCFCB570012006E039B192B20B218C
:10212000032005F0B3FC0220707062E00A2F60D338
:10213000B5709AB21BE094F8FA0DA0B194F8F80DBE
:102140003F31401CB0EB911F02D386F8019007E0AD
:10215000B57084F8F80D92B20B21032005F096FCBF
:1021600084F8FA5D45E0322F43D3B57092B20B216B
:10217000032005F08BFC3CE00022204B104603E0DE
:1021800013F8017B401C3A448142F9D8D4F8000E80
:10219000904202D186F801A02BE07570B570C4F8AA
:1021A000FC5D84F8F85D84F8F95D84F8FA5DC4F8A4
:1021B000005E1EE000F0CCFDD8B10121757008462C
:1021C00000F034FF94F8F70D84F8F10D04F6F454A0
:1021D00001F040FFE570A56025716571A5714FF4B0
:1021E00002420B210320E56005F050FC0120BDE810
:1021F000F0870020FBE7000042020020A8610020D9
:10220000F0B500210D4D012403220B46142644F69F
:10221000206700BF01EB410005EBC000491C00F83E
:10222000B04F89B204734270427382708273076147
:102230004660038183820829ECD3F0BDA8610020A9
:102240003EB508281DD8E0B1401EC4B201208DF86B
:10225000000003208DF801008DF8020014200021F9
:102260000190ADF808106A46204600F037F844F6B1
:10227000206001906A460121204600F02FF80120DD
:102280003EBD00203EBD000070B506460020114C4A
:10229000012900D1207021780F4D11B1012914D1ED
:1022A00010E0304600F086FA78B185F8F16D01F063
:1022B000D1FE4FF480720B21032005F0E7FB0120D3
:1022C000207002E095F8F71D09B1002070BD207064
:1022D000012070BD42020020A86100202DE9F04FCE
:1022E000BBB0894606461446142130A8FDF7B1FF5D
:1022F000082E2FD2B9F1020FFBD2B04806EB4601EF
:1023000000EBC10109EB490001EB8000369090F829
:10231000B0002178C0F30010C1F3001180EA010A77
:10232000A74A0020616804F0AEFC02466060207895
:102330000DF1580BC1070CA820AD2E906FD060781E
:10234000002703214FF00408012804D002285ED0A2
:1023500003286ED08DE0A078012806D003280AD08B
:10236000052814D007282FD083E02389494602A8E6
:1023700001F064F963E02389494602A801F0E0FA1C
:102380002389494662682E9801F0DAFA93E0CDE994
:10239000001788462389494602A801F0AFFB23892C
:1023A000494662682E9801F049F9CDE900872389F2
:1023B00049465846626801F0A1FB238949462846F0
:1023C000626801F03BF97CE00020CDE900802389C0
:1023D000494602A801F092FB0127CDE90087238935
:1023E000494662682E9801F089FB0020CDE9008003
:1023F000238949465846626801F080FBCDE9008791
:10240000238949462846626801F078FB59E0A078A4
:10241000012805D002280DD0032817D029E06CE050
:102420002389494602A801F0BDF92E9801F056FB18
:1024300041E017E02389494602A801F0B3F9238956
:10244000494662682E9801F0F9F834E0238949463C
:1024500002A801F0A7F92389494662682E9801F085
:10246000A1F928E0A078012807D002280BD0032882
:1024700011D000203BB0BDE8F08F2389494602A867
:1024800001F05EFAD1E7CDE900172389494602A899
:1024900001F034FBD3E7CDE900872389494602A840
:1024A00001F02CFB0120CDE90080238949466268B8
:1024B0002E9801F023FB584601F010FB284601F04E
:1024C0000DFB2078C0060BD5039981F000410391E4
:1024D000059981F000410591079981F0004107912C
:1024E000364806F1010800EB060BBAF1000F15D0D3
:1024F0009BF8990D012808D010E04FF4967005F074
:1025000029FF02A801F0EAFA8FE7002208F0FF0095
:10251000114600F035FA0A2005F013FF32A82F907B
:1025200033A82E9034A82D902648002700EB0610E3
:1025300030AD00EBC90900BF07EB870102A800EB33
:10254000C10630AAD6E9000105F0C5FCD6E90201B2
:102550002A1D05F0C0FCD6E904012F9A05F0BBFC4A
:10256000D6E906012E9A05F0B6FCD6E908012D9AA7
:1025700005F0B1FC39F8171030AB0522002005F04A
:10258000D4FC7F1CFFB2042FD6D3BAF1000F0CD0BD
:102590009BF8990D012808D11E2005F0D2FE08F005
:1025A000FF000022012100F0EBF9369894E80E00BC
:1025B000B03080E80E0001205CE70000A861002038
:1025C0000077010038B201082DE9F84F82464E48E5
:1025D0004F4A00EB0A090AEB4A000C4602EBC0081E
:1025E0004A49494801EBCA07103000EB0A06A2F13C
:1025F000100101EB4A004FF0010B30F8021C0025DE
:102600006A46584605F076FC9DF803009DF80010D8
:102610009DF8022000EB01609DF80110090401EB18
:1026200002210844FDF7CFFF6FF01702FDF7B4FF5A
:1026300021F000410022134647E90201FEF700F8AD
:1026400003D109F8015CBDE8F88F58F8182C58F848
:10265000143C57E90201FDF7F3FF1ED2207832281F
:1026600001D309F8015C2078401CC0B220706428B6
:102670000DD3257016F8010C48B906F801BC0122EB
:102680000021504600F07CF90220FEF7E9FB16F825
:10269000010C0128D7D12570D5E758F8102C58F82F
:1026A0000C3C57E90201FDF7E3FFF4D258F8082C7F
:1026B00058F8043C57E90201FDF7DAFF0DD215483E
:1026C000007806280AD12078401CC0B220700A2861
:1026D00004D3257009F801BC00E0257016F8010C40
:1026E0000128B0D10C4906F8015C01EB0A0090F812
:1026F000980D0128A7D101221146504600F040F95B
:102700000320FEF7ADFB9EE729020020B06F0020FA
:10271000F0B201085C020020A8610020224810B538
:1027200090F8F01D03292CD120490978062928D1D9
:1027300090F8F60D002824D11D4C04F109012078F1
:1027400008280DD2DFE800F004081E2124272A2DD6
:1027500017490931012001E00220491CFFF734FF2D
:102760002078411C21700C2801D3002020701049D2
:102770000020491C0A5C012A03D0401CC0B2082872
:10278000F8D310BD0320891CE8E70420C91CE5E745
:102790000520091DE2E70620491DDFE70720891D06
:1027A000DCE70820C91DD9E7A86100205C020020F1
:1027B0002802002010B5040015D040F6AC520B4999
:1027C00001F084FA00280DD00121084600F02EFC0B
:1027D0000649082201EBC40000F6A850091D0AF0C2
:1027E000C3F8012010BD002010BD0000A86100202A
:1027F00010B544220349002001F068FA002800D0F7
:10280000012010BD546F002070B500210E4D9023A3
:102810000C4601EB410202EBC10200202A4411B137
:1028200008B1814203D1161886F84C3002E0161820
:1028300086F84C40401C80B20B28F0D3491C89B26A
:102840000929E6D370BD0000A86100202DE9F843F6
:1028500000210C460091FDF7C7FE0025114B2A46CA
:10286000FDF7B3FD104B2A46FDF727FEDFF83C804D
:102870000F4F0E4605462A4633460020414608F0D3
:1028800013FF6A4605F027FB37F814106B46012248
:10289000002005F04AFB641CE4B20A2CEBD30120B3
:1028A000BDE8F8830000624000003440000024408E
:1028B000CAB201082DE9F84F064600200D460090E7
:1028C000082E3FD8EEB306EB460023490024DFF87C
:1028D0007890DFF878A0DFF878B0DFF8788000EB48
:1028E000C60047182978BA22002004F0CCF9C0B2FB
:1028F0002870FDF779FE00224B46FDF766FD0022A9
:102900005346FDF7DAFD02460B460020594608F013
:10291000CBFE6A4605F0DFFA38F816006B46204415
:1029200081B20122002005F000FB3919641C15F862
:10293000010BE4B281F84D000A2CD3D30120BDE88D
:10294000F88FFFE70020FAE7000062400000344003
:1029500000002440B8B20108A861002070B5054607
:1029600009B1012400E000240022214600F008F80B
:102970000248284480F8984D70BD0000A8610020EE
:10298000F8B505460020009016460C468DF8031059
:10299000082D2BD854EA060006D10021284600F065
:1029A000D5FB0A2005F0CDFC11486B46042230F817
:1029B0001510002005F01EFB012C17D16DB10D4C38
:1029C00094F8980D48B96B4604224FF4306100200A
:1029D00005F010FB012084F8980D002E06D10A2086
:1029E00005F0AFFC0121284600F0B0FBF8BD000067
:1029F00014B40108A861002070B5054609B101248E
:102A000000E0002401222146FFF7BAFF02482844D3
:102A100080F8984D70BD0000A86100200020054995
:102A200001220B18401C80B283F8982D0928F8D396
:102A300070470000A861002070B500210846FFF72C
:102A4000A8F80020164D044600EB400105EBC1013B
:102A5000401C01F8B04F80B20C730828F4D3002159
:102A60000720FFF77BFF00210820FFF777FF85F89D
:102A7000A04D002185F89F4D084600F0D7FA0024AC
:102A800000F0DAFD641CE0B20121FFF71BF9A4B2EB
:102A9000082CF5D3BDE870409220FFF7D7BE0000A8
:102AA000A861002010B50F4C02204FF4007284F88A
:102AB000F60D94F8F10D84F8F70D0A21032004F6C1
:102AC000D85404F0E3FF01210720FFF747FF01215D
:102AD0000820FFF743FF012004F8380C04F8390CF4
:102AE00010BD0000A861002038B5044600200D4646
:102AF0000090082C1CD8002C1AD0082204F0C3F82F
:102B00000C49C0B28DF803004978012903D10A4964
:102B1000085C8DF8030008486B460A30042230F840
:102B20001410002005F066FA0448204480F8A15DE6
:102B300038BD0000FC7800201EB10108A86100200B
:102B4000044901200A1882F8A10D401C80B209280E
:102B5000F8D37047A861002070B5204C052094F888
:102B6000F01D06291CD2DFE801F01B031C1B3437C3
:102B700008F028FA01F0E8F994F8F10D022520B1E7
:102B800084F8F65D84F8F70D08E00121084600F0AE
:102B90004DFA00220A21032004F078FF84F8F05D4A
:102BA00070BD94F8F61D0029FAD184F8F60D0C4892
:102BB000007868B903220121104604F067FF94F8F9
:102BC000F10D28B94FF47E420A21032004F05EFF84
:102BD000032084F8F00D70BD0020FAE7A861002002
:102BE00025020020082806D8034A02EBC00008226C
:102BF000001D09F0B9BE7047A861002070B5084DEE
:102C0000084E002406EBC40005EBC4010822001D99
:102C100009F0AAFE641CA4B2092CF3D370BD000015
:102C20003AB10108A86100202DE9F04706460D469B
:102C300008282CD8174C2EB9B4F8962D002004F093
:102C400022F885B2642004EB4608B5FBF0F7B8F82B
:102C5000821D4FF6FF79B1FBF0F4BC4202D9A4F11A
:102C6000010402E002D204F10104A4B204EBC400A6
:102C700000EB041109EA8101304600F00DF8BC4276
:102C8000EBD12946304600F007F8A8F8825DBDE890
:102C9000F0870000A8610020F8B504461CA04FF49E
:102CA000FA5200680090002003F0EDFF80B2FDF7BB
:102CB0009BFC0022174BFDF788FB0022164BFDF70B
:102CC000FCFB0022154BFDF7F8FB02460B460020EB
:102CD000134908F0E9FC134F05460E4637F8140077
:102CE0006B46401C81B20422002005F083F96A463D
:102CF0002846314605F0EFF837F814106B460122EC
:102D0000002005F012F9012005F01BFBF8BD0000C2
:102D10000000208A0040BF400000594000003440BD
:102D200000002440B0B30108084A4FF4FA510120D2
:102D3000A2F8821D02EB4003401C80B2A3F8821D62
:102D40000928F7D3A2F8961D70470000A86100205B
:102D500010B5040011D040F6AC52094901F052F808
:102D6000002809D00649082201EBC40000F6A8504B
:102D7000091D09F0F9FD012010BD002010BD000063
:102D8000A86100202DE9F047584E594C0627B0881D
:102D90000025401C80B2B08094F8F61D4FF4BC7240
:102DA0004FF47F484FF47E494FF47A73072906D2D7
:102DB000DFE801F00407234963798800B580BDE8A6
:102DC000F087904208D301F04DF984F8F65D424651
:102DD0000A21032004F05AFE94F8F70DFFF7B8FF1C
:102DE0000028ECD0B58084F8F67D94F8F70D84F8CF
:102DF000F10DBDE8F04701F02DB990420AD301F082
:102E00001BF984F8F65D42460A21032004F03EFED9
:102E1000FEF704FF94F8F70DFFF7CCFC0028CED0A6
:102E200084F8F65D94F8F70D84F8F10D01F012F9CD
:102E3000FEF7DAFDF0780028C1D100220A21032034
:102E400004F024FE2DE098420DD901F0F5F884F845
:102E5000F65D42460B21032004F018FE94F8F70DAE
:102E60000121FFF711FA94F8F70D0021FFF70CFA92
:102E70000028A4D084F8F65DDFE7984208D901F075
:102E8000F1F884F8F65D42460B21032004F0FEFDC4
:102E900094F8F70DFFF71AF9002890D0B58084F860
:102EA000F67D4A461BE0904205D301F0C5F8FEF7D7
:102EB0009FFE84F8F65DFFF79BFC002891D084F814
:102EC000F65D7CE7904203D301F0CCF884F8F65D20
:102ED00000F010F80028F4D084F8F65D0022BDE878
:102EE000F0470A21032004F0D1BD00004202002077
:102EF000A861002010B544220349002000F082FFA1
:102F0000002800D0012010BD546F002070B51C4D6A
:102F1000002485F8F14D01F09DF801210846FEF7E7
:102F200038FE4FF4FA50A5F8820DA5F8960D002052
:102F300000EB400105EBC101401C01F8B04F80B22D
:102F40000C730828F4D30121084600F06FF8002420
:102F500000F072FB641CE0B20121FEF7B3FEA4B2E4
:102F6000082CF5D300220A21032004F08FFDBDE8D0
:102F700070400A214FF47E42032004F087BD000018
:102F8000A86100202DE9FE430C460646A04248D029
:102F9000082E46D8082C44D8EEB3E4B3DFF8889066
:102FA00006EB460809EBC8059835671E95E80E0044
:102FB0008DE80E0004EB440109EBC1006A4690F86D
:102FC0009800983D01099DF8000061F304108DF808
:102FD0000000F8B20021FFF781F905F1A402F8B270
:102FE0000121FFF77BF9002509EBC81800F024FB4D
:102FF00005EB450108EB8102E9B2F8B2103AFEF7A1
:10300000CDFF6D1CADB2202DF0D309EB4600B0F81A
:10301000821D204600E004E0FFF706FE0120BDE827
:10302000FE830020FBE70000A86100202DE9F041AD
:1030300005460E460220FDF713FF424C6DB10125F7
:1030400005EB450000EBC5000119E8B24D31FFF773
:1030500031FC6D1CADB2092DF2D39620FFF7F6FBC3
:103060005FF0000500F0E8FA05EB450004EBC0074F
:1030700007F1B002E8B20021FFF730F907F1BC0216
:10308000E8B20121FFF72AF96D1CADB2082DE9D392
:103090005FF0010504EB4500B0F8701DE8B2FEF7E3
:1030A000DBFD6D1CADB2092DF4D366B15FF00005F8
:1030B00004EB4500B0F8821DE8B2FFF7B5FD6D1CCA
:1030C000ADB2092DF4D30025601990F8981DE8B22F
:1030D000FFF792FC6D1CADB2092DF5D300256019E8
:1030E00090F8A11DE8B2FFF7FFFC6D1CADB2092DF1
:1030F000F5D3002606EB4600002504EBC01700BF01
:1031000000F09AFA05EB450007EB8002E9B2F0B255
:1031100002F5B872FEF742FF6D1CADB2202DEFD361
:10312000761CB6B2082EE5D3FEF75EFC06480078A2
:10313000062804D1BDE8F0410320FDF791BEBDE8AB
:10314000F0810000A86100205C0200202DE9F0471A
:1031500081461B4A0F004FF0640002EB490602D083
:10316000012F06D00AE0B6F8821D0025B1FBF0F46D
:1031700004E0B6F8821D0024B1FBF0F54FF6FF78AD
:10318000AC4202D9A4F1010402E002D204F101042C
:10319000A4B204EBC40000EB041108EA8101484624
:1031A000FFF77AFDAC42EBD1012F06D1B6F8821DB4
:1031B0004846BDE8F047FFF76FBDBDE8F087000067
:1031C000A86100202DE9FF4F8DB091460E461846AC
:1031D0001A9DFDF709FA0022674BFDF7F6F8674CD8
:1031E00000222346FDF769F9804628460291FDF743
:1031F000FBF900222346FDF760F904900191304667
:10320000FDF7F2F900225E4BFDF7DFF800222346BE
:10321000FDF753F905460F464846FDF7E5F9044624
:103220000E460022574B28463946FDF746F9564DC3
:1032300002460B460020294608F036FA0091534911
:1032400083460122D1E90001FDF7A6F92246334663
:10325000FDF7C1F84E4BD3E90023FDF72EF9814667
:103260008A46012201990498FDF796F904460E4614
:103270004846514609F08AFB22463346FDF71DF9C0
:10328000044601910022434B40460299FDF715F98F
:1032900002460B460020294608F006FA8846DDE97A
:1032A000003107465A462046FDF707F900223A4BFF
:1032B0000B910990FCF7E8FF0E46DDE90031054669
:1032C0005A462046FDF787F80022334BCDE900012E
:1032D000FDF77EF83A464346FDF77DF82A46334629
:1032E000FDF7EBF80D9AC2E900010D9C484604F188
:1032F000080B514607F018FE00224FF04043FDF73F
:103300006AF83A464346FDF766F82A463346FDF723
:10331000D4F8CBE90001DDE900010BF1080B002234
:103320001D4BFCF7B1FF3A464346FDF754F82A46D9
:103330003346FDF7C2F8CBE900010BF10804002287
:10334000154B0B990998FDF740F82A463346FDF7CF
:10335000B4F8C4E900014846514607F0E5FD0122F2
:10336000FDF71AF92A463346FDF7A7F8C4E902012A
:1033700011B0BDE8F08F0000007097400000594088
:1033800000C0A240000044400000244090B1010869
:1033900088B10108000034400000F03F124810B529
:1033A0000168491C016011480068800616D500209C
:1033B0000F4A0A21B0FBF1F301FB1303303313541E
:1033C000401CC0B20A28F5D340220949094805F03B
:1033D00033FC0A220649084803F0D5FBBDE810403B
:1033E000202001F0B1BB00002C000020140401409B
:1033F00054070020D40700209406002010B50120B7
:10340000FEF738FB03220221BDE81040002004F043
:103410003DBB000010B50220FDF722FD0949042044
:103420000870002004F09EFE0020FDF7D1FA064946
:10343000486820F4803048600449C0F3C0400870F8
:1034400010BD00001C600020FC7800206C020020F1
:10345000704770B50D4601461E461446002004F024
:1034600023FEC5F30741002004F01EFEC5F307212B
:10347000002004F019FEE9B2002004F015FE05E07A
:10348000FF21002004F010FE04F8010B761EB6B2F6
:10349000F6D270BD70B50C4601461D46164600209A
:1034A00004F002FEC4F30741002004F0FDFDC4F364
:1034B0000721002004F0F8FDE1B200E031460020D1
:1034C00004F0F2FD6D1EADB2F8D270BD10B50C4621
:1034D0000146002004F0E8FDC4F30741002004F099
:1034E000E3FDC4F30721002004F0DEFDE1B2BDE8F6
:1034F0001040002004F0D8BD70B50D4601461E46B0
:103500001446002004F0D0FDC5F30741002004F06C
:10351000CBFDC5F30721002004F0C6FDE9B201E0B0
:1035200014F8011B002004F0BFFD761EB6B2F7D2DE
:1035300070BD0146002004F0B7BD704703780A78DB
:10354000534003700A785A400A7001785140017064
:1035500070470A4600230146022001F0B3BA0A462A
:1035600000230146032001F0ADBA0000044B002205
:10357000DA61044A136943F0010313610180704763
:10358000600F00200020024014480022C168CB06D2
:10359000134904D5CA6942F00202CA611022C36805
:1035A0005B0705D5CB6943F00103CB6142F0040210
:1035B000C369DB0707D0CB6943F00403CB61C16962
:1035C00021F00101C161A2F58071013901D0C26011
:1035D0007047C16921F00101C161704700200240BC
:1035E000600F002070B5054601F0C0FB0646114C87
:1035F00009E0681C07D025B101F0B8FB801BA84288
:1036000001D9032070BDE068C007F2D1E0688006F0
:1036100001D52020E060E068C00605D4E069C0075D
:1036200002D1E068400703D5FFF7AEFF012070BD6F
:10363000002070BD00200240704700002DE9FF4FC0
:1036400083B09A461046FCF7CFFF0C465149054619
:103650000122D1E90001FCF79FFF2A462346FCF72F
:10366000BAFE4D4BD3E90023FCF727FF05460C4675
:1036700009F08CF9804689462846214607F054FC1B
:1036800006460F4642464B46FCF7FEFD0022434BE2
:10369000FCF7FAFD0D4604461421BAFBF1F0FCF7E5
:1036A000A3FF02460B4600203D4907F0FDFF82467E
:1036B000DDE903208B460832C8B3012834D10398D2
:1036C00000214B46C0E9001103924246504659463C
:1036D000FCF781FE834622462B460091FCF7EDFE67
:1036E000039A2B46C2E90001039A584602F1080AE0
:1036F00022460099FCF7E1FE0AF10802CAE900013E
:103700000020E2E80200924632463B4640464946E7
:10371000FCF75BFE0022214BFCF75AFE22462B46AB
:10372000FCF7CBFECAE9000107B0BDE8F08FFFE768
:1037300003980021194BC0E9001103920A46304654
:103740003946FCF7A1FDCDE9000102468BF0004CA3
:103750000B4650466146FCF73EFE22462B46FCF7E0
:10376000ACFE039A5B46C2E90001039ADDE9000161
:10377000083203925246FCF72EFE22462B46FCF7F7
:103780009CFE039AC2E90001039A0020C2E90200EC
:103790001032B8E790B1010888B101080000F03F8D
:1037A000000024402DE9FF4F83B098461046FCF7F7
:1037B0001BFF0C465C4905460122D1E90001FCF7DC
:1037C000EBFE2A462346FCF706FE584BD3E90023BE
:1037D000FCF773FE04460D4609F0D8F806460F467E
:1037E0002046294607F0A0FB81468A460020504922
:1037F00009F01CF94F4C02460B4600202146FCF70D
:103800005CFE0122FCF7C8FE02460B4630463946F4
:10381000FCF753FE8346002223460291FCF734FD59
:103820000D4604461421B8FBF1F0FCF7DDFE02461C
:103830000B460020404907F037FF06460F46DDE9FA
:10384000030100F1080800294ED0012949D14A4658
:10385000534600203749FCF7B8FD22462B46CDE9F8
:103860000001FCF72AFE32463B46FCF7B4FD4FF060
:10387000FF32FCF791FE039A2B46C2E90001DDE915
:1038800000012246FCF719FE32463B46FCF7A3FD39
:10389000C8E90001DDE9000122462B46FCF70DFED8
:1038A00032463B46FCF797FD4FF0FF32FCF774FEC3
:1038B000C8E9020100221F4B58460299FCF785FD1A
:1038C00022462B46FCF7F9FDC8E9040101224846CF
:1038D0005146FCF761FE22462B46FCF7EEFDC8E997
:1038E000060107B0BDE8F08F0022124B4846514652
:1038F000FCF7CAFC22462B46CDE90001FCF7DDFDB2
:1039000032463B46FCF767FD4FF0FF32FCF744FEC2
:10391000039A5346C2E900014A4600200749FCF7D2
:1039200054FD22462B46ADE790B1010888B101084D
:10393000000008400000F03F000024400000F0BFFD
:103940002DE9FF4F83B098461046FCF74DFE0C461C
:103950005D4905460122D1E90001FCF71DFE2A461A
:103960002346FCF738FD594BD3E90023FCF7A5FDAE
:1039700004460D4609F00AF806460F462046294639
:1039800007F0D2FA81468A4600204FF0804109F0C4
:103990004DF84F4C02460B4600202146FCF78DFDAA
:1039A0000122FCF7F9FD02460B4630463946FCF78A
:1039B00084FD8346002223460291FCF765FC0D46F8
:1039C00004461421B8FBF1F0FCF70EFE02460B464C
:1039D0000020404907F068FE06460F46DDE9030176
:1039E00000F1080800294FD001294AD14A46534620
:1039F00000203749FCF7E9FC22462B46CDE90001BF
:103A0000FCF75BFD32463B46FCF7E5FC4FF0FF322E
:103A1000FCF7C2FD039A2B46C2E90001DDE9000173
:103A2000224600BFFCF749FD32463B46FCF7D3FC7B
:103A3000C8E90001DDE9000122462B46FCF73DFD07
:103A400032463B46FCF7C7FC4FF0FF32FCF7A4FDC3
:103A5000C8E9020100221E4B58460299FCF7B5FC4A
:103A600022462B46FCF729FDC8E9040101224846FD
:103A70005146FCF791FD22462B46FCF71EFDC8E996
:103A8000060107B0BDE8F08F0022114B48465146B1
:103A9000FCF7FAFB22462B46CDE90001FCF70DFDB1
:103AA00032463B46FCF797FC4FF0FF32FCF774FDC3
:103AB000039A5346C2E900014A4600200649FCF732
:103AC00084FC22462B46ADE790B1010888B101087D
:103AD0000000F03F000024400000F0BF0021C0E9DA
:103AE0000011C0E90211044AC0E90412C0E906113C
:103AF000C0E90811704700000000F03F2DE9FF4FBA
:103B000083B01046DDF844B0FCF76EFD694E054603
:103B10000C46D6E900010122FCF73EFD2A46234669
:103B2000FCF759FC644BD3E90023FCF7C6FC0546BF
:103B30000F4608F02BFF044688462846394607F012
:103B4000F3F981468A465846FCF74EFD00225B4B4E
:103B5000FCF79AFB05460F461098FCF745FD024618
:103B60000B46D6E90001FCF7A8FC2A463B46FCF7C9
:103B700032FC08F00BFF0122FCF70EFD504D02460F
:103B80000B4600202946FCF798FC0122FCF704FDB7
:103B900002460B4620464146FCF78FFC8346002236
:103BA0002B460291FCF770FB04460D460698142143
:103BB000B0FBF1F0FCF718FD02460B46002041492E
:103BC00007F072FD07468846DDE9030100F10806AB
:103BD00000294FD001294AD14A465346002038498E
:103BE000FCF7F3FB22462B46CDE90001FCF765FC10
:103BF0003A464346FCF7EFFB4FF0FF32FCF7CCFCB4
:103C0000039A2B46C2E90001DDE90001224600BF0C
:103C1000FCF753FC3A464346FCF7DDFBC6E90001DE
:103C2000DDE9000122462B46FCF747FC3A464346B5
:103C3000FCF7D1FB4FF0FF32FCF7AEFCC6E9020106
:103C400000221F4B58460299FCF7BFFB22462B4629
:103C5000FCF733FCC6E90401012248465146FCF753
:103C60009BFC22462B46FCF728FCC6E9060107B060
:103C7000BDE8F08F0022124B48465146FCF704FB8A
:103C800022462B46CDE90001FCF717FC3A46434695
:103C9000FCF7A1FB4FF0FF32FCF77EFC039A534682
:103CA000C2E900014A4600200749FCF78EFB224684
:103CB0002B46ADE790B1010888B101080000E03F54
:103CC0000000F03F000024400000F0BF2DE9F0416B
:103CD000374C0503174660780A46430805EB032C6A
:103CE000FF2801D001EB0322012606EB500307F168
:103CF000FF05B3EB152F01D2330200E0FBB2102811
:103D00002AD00BDC102850D2DFE800F0262B262B1F
:103D1000262B262B262B262B262B262B192820D08C
:103D200009DCA0F1110008283FD2DFE800F01A15E5
:103D30001A151A151A151D2813D006DC1A280BD0CF
:103D40001B280ED01C2830D106E01E2804D01F28C6
:103D500007D0FF2829D113E00620FFF7EAFB60789F
:103D60000BE061460320FFF774FB607806EB50011F
:103D7000B1EB152F01D1FF2000E0401C607014E072
:103D80000B460021121D08463F1F04E012F8015B9C
:103D9000401C294480B2B842F8DB002060701868EB
:103DA000884202D10120BDE8F0810020FBE700003D
:103DB0004A02002070B505030620FFF7BAFB082071
:103DC00004F0BFFA29462020FFF780FBC82004F04A
:103DD000B8FA00244FF480760620FFF7AAFB0820EB
:103DE00004F0AFFA3346FF2229460220FFF752FBC8
:103DF000082004F0A6FA641CE4B205F58075102CC6
:103E0000EAD370BD2DE9F0474E4E17460A46347886
:103E100024B1641E14F0FF0434706DD1494C4FEA94
:103E20000030A41C07F1FF0594F802C05FEA5C08AB
:103E300010D04FEA5C0300EB032001EB0322A0F556
:103E40008070A2F58072B3EB152F02D24FF480730D
:103E500000E0FBB24FF00009BCF1110F5BD00DDCAC
:103E6000BCF1110F66D2DFE80CF0334850565056C3
:103E7000505650565056505650565000BCF11A0FDE
:103E800043D00ADCACF1120CBCF1080F52D2DFE8CF
:103E90000CF03C423C423C423C42BCF11F0F3AD049
:103EA0000CDCBCF11B0F36D0BCF11C0F2DD0BCF1CB
:103EB0001D0F30D0BCF11E0F3CD126E0BCF1200F0D
:103EC00023D0BCF1210F26D0BCF1FF0F32D134E05A
:103ED0000020121D3F1FC1F8009006E00B6812F889
:103EE000015B401C2B4480B20B60B842F6DB06201D
:103EF000FFF71FFB0120A0701CE001462020FFF708
:103F0000E5FA192030700220F5E70620FFF711FBD3
:103F1000A078401CEFE701460220FFF7EDFAA078F9
:103F20004108B1EB152F01D1FF2000E0401CA0702B
:103F3000062030700020BDE8F08784F80290012050
:103F4000F9E700004802002008B56946032000F0A8
:103F500054F80098082800D90020024981F8F10D92
:103F600008BD0000A86100202DE9F0410646144676
:103F70000D4680073CD111E0284608F07DFD034640
:103F80002D1D284608F078FD0246194630462D1DA5
:103F9000FFF7E5FA60BB083CA4B20836E008EBD1B5
:103FA0000BE0284608F068FD014630462D1DFFF75E
:103FB000D0FAE8B9241FA4B2361DA008F1D1D4B1BB
:103FC00000210846FF2300E03CB115F8012BC70093
:103FD000BA401143641EA4B203E0C70003FA07F21B
:103FE0001143401C0428EFD33046FFF7B2FA10B15A
:103FF0000020BDE8F0810120FBE740424FF4003291
:1040000002EB402000F01EB840424FF4003303EBB7
:10401000402003E010F8013B01F8013B521E92B230
:10402000F8D201207047704740424FF4003303EB51
:104030004020FFF799BF00000149002048707047F9
:104040004A020020820701D0002070470068086003
:1040500001207047024890F8F11D0320FFF7E3BFED
:10406000A861002001490020887070474A020020A2
:1040700010B5FDF722FD04F005F903F0A9F802F0F0
:1040800001FEFCF7BDFCBDE81040FFF7E1B9000000
:104090000246002003E000BF12F8013B5840491ED1
:1040A000C9B2F9D270470000024A02EB00100122A7
:1040B00003F0DBBD14030020884200D90846704796
:1040C00038B5044669460120FFF797FF0098A042E3
:1040D00001D1012038BD002038BD0000F8B5002511
:1040E0000446009590F82400012808D0012084F8A7
:1040F00024002046FCF78CFC060002D04BE0022096
:10410000F8BDA06A20F4885040F00200A0620220AE
:1041100001F07CFA22490968B1FBF0F0400000E0B0
:10412000401E00900028FBD12046FCF7D1FC2068FF
:10413000816841F00801816000F018FE074604E044
:1041400000F014FEC01B0A2811D820688068000700
:10415000F6D42068816841F00401816000F006FE19
:1041600007460EE000F002FEC01B0A2809D9A06A2B
:1041700020F0020040F01000A06284F824500120DA
:10418000F8BD206880684007ECD4A06A20F00200E7
:1041900040F00100A06284F824503046F8BD0000D1
:1041A000C000002070470000F8B50024009490F88B
:1041B00024202546012A12D0012280F824204A68B2
:1041C0001F23072A0DD20668776B521E02EB82026C
:1041D00093409F430B6893401F43776319E002208D
:1041E000F8BD06680D2A0AD2376BD21F02EB820295
:1041F00093409F430B6893401F43376309E0F76A7E
:104200000D3A02EB820293409F430B6893401F4399
:10421000F7620A68072306680A2A0AD3F7680A3A87
:1042200002EB420293409F438B6893401F43F76029
:1042300008E0376902EB420293409F438B6893404A
:104240001F4337610A68102A01D0112A20D1124B6E
:1042500002689A4217D193681B0219D4936843F4F9
:10426000000393600968102912D10C490C4A0968AF
:10427000B1FBF2F101EB8101490000E0491E009120
:104280000029FBD104E0816A41F020018162012410
:1042900080F824502046F8BD00240140C0000020D2
:1042A00040420F0070477047704710B504460068E1
:1042B0004168890626D50168890723D5A16AC90600
:1042C00003D4A16A41F40071A1628168C1F3424143
:1042D000072910D1217B71B9416821F0200141608B
:1042E000A06A20F48070A062A06AC00403D4A06A0F
:1042F00040F00100A0622046FFF7D4FF21686FF074
:10430000120008602068416809062ED50168490737
:104310002BD5A16AC90603D4A16A41F40051A16258
:104320008168C1F30231072909D04168490515D4D4
:104330008168C1F34241072910D1217B71B94168DD
:1043400021F080014160A06A20F48050A062A06A40
:10435000C00503D4A06A40F00100A0622046FFF728
:1043600021FF21686FF00C00086020684168490651
:104370000DD50068C0070AD0A06A40F48030A06262
:10438000204600F095F821686FF00100086010BD2C
:104390002DE9F04104004FF000057FD0A06A00260F
:1043A00028B9E66284F82460204600F083F82046AD
:1043B000FCF72EFBA16AC90600D420B1A06A40F028
:1043C0001000A0626AE0A16A21F4885141F0020164
:1043D000A162334923688B42E16904D1B1F5402FD2
:1043E00001D14FF40021277B4FF4807C41EA470242
:1043F00061680A43A168614508D0012906D00021FF
:1044000094F814E0BEF1010F02D00AE06146F7E72C
:10441000C7B1A76A47F02007A762E76A47F001071C
:10442000E7625F6827F469470F435F602368996814
:104430001C4F394011439960A16861450BD0012997
:1044400009D00CE0DFF860E0A7690EEB47370F43B7
:1044500047F40061E5E7218A0D05A5F5801521687F
:10446000CB6A23F470032B43CB62216889680F4B1E
:104470001940914208D1E662A16A21F0020141F09F
:104480000101A162BDE8F081A06A20F0020040F0C5
:104490001000A062E06A40F00100E0620120F1E754
:1044A000003C0140FDF7E1FF00E0FFFFFE0E1FFFB3
:1044B0007047000070B586B000250646009501954E
:1044C0000295039500681E49884236D11D498869C6
:1044D00040F400708861886900F400700490886975
:1044E00040F0100088618869694600F0100004906F
:1044F0003020009003200190134800F031FB144C51
:104500001248C4E900058020C4E9025080002061FF
:10451000800060612020C4E90605204600F05CFAB6
:1045200008B1FFF70AF83462002205211220666202
:1045300000F0AEFD122000F09DFD06B070BD000041
:104540000024014000100240001001400800024019
:10455000CC0300202DE9F047894604463B4900681A
:104560003B4F0E1D9046884201D0B84207D13068BB
:1045700010F4702F03D001252846BDE8F08794F889
:10458000240001280CD0012084F824002046FCF7E8
:104590009FFA05004FF0000004D084F82400EBE7F8
:1045A0000220EAE7A16A40F60162914341F480717A
:1045B000A1622168B94218D1326812F4702F14D068
:1045C000A16A41F48011A1623168490505D5A16A4B
:1045D00021F4005141F48051A162A16AC9040AD5B5
:1045E000E16A21F00601E16206E0A26A22F480128B
:1045F000A2624968E9E7E06284F82400216A15486C
:104600008862216A1448C862216A144808632168D4
:104610006FF0020008602068816841F48071816059
:10462000216843464A464C31206A00F013FA20685C
:104630008168C1F342410729816803D041F48011A8
:10464000816099E741F4A001FAE7000000240140ED
:10465000002801405D0A0008C50A0008AB0A0008EE
:104660002DE9F05F90F821100024022903D00421E5
:104670008163012485E001680A6822F00E020A6065
:1046800001680A6822F001020A603F4E3E4FB215EF
:10469000DFF8F4C0DFF8F090DFF8ECA0DFF8E8B066
:1046A000DFF8E4E00168783F13011502ACF1640C17
:1046B000A9F15009AAF13C0AABF1280BAEF1140E96
:1046C0004FF48018B14227D9B9420ED0614512D0BB
:1046D00049451DD0514518D0594518D0714501D1D3
:1046E000424615E0294EB14201D1012210E0274E89
:1046F0001436B14201D110220AE0244E2836B142CC
:1047000006D0224A3C32914201D11A4600E02A46A4
:104710001E49091F0A602BE0B94213D0614517D02A
:10472000494522D051451DD059451DD0714501D173
:1047300042461AE0B14202D14FF0807215E0134EAA
:10474000B14201D1012210E0104E1436B14201D124
:1047500010220AE00D4E2836B14206D00B4A3C32F8
:10476000914201D11A4600E02A46074980394A6041
:10477000012180F82110002180F82010416B01B147
:1047800088472046BDE8F09F8000024008040240B0
:104790002DE9F05FC16B0A6801680B68046C4FF08B
:1047A000040808FA04F8844D844E854FDFF814C2DB
:1047B000DFF81492DFF814A2DFF814B2DFF814E285
:1047C00018EA020F65D05FEA437862D50A6892065C
:1047D00003D40A6822F004020A60DFF8F0814FF483
:1047E0008062016808F1140813011402414524D9BC
:1047F000A9420DD0B1420FD0B9421AD0614515D0AF
:10480000494515D0514501D1120312E0594501D156
:1048100004220EE0714501D140220AE06D4D1435AD
:10482000A94206D06B4A2832914201D11A4600E0D3
:1048300022466749091F0A6029E0A94213D0B14204
:1048400015D0B94220D061451BD049451BD05145F8
:1048500002D14FF4800217E0414502D14FF080624F
:1048600012E0594501D104220EE0714501D14022E8
:104870000AE0584D1435A94206D0564A28329142D2
:1048800001D11A4600E022464B4908394A60C16A04
:1048900071E04FF0020808FA04F818EA020F70D02D
:1048A0005FEA83786DD50A68920606D40A6822F01A
:1048B0000A020A60012180F82110DFF810814FF40C
:1048C0000072016808F1140813011402414524D94B
:1048D000A9420DD0B1420FD0B9421AD0614515D0CE
:1048E000494515D0514501D1120312E0594501D176
:1048F00002220EE0714501D120220AE0354D143527
:10490000A94206D0334A2832914201D11A4600E02A
:1049100022462F49091F0A6029E0A94213D0B1425B
:1049200015D0B94220D061451BD049451BD0514517
:1049300002D14FF4001217E0414502D14FF000724E
:1049400012E0594501D102220EE0714501D1202229
:104950000AE0204D1435A94206D01E4A2832914261
:1049600001D11A4600E02246134908394A60002165
:1049700080F82010816A00291CD0BDE8F05F08474C
:10498000FFE70825A540154214D01A0712D50A687A
:1049900022F00E020A6090F84020C36B012101FA58
:1049A00002F25A60816380F82110002180F8201003
:1049B000016BE0E7BDE8F09F080002401C000240E8
:1049C0003000024044000240580002406C000240A7
:1049D000080402401C04024030B560B11A4B026862
:1049E00014219A4209D2194B1344B3FBF1F1890007
:1049F000016417490AE0012030BD134B5B421344A8
:104A0000B3FBF1F1890001640F490839C163022148
:104A100080F82110136843F6F0718B43F0E901141C
:104A20002143D0E902452C432143046921434469D1
:104A3000214384692143194311600021416301220C
:104A400042770177084630BD08040240F8FFFDBFF9
:104A50000000024070B5044690F8200000250128AF
:104A60000CD0012084F8200094F821600020012E51
:104A700006D084F820000225284670BD022070BDB3
:104A8000022684F82160A0632068066826F00106EB
:104A900006602046FCF7FCFFE06A002820680168F9
:104AA00002D041F00E0106E021F00401016020680F
:104AB000016841F00A0101602068016841F00101CC
:104AC0000160D9E72DE9F05F07461C4888460024BD
:104AD000017E15461E46012909D001218146017635
:104AE0004CF2503A5046FEF77DFD18B122E002200C
:104AF000BDE8F09F012F02D0022F00D00427D3463B
:104B0000DFF83CA0220128463146FBF779FB81B251
:104B100008EB4400FEF72AFD5846FEF763FDDAF87D
:104B2000102022F00102CAF8102018B9641CE4B267
:104B3000BC42E7D3002289F81820D9E7600F002093
:104B40000020024070470000044910B50A68024284
:104B500002D00860FFF7F6FF10BD0000140401400A
:104B60002DE9F84FDFF8C891002409F1040A0AF191
:104B7000040B23460F270BF1040ED1E00125A540BD
:104B800006EA0502AA4276D1DFF8A8C14E68A6EB74
:104B90000C0866452BD00DDC032E34D005DC36B373
:104BA000012E19D0022E2FD11BE0112E16D0122E5D
:104BB0002AD119E0B8F5881F19D006DCB8F5803F76
:104BC00015D0B8F5801F1FD111E0B8F5001F0ED029
:104BD000B8F5041F18D10AE0CB6815E0CB681B1D9F
:104BE00012E0CB6808330FE0CB680C330CE08B6825
:104BF0002BB1012B4FF0080303D0456104E00423DF
:104C000002E0056100E00023FF2A01D8064601E02A
:104C100000F104064FEA840501D9A5F12005D6F874
:104C2000008007FA05FC28EA0C0803FA05F548EAB3
:104C30000508C6F800804D68ED0070D53E4DAE69A0
:104C400046F00106AE61AD6924F0030605F00105EA
:104C500000953A4D06EB050CDCF80850A607360F18
:104C600007FA06F825EA0805DFF8D480404503D1A5
:104C70004FF0000825E052E0DFF8C880404502D13F
:104C80004FF001081DE0DFF8C080404502D14FF031
:104C9000020816E0DFF8B480404502D14FF0030867
:104CA0000FE0DFF8AC80404502D14FF0040808E087
:104CB000DFF8A080404502D14FF0050801E04FF039
:104CC000060808FA06F848EA0508CCF808804D6896
:104CD000D9F80060ED034D4601D5164300E0964338
:104CE0002E604D68DAF80060AD03554601D51643D5
:104CF00000E096432E604D68DBF80060ED025D46F3
:104D000001D5164300E096432E604D68DEF8006042
:104D1000AD02754601D5164300E096432E60641C33
:104D20000A681646E2407FF429AFBDE8F88F00001C
:104D3000000401400000111000100240000001407A
:104D400000080140000C0140001001400014014027
:104D500000180140001C01408068084000D001207C
:104D600070470AB1016170470904FBE70148806898
:104D700070470000B400002070B504001BD094F808
:104D80003D00002520B984F83C50204600F0AEF8E4
:104D9000242084F83D002068016821F001010160B1
:104DA00000F0CAFD4D4A6168914201D84C4900E0CB
:104DB0004C49884201D2012070BD4B492368B0FBA9
:104DC000F1F15E6826F03F060E435E606368934231
:104DD00006D94FF4967359434FF47A73B1FBF3F14C
:104DE0002368491C1E6A26F03F0631431962616838
:104DF000914210D84900401EB0FBF1F2521CC2F3A0
:104E00000B02042A01D2042022E0B0FBF1F0401C86
:104E1000C0F30B001CE0A368F3B301EBC10202EB8B
:104E20000116421EB2FBF6F2521C42F480421205F9
:104E300049D093B301EBC10202EB0111401EB0FB5C
:104E4000F1F0401CC0F30B0040F4804040F40040FF
:104E50002168CA694CF6FF739A431043C861D4E9CC
:104E60000701084321680A6822F0C0021043086065
:104E7000D4E9030101432068826848F2FF339A4372
:104E800011438160D4E9050108432168CA6822F012
:104E9000FF021043C86001E00EE016E020680168E0
:104EA00041F0010101602564202084F83D00256364
:104EB00084F83E50002070BD01EB4106421EB2FB5B
:104EC000F6F2521CB3E70120C2E701EB4101401E9C
:104ED000B0FBF1F0401CC0F30B00B7E7A086010067
:104EE00080841E0000093D0040420F0030B585B0AF
:104EF000002100910191029103911E4D03681E4C07
:104F0000122103221D48AB4216D1A36943F00803C6
:104F1000A361A369039203F008030493C023CDE9BE
:104F200000316946FFF71CFEE06940F40010E061C3
:104F3000E06900F4001019E0114DAB4217D1A369EC
:104F400043F00803A361A369039203F008030493E9
:104F50004FF44063CDE900316946FFF701FEE06997
:104F600040F48000E061E06900F48000049005B046
:104F700030BD00000054004000100240000C014011
:104F800000580040024881680278114481607047EF
:104F9000B4000020074810B5016841F0100101601D
:104FA000032000F095F8002000F006F800F03EF82D
:104FB000002010BD0020024000B5014687B000224D
:104FC000192000F065F8192000F054F813488169A1
:104FD00041F400618161806905A900F400600690D8
:104FE000684600F089FC00F0B7FC0D490D4AB0FBA3
:104FF000F1F10D48491E0260416040F2E7320021A4
:10500000C0E90321816001F081FA10B1012007B0ED
:1050100000BD054801F0B4FAF9E7000000100240B5
:1050200040420F00002C0140940700200F4808B5B3
:10503000816941F001018161816901F00101009103
:10504000C16941F08051C161C069002200F0805007
:1050500000900F21901E00F01BF80548416821F0D8
:10506000E06141F00071416008BD000000100240A5
:1050700000000140002809DB00F01F0201219140DF
:105080004009800000F1E020C0F8001170470000E6
:10509000F0B40E4B1B680C46C3F30223C3F10705A3
:1050A000042D00D90425191D072901D2002300E091
:1050B000DB1E012606FA05F1491E214099409E405B
:1050C000761E16403143F0BC04F074BF0CED00E0D6
:1050D000064900F0070208684FF6FF03184040EA4F
:1050E0000220034A10430860704700000CED00E006
:1050F0000000FA0510B50C0605D501F0070100EB1C
:105100004110283003E000EB411000F5947099B293
:1051100032B1012202730181190C4181002010BDBE
:1051200000220273C180F9E7704700EB4112D0F80A
:105130006802D26B03F0A5BF00EB4112D0F8680201
:10514000D2F83C2104F000B870B504460B0601F01B
:10515000070004EB40114FF001024FF0000503D5AA
:1051600081F82920283103E081F8295101F5947153
:10517000087094F82802012808D084F828222068B2
:1051800004F01BFC84F82852002070BD022070BD82
:1051900070B5044601F00F006268904201D9012009
:1051A00070BD0B0601F0070004EB40114FF0010247
:1051B0004FF0000503D581F82920283103E081F85C
:1051C000295101F594718D70087094F82802012816
:1051D00008D084F82822206804F092FC84F8285231
:1051E000002070BD022070BD2DE9F04104460F067D
:1051F00001F0070004EB40114FF001064FF00005ED
:1052000003D581F82960283103E081F8295101F59F
:10521000947108700A61CB704A7802B1C881022B80
:1052200000D10D7194F82802012809D084F8286271
:10523000206804F08DFA284684F82852BDE8F081F1
:105240000220FBE770B50C4601F0070500EB4511A5
:10525000C1E94F230022C1F8442181F8292181F8B6
:10526000285101F594716207006804F09EFC00204B
:1052700070BD70B504460D4601F0070061688842B4
:1052800001D9012070BD29064FF000064FF0010240
:1052900005D504EB401181F82920283105E004EB05
:1052A000451181F8296101F594718A70087094F8AC
:1052B0002802012807D084F82822206804F05CFC2A
:1052C000680702D006E0022070BD04F50C7120686A
:1052D00004F014FC84F82862002070BD70B50C4600
:1052E00001F0070500EB4511C1E90F2300224A64D4
:1052F000012281F8292001F8285F6207006804F084
:1053000054FC002070BD10B50446006804F02EFD6A
:10531000000402D5204602F057FA206804F026FD6A
:1053200040050CD5206830F8441F21F480610180CD
:10533000204600F003F90021204600F01AF9206809
:1053400004F014FD400405D5206830F8441F21F412
:1053500080410180206804F009FD800405D52068A3
:1053600030F8441F21F400510180206804F0FEFC55
:10537000C00414D5206830F8401F21F004010180DA
:10538000206830F8401F21F008010180204600F01D
:10539000E8F8206830F8441F21F48051018020682B
:1053A00004F0E4FC00051FD5206830F8401F41F0F0
:1053B00008010180206830F8441F21F40061018059
:1053C000206830F8401F41F004010180206804F09B
:1053D000CDFCC00405D5206830F8441F21F480516D
:1053E0000180204600F0FAF8206804F0BFFC800538
:1053F00008D5206830F8441F21F400710180204650
:1054000000F0B3F8206804F0B1FCC00505D52068B1
:1054100030F8441F21F48071018010BD2DE9F04166
:1054200086B0040004D094F82902002520B108E0D9
:10543000012006B0BDE8F08184F82852204600F033
:1054400057F8032084F82902206804F050FB04F187
:105450001001142288466846FAF7E2FE94E80F002D
:1054600004F0A9FA0227B0BB0021206804F098FCE0
:10547000002001260DE000BF04EB401181F82960F7
:1054800001F8280FC881CD700D614D61401CC0B27C
:105490008D6161688142EFD800200FE004EB40117C
:1054A00081F8295181F8280181F82B51C1F8385130
:1054B000C1F83C51401CC0B2C1F840516168814202
:1054C000ECD8142241466846FAF7AAFE94E80F0089
:1054D00004F0FEFA10B184F82972A9E784F8245088
:1054E00084F82962206804F0F1FA0020A1E70000A6
:1054F00008B500680F4988421AD10F48C16941F4C4
:105500000001C161C069002200F400000090052183
:105510001320FFF7BDFD1320FFF7ACFD002205218E
:105520001420FFF7B5FDBDE808401420FFF7A2BD29
:1055300008BD0000005C00400010024070B5044649
:1055400080680125022801D0FDF7F7FF2946D4F82D
:10555000680203F0D4FED4F86802BDE8704003F09E
:1055600090BED0F8680203F0B4BED0F8680203F031
:10557000BABE10B5044690F8280201280BD00120CD
:1055800084F8280284F82410206804F00BFC002022
:1055900084F8280210BD022010BDD0F8682200F562
:1055A0000C71104603F0B7BE10B5044690F82802FF
:1055B000012810D0012084F8280201462046FFF778
:1055C000B3FD206804F080FA206804F0BCFB0020E2
:1055D00084F8280210BD022010BD000010B504465A
:1055E000D0F8680203F0D6FEA069002804D0034872
:1055F000016841F00601016010BD000010ED00E0FF
:10560000014901200862704700000E4210B52CA429
:1056100001461DCC86B08DE81D002DA02D4C0068E4
:105620000490002004292FD00BDC01292FD002295F
:1056300028D100F091F96168C1F38131491C49001A
:105640001EE0082920D010291CD161682268D201EF
:1056500018D5C1F38342C9031DF8020009D561685A
:1056600004AAC1F34041515C1B4AB2FBF1F148432B
:1056700001E01A4948436168490203D4400003210C
:10568000B0FBF1F006B010BD00F076F9FAE7226A3F
:10569000C2F30121012903D1920701D5C803F1E723
:1056A000022905D1626A920702D549F64040E9E72E
:1056B0000329E7D121688903E4D54FF22440E1E7CB
:1056C00002030405060708090A0B0C0D0E0F101043
:1056D000010200000010024000127A0000093D00A3
:1056E0002DE9F84305460078354CC00754D0E069F1
:1056F0000026C00008D4E06940F08050E061E06915
:10570000012600F0805000902E480168C90512D48F
:105710000168804641F480710160FFF727FB07466E
:1057200005E000BFFFF722FBC01B642823D8D8F890
:105730000000C005F6D5206A10F4407021D0A98879
:1057400001F4407181421CD0206A1F49012220F4DB
:1057500040700A6000220A602062C00711D0FFF783
:1057600005FB074641F2883808E000BFFFF7FEFA64
:10577000C11B414502D90320BDE8F883206A800798
:10578000F4D5206A696820F44070084320621EB195
:10579000E06920F08050E0612878800705D56068D6
:1057A000A96820F44040084360602878C00605D509
:1057B0006068696920F48000084360600020DBE7CE
:1057C0000010024000700040400442422DE9F047C2
:1057D0000F46050061D0434E306800F00700B84224
:1057E00009D2306820F0070038433060306800F09C
:1057F0000700B84251D128683B4C810712D54007B9
:1058000003D5606840F4E06060602878000703D545
:10581000606840F4605060606068A96820F0F00043
:10582000084360602878C00728D06868012810D035
:105830002168022810D0890700292EDA616821F03A
:10584000030101436160FFF791FA804641F2883914
:105850000DE021688903EFE78901EDE7FFF786FA9C
:10586000A0EB0801494502D90320BDE8F087606834
:10587000696800F00C00B0EB810FEFD1306800F0E8
:105880000700B8420BD9306820F007003843306079
:10589000306800F00700B84201D00120E5E7287821
:1058A000400705D56068E96820F4E060084360605F
:1058B0002878000706D56068296920F4605040EA1E
:1058C000C100606000F058F86168084AC1F3031134
:1058D000515CC8400649086006480068FFF76CFB49
:1058E0000020C2E70020024000100240E4DB000874
:1058F000C0000020B80000200F2202600C4A53684C
:1059000003F003034360536803F0F00383605368BC
:1059100003F4E063C36052684FF4E06303EAD20229
:1059200002610448006800F007000860704700004A
:105930000010024000200240044805490068496800
:10594000044AC1F30221515CC8407047C0000020E6
:1059500000100240F4DB000804480549006849686B
:10596000044AC1F3C221515CC8407047C000002006
:1059700000100240F4DB000812A185B00FC98DE8C9
:105980000F0014A0144A006804905168134801F0F5
:105990000C03042B10D0082B0ED1C1F38343C90391
:1059A0001DF803000AD5516804AAC1F34041515CB7
:1059B0000A4A5043B0FBF1F005B07047084948432C
:1059C000FAE7000002030405060708090A0B0C0D9C
:1059D0000E0F1010010200000010024000127A00A9
:1059E00000093D002DE9F84F040070D02078C04D2B
:1059F000C00749D06868C0F38100012807D06868F3
:105A0000C0F38100022809D16868C00306D5286860
:105A1000800339D560680028E7D035E06068B0F5CC
:105A2000803F0BD010B1B0F5A02F11D0286820F422
:105A300080302860286820F4802002E0286840F444
:105A400080302860606890B1FFF790F906460AE060
:105A5000286840F480202860F0E700BFFFF786F94F
:105A6000801B642873D828688003F7D50CE0FFF703
:105A70007DF9064605E000BFFFF778F9801B642832
:105A8000F0D828688003F7D420789A4E80074FF02A
:105A900001094FF0000839D5686810F00C0F07D0E5
:105AA0006868C0F38100022809D16868C00306D481
:105AB0002868800714D52069012808D110E02069E2
:105AC000B0B1C6F80090FFF751F9074605E00AE1CA
:105AD000FFF74CF9C01B0228C4D828688007F7D507
