:020000040800F2
:10000000008C0020DD010008237E00088F6D0008B1
:10001000217E0008891A0008D7A800080000000007
:100020000000000000000000000000004501000882
:100030008D1C00080000000089010008518B000899
:10004000F7010008F7010008F7010008F7010008B0
:10005000F7010008F7010008F7010008F7010008A0
:10006000F7010008F7010008F7010008D91B000894
:10007000F7010008F7010008F7010008F701000880
:10008000F7010008F7010008B5090008ADA700084E
:10009000B9A70008F7010008F7010008AD3600080D
:1000A000F7010008BD910008F7010008F7010008FA
:1000B000F7010008F7010008F7010008F701000840
:1000C000F7010008F7010008F7010008B5880008EB
:1000D000F70100085995000865950008F701000828
:1000E000F7010008F7010008F7010008F701000810
:1000F000F7010008F7010008F7010008F701000800
:10010000F7010008F7010008C9910008F70100088D
:10011000F7010008F7010008F7010008F7010008DF
:10012000F7010008F7010008F7010008F7010008CF
:10013000DFF80CD000F0BAFB0048004769C30008A4
:10014000008C0020224B19680868B0E8F00F80F39B
:100150000988BFF36F8F4FF0000080F311884EF0D5
:100160000D0E70470000000006480068006880F32C
:10017000088862B661B6BFF34F8FBFF36F8F00DFA1
:1001800000BF00BF08ED00E0EFF30980BFF36F8F01
:100190000F4B1A6820E9F00F106008B54FF05000BF
:1001A00080F31188BFF34F8FBFF36F8F0DF062FFA5
:1001B0004FF0000080F31188BDE808401968086816
:1001C000B0E8F00F80F30988BFF36F8F704700BF6E
:1001D000E4000020EFF305807047000006488047E8
:1001E00006480047FEE7FEE7FEE7FEE7FEE7FEE71C
:1001F000FEE7FEE7FEE7FEE7D18C000831010008CC
:10020000202A04DB203A21FA02F00021704721FA6B
:1002100002F3D040C2F120029140084319467047D2
:1002200040EA01039B0703D009E008C9121F08C078
:10023000042AFAD203E011F8013B00F8013B521EF8
:10024000F9D27047D2B201E000F8012B491EFBD26F
:1002500070470022F6E710B513460A4604461946D1
:10026000FFF7F0FF204610BD2DE9FE4F804681EAE2
:100270000300C00F0C46009021F0004123F0004520
:10028000B8EB0200A94105D24046214690461C46E3
:100290000B46024623F00040104347D0270DC7F31A
:1002A0000A00C3F30A510290401A019040286BDA09
:1002B000C3F3130040F4801B0098924620B1002342
:1002C000D2EB030A63EB0B0B01985946C0F14002D5
:1002D000504600F004FA06460D4650465946019A2B
:1002E00000F00CFA10EB08006141002487EA11527B
:1002F00084EAE7731A4340D0009A62B3019A012A54
:100300004FEA075215DC001B61EB02014FF000427F
:1003100002EA0752CDE90042001C41F58011324645
:100320002B4600F00CFA03B0BDE8F08F40462146A2
:10033000F9E7001B61EB0201001C41F58013001876
:100340005B412018A2F5001747EB030140EAD57086
:10035000B6196D4111E06D084FEA360645EAC075E1
:100360004FEA0752001B61EB0201001C41F58011AE
:1003700049084FEA30000019514132462B4603B07C
:10038000BDE8F04F00F0CCB90098012240000023F6
:10039000D0EB020263EBE073009821464FEAE07471
:1003A000B8EB000061EB0401E9E783F000435BE791
:1003B00081F0004158E72DE9FE4F81EA030404F083
:1003C000004421F0004100944FF0000B23F0004363
:1003D00050EA01045ED052EA03045BD0C3F30A542E
:1003E000C1F30A552C44A4F2F3340194A0FB025447
:1003F000C1F3130141F48011C3F3130343F48013D9
:1004000001FB024400FB034E840A970A44EA81542C
:1004100047EA8357A4FB076802958D0A05FB078509
:100420004FEA932C04FB0C542705029D4FEA065813
:1004300047EA1637B5EB08056EEB070C870E920EF0
:1004400047EA811742EA8312A7FB0201B6EB0B01D0
:1004500064EB00042B0D43EA0C335E1844EB1C5094
:10046000DA465146E7FB0201C5F313044FEA0B33AA
:1004700043EA14534FEA0432019C43EA0603A4F111
:100480000C040294009CCDE900B400F058F903B0CC
:10049000BDE8F08F00200146F9E72DE9F04D81EA33
:1004A000030404F0004B21F0004514464FF0000A0D
:1004B00023F0004150EA050220D054EA01021DD089
:1004C000C5F30A570246C5F31303C1F31300C1F382
:1004D0000A5640F4801543F48013A7EB0608101B5E
:1004E000D64608F2FD3873EB050002D308F1010887
:1004F00001E092185B41B8F1000F03DA00200146D9
:10050000BDE8F08D00204FF48011064684460EE0D1
:10051000171B73EB050705D3121B63EB050306439B
:100520004CEA010C49084FEA300092185B4150EA4E
:100530000107EDD152EA030012D082EA040083EAF7
:100540000501084305D0101BAB4106D20122002350
:1005500006E000224FF0004302E06FF0010253106A
:100560001AEB06004CEB085110EB0A0041EB0B01B3
:10057000BDE8F04D00F0D4B870B521F0004303435E
:100580000CD0C1F30A550024D5EB040564EB040339
:10059000D617AD1AB34102DB0020014670BD20180A
:1005A00041EB025170BD0EB5C10F80EAE070084406
:1005B000CA07002140F233438DE80E000A460B467D
:1005C00000F0BDF803B000BD0EB540F2334102911A
:1005D0000021CDE900110A460B4600F0B0F803B047
:1005E00000BD70B5C1F30A5201F000450024C1F30B
:1005F000130140F2FF3341F480119A4201DA0020E6
:1006000070BD40F233439A42A2F2334203DC5242BD
:10061000FFF7F6FD00E090402C43F1D0404270BD62
:1006200030B5041E71F1000404DB4FF00044404279
:1006300064EB0101141E73F1000405DB1C464FF04E
:100640000043524263EB0403994208BF904230BD1D
:1006500030B50B46014600202022012409E021FA92
:1006600002F59D4205D303FA02F5491B04FA02F58F
:100670002844151EA2F10102F1DC30BD2DE9F05F26
:100680000546002092469B46884606468146402401
:100690001BE02846414647462246FFF7B1FD534638
:1006A0005A46C01A914110D311461846224600F00E
:1006B00016F82D1A67EB01084F462246012000214B
:1006C00000F00DF817EB00094E41201EA4F10104C3
:1006D000DFDC484631462A464346BDE8F09F202AE3
:1006E00004DB203A00FA02F1002070479140C2F189
:1006F000200320FA03F3194390407047202A06DBB9
:10070000CB17203A41FA02F043EAE07306E041FADF
:1007100002F3D040C2F120029140084319467047CD
:1007200010B5141E73F1000408DA401C41F10001F9
:1007300092185B411A4301D120F0010010BD2DE950
:10074000F04D92469B4611B1B1FA81F202E0B0FA47
:1007500080F220329046FFF7C2FF04460F4640EA7F
:100760000A0041EA0B0153465A46084313D011468A
:1007700053EA010019D0C8F140025046FFF740FD8E
:1007800005460E46504659464246FFF7A8FF084325
:1007900005D0012004E020463946BDE8F08D002058
:1007A000054346EAE0762C4337430A986305E40A9A
:1007B000A0EB08000022FD0A44EA47540A3002D5A3
:1007C00000200146E9E7010510196941DDE9084506
:1007D00000196941BDE8F04DA2E72DE9F04D002375
:1007E0001A461B1A8A4103DB00200146BDE8F08D42
:1007F000C1F30A52C1F3130141F480154FF0000B0D
:10080000D10702D100186D41521E0027044640F264
:10081000FF11384601EB620A3E4680460246002040
:100820004FF48011FFF7ECFCC2197141BB1846EB85
:100830000100B4EB030C75EB000C04D3E41A65EB78
:10084000000517460E46241908F101006D41804647
:100850003428E3DDF91946EB0600091BA84103D251
:100860004FF0FF32134601E0002213461BEB070056
:1008700046EB0A51BDE8F04DFFF752BFC1F30A52F3
:10088000C1F3130140F2FF3341F480119A4202DABE
:1008900000200146704740F233439A42A2F23342AD
:1008A00002DC5242FFF7ACBCFFF719BF064C074D04
:1008B00006E0E06840F0010394E807009847103430
:1008C000AC42F6D3FFF738FCFCC901081CCA01088A
:1008D00070B58C1810F8015B15F0070301D110F802
:1008E000013B2A1106D110F8012B03E010F8016B2F
:1008F00001F8016B5B1EF9D12B0705D40023521EB2
:100900000DD401F8013BFAE710F8013BCB1A921C19
:1009100003E013F8015B01F8015B521EF9D5A14217
:10092000D8D3002070BD000070B50121114804F03B
:1009300005FC012816D000220F481049002402703F
:100940004B68C3F3C005AA4212D045786D1CEDB2C6
:100950004570192D0BD3447032B143F4801040F030
:10096000080003E00122E7E723F00800486070BDBB
:10097000447070BD0010014070020020B486002059
:10098000704700001FB500200190029003900120E5
:1009900000906946044804F0D5FA02220021034879
:1009A0000DF086F81FBD000000100140700200200D
:1009B00070470000014803F06ABE00009003002069
:1009C00070B5044600688168C943C9071CD18168B5
:1009D00021F00101816004F0BBFB05460FE000BF80
:1009E00004F0B6FB401B022809D9A06A40F01000B1
:1009F000A062E06A40F00100E062012070BD206862
:100A00008068C043C007EBD0002070BD10B5014620
:100A1000406A826A12F0500F05D0006A026BBDE88E
:100A2000104008461047816A41F4007181620168F4
:100A30008968C1F3424107290CD1017B51B9816A10
:100A400021F480718162816AC90403D4816A41F012
:100A50000101816203F018FE10BD10B5406A816A81
:100A600041F040018162C16A41F00401C16203F0BA
:100A70000DFE10BD10B5406A03F007FE10BD00006A
:100A8000F8B500260446009600688168C943C90786
:100A900028D0816841F00101816013481349006842
:100AA000B0FBF1F000E0401E00900028FBD104F004
:100AB0004FFB054611E000BF04F04AFB401B022833
:100AC0000BD9A06A40F01000A062E06A40F001007B
:100AD000E06284F824600120F8BD20688068C0438B
:100AE000C007E9D10020F8BDE000002040420F001F
:100AF00070B50221104804F021FBA0B100220F487C
:100B00000F49002402704B68C3F38045AA4210D0FD
:100B100045786D1CEDB24570192D09D3447022B192
:100B200043F4802003E00122E9E723F480204860B9
:100B300070BD447070BD0000000C014072020020C6
:100B4000B486002010B504A000F06AF809480849EE
:100B500081600949C16010BD416D70547970652094
:100B60002D2D2D2054444638353431200D0A0000F7
:100B70001D910008245F0020559100082DE9F041E7
:100B80000020164D164E044668710127305D06F0B0
:100B9000CBF970B16879315D28B1A9702C7111A0C1
:100BA00000F03EF809E069700EA000F039F86F71AE
:100BB000EC70641CE4B2042CE8D3E878042808D074
:100BC0000749091D51F8200000B180470120BDE808
:100BD000F0810BA000F024F80020F8E7245F00204B
:100BE00054EF0008416D7041646472436865636B43
:100BF000204F4B202D2D2D202558200D0A000000C0
:100C0000416D7041646472436865636B206661691D
:100C10006C200D0A00000000002040688047FEE7BD
:100C20000FB410B5FEB081AB40F2F5116846809A62
:100C300009F076FE084C4FF0FF3120680BF0AEFC57
:100C4000694606A009F05CFE20680BF01DFD7EB031
:100C500010BC5DF814FB0000340000202573000078
:100C60002DE9FC410546092275A10CF007FF01277B
:100C7000764C012800D12770042275A128460CF07B
:100C8000FDFE002601281AD1A6700F22691D7248A8
:100C90000CF004FF052271A16F480CF0EFFE012853
:100CA00000D1A770207828B94FF403720A210320DD
:100CB00007F01AFA13226BA1012009F0FDFD0622AC
:100CC0006DA128460CF0DAFE4FF48678012813D087
:100CD00006226BA128460CF0D1FE09226AA1284603
:100CE0000CF0CCFE012817D009226AA128460CF08E
:100CF000C5FE012815D018E057480C2205F109015E
:100D00000D380CF0CBFE20780028E6D142460A21AF
:100D1000032007F0E9F9E0E7687A302805D1277168
:100D200003E0687A302800D1267104225CA12846AD
:100D30000CF0A4FE01280CD147480C22E91D0D3807
:100D40000CF0ACFE207820B942460A21032007F0BF
:100D5000CBF9082254A128460CF090FE014605F17B
:100D600008008046012907D0082252A128460CF02D
:100D700085FE01280FD017E00146012268460CF0DD
:100D80008DFE9DF80000302801D1E67067700120CB
:100D900007F026FF08E06670012007F021FF0E2211
:100DA00047A1012009F088FD082249A128460CF03E
:100DB00065FE012807D0082248A128460CF05EFEF7
:100DC00001280FD017E00122414601A80CF066FE71
:100DD0009DF80400302801D16670E770012007F00B
:100DE000FFFE08E0E670012007F0FAFE0E2234A1B3
:100DF000012009F061FD08223BA128460CF03EFECF
:100E0000012801D107F0ECFE05223AA128460CF09A
:100E100035FE012801D107F0E3FE082237A128465C
:100E20000CF02CFE012809D126700E2224A109F015
:100E300043FD13220BA1012009F03EFDBDE8FC811A
:100E400044415441494E4954200000003A020020D8
:100E50004756455220000000415F0020505930376E
:100E60003200000041542B4220534C444E20445346
:100E7000505F313643480D004846434F4E4E2000E8
:100E8000484644495343200041324450434F4E4E5C
:100E900020000000413244504449534320000000E8
:100EA000474C424420000000535050434F4E4E20C8
:100EB00000000000535050444953432000000000FC
:100EC00041542B4220424C4541445620310D0000F4
:100ED000424C45434F4E4E2000000000424C4544DA
:100EE00049534320000000005350504441544120D6
:100EF00000000000474F544120000000534E4B4972
:100F00004E49542000000000704700001FB500202B
:100F1000019002900390022000906946044804F07A
:100F200011F80222002103480CF0C2FD1FBD000091
:100F3000000C0140720200202DE9F05F0C46824651
:100F40004FF021094FF0110BB64F002601F10508B3
:100F5000F4E000BF02F034FD94F86500062864D088
:100F600006DC0628F4D2DFE800F01029333D4C56A9
:100F7000202873D004DC102862D01128E8D175E055
:100F800021286CD03028E3D143E10122214650468C
:100F900009F08DFC2078AA2804D0412808D04428E4
:100FA000D6D107E0012084F865009F480670C5E0AF
:100FB000022000E0032084F86500BFE00122611CEC
:100FC000504609F074FC6078552844D11020F2E7AF
:100FD0000122611C504609F06AFC607854283AD11D
:100FE000042008E00122611C504609F060FC607892
:100FF000422830D1302084F8650000BF84F8646056
:101000009CE00122A11C504609F051FCA0782D283B
:1010100021D10520EFE70122E11C504609F047FCF1
:10102000E078422817D10620E5E70122211D50462D
:1010300009F03DFC207920280DD184F86590DDE78A
:101040000122A11C504609F032FCA07884F864000B
:10105000C01E4E2804D384F865606FE036E04BE094
:1010600072A0FFF7DDFD84F865B067E094F86400D6
:10107000E11CC01E82B2504609F019FC002823D0A2
:1010800094F86400401EC1B2204603F0F3F994F8CE
:101090006420611E515C884212D139785046514516
:1010A00007D000F011FD94F86420214664480CF04C
:1010B000F5FC94F8651063A0FFF7B2FD00F0F4F8BA
:1010C00084F8656084F86460BDE8F09F94F864106B
:1010D00001224144504609F0EAFB94F8640010F8FC
:1010E0000810202901D184F86590401CC0B284F812
:1010F0006400962822D9AEE794F864100122414496
:10110000504609F0D4FB0A2253A1601D0CF0B6FC36
:1011100001281AD00A2253A1601D0CF0AFFC01284F
:1011200013D094F8640010F808100D296DD0401CFD
:101130005FFA80F084F8640064288CD8504609F087
:10114000B3FB00287FF406AFBEE7617C00202C29AA
:1011500002D0A27C2C2A19D1E27B202A16D12C297C
:1011600003D0A27C2C2A06D010E0207C87F803B0A4
:101170003138C0B20AE0207CD022303800EB800049
:1011800002EB400008441221C0B2F97094F86410D8
:1011900000F10E02914235D390B311F808000D28EA
:1011A0002BD139785046514501D000F08DFCF878AC
:1011B00021182348CA78491C0CF070FC2CA0FFF7BA
:1011C0002FFD002506E01E48415D2DA0FFF728FDFC
:1011D0006D1CEDB2F8782044C078A842F3D8184DC1
:1011E000A878401EC1B2284603F044F9AA78691EC7
:1011F000515C884201D100F057F884F864602AE716
:1012000000E002E0491CC8B294E7601DFFF728FD2A
:10121000F3E70122A11C504609F049FBA07800F039
:1012200037FD18E742020020D00000200D0A2052AE
:101230007820756461746120686561643A200000FB
:10124000CB5F00200D0A2052782075646174612004
:101250003A20257800000000535050444154414941
:101260004E440000424C4544415441494E44000024
:101270000D0A2052782064617461203A2000000039
:1012800020257800704710B54FF4E1342146002046
:1012900007F07FFC2146012007F07BFC2146BDE8DA
:1012A0001040022007F075BC2DE9FE43FE4EB41D30
:1012B0003079F02802D2FF2000F06CFB3279002058
:1012C00004230321F94D4FF001080B2A70D01BDCD9
:1012D000012A29D0F64F082A6BD00A2A22D1727926
:1012E0004FF0020C132A72D024DCF249132A19D2CF
:1012F000DFE802F0486ED1EEEDECEBEAE9E8E7E674
:10130000E5E4E3181818D9000F2A75D0FF2A09D18F
:10131000E549F2786A394B7B9A4203D181F869003A
:1013200081F86800BDE8FE8370790428FAD10322B1
:1013300001213FE0882A70D018DC842A6ED00CDCB2
:10134000D948142A00F1690069D0152A68D0822A88
:1013500067D0832AE6D120785BE2852A7ED0862A70
:101360007DD0872ADED12078072152E2893A0C2AE3
:10137000D8D2DFE802F0F0060606EFEEED0606C171
:10138000C4ECCFE795F88A0C002810D1207800280B
:101390000DD0012810D00228C4D17868000304D4ED
:1013A00085F88ACC607885F88B0C4FF40072F4E1F4
:1013B00035E2D4E20320D2E17868000304D485F852
:1013C0008A8C607885F88B0C4FF48072E5E180E0C0
:1013D000207878B1012810D0022815D0032821D018
:1013E000042827D0052840D006289BD1BDE8FE431D
:1013F00001F0AABE0122D0E1AEE27868000391D4E8
:10140000BDE8FE4300F0D6BC607800288AD0796839
:10141000090333D400F01AFE30E05DE1CAE0F2E0E7
:10142000E0E065E060780028ABD07968090325D456
:10143000012121E060780028A3D07968090301D454
:1014400001F002F860786FF4FE7101EB402082B287
:101450000A21032006F048FE607801E0FCE020E16C
:101460006FF0FC0101EB40201BE06078002888D081
:101470007968090302D4002100F010FD6078C107EB
:101480004FEA4010A0F120007DD000BF40F40040A2
:10149000A5F8860C46E77868000328D42078A11CBC
:1014A00023E082B279E17868000320D47E480522E7
:1014B000A11C75300CF0F2FAF0E78AE172E153E119
:1014C00031E11BE10BE1FFE0F6E0C8E0B9E043E009
:1014D00018E0786800030AD473480522A11C7A300A
:1014E0000CF0DCFA70492078753101F03BFAFDE030
:1014F00020780CEB0020D4E72078122189E12078B5
:10150000132186E17868000320D460788DF800000C
:10151000A0788DF80100E0788DF80200E07921795B
:10152000A27900EB01606179090401EB0221084412
:101530000190607A217A6A4600EB0120ADF808003C
:10154000207800F00101400800F0CCFFCEE044E03C
:1015500062E15CE13AE1CEE07868000352D4607861
:101560008DF80000A0788DF801002079E17800EB7B
:101570000120ADF80200207A6179E27900EB016088
:10158000A179090400E023E001EB02210844019065
:10159000A07A617A6A4600EB0120ADF80800207B52
:1015A000E17A00EB0120ADF80A00207800F01F017D
:1015B000400925E02078C143C90602D003EB002092
:1015C0006FE700F03F01202920F01F00FFF45EAF1D
:1015D00040F40040A5F8880CA4E62078C143C90671
:1015E000EFD09FE6796809030CD4A178627801EB0B
:1015F000022101812179E27801EB0221418119E088
:1016000000F0B8FD72E0796809036FD46178017069
:10161000A17841702179E27801EB02214180217AA1
:101620006279E37901EB0261A279120402EB0322F1
:101630001144416020781C4A00F01F0140096932C2
:10164000DEE77868000351D4A078617800EB0121CF
:10165000207800F0CDFB49E020780521D9E07868BA
:1016600000030ED4207828B92179E27801EB022119
:10167000A5F8D81BA178627801EB022189B201F0AC
:1016800081FB7079217800EB012082B20A210320CE
:1016900006F02AFD207800289ED1BDE8FE4300F028
:1016A0004DBA20780621B4E0CB5F002018710020ED
:1016B000B48600203F0200207868000316D46178C9
:1016C000207801F095FA11E0786800030ED4617873
:1016D000207801F0ABF909E02078082199E07868DA
:1016E000000303D42078611C01F01EFB707921787F
:1016F00000EB0120D5E6207809218AE0207885F8E2
:10170000980C617885F8991C01F05EFD14E07279FF
:101710000A21032002F5807221E072790A21032058
:1017200002F500721BE02078012808D00228B3D10E
:101730008870601C05F08EFD0028EED0E7E7887009
:10174000601C05F087FD0028E7D0E01D07F03EF99A
:101750000028DCD172790A21032002F5407203B01F
:10176000BDE8F04306F0C0BC22788148012A0CD0C5
:10177000022A91D10078012811D00B227DA103B05B
:101780000120BDE8F04309F097B800784FF4867265
:10179000012802D048780028C9D10A210AE64FF46E
:1017A0000372FAE720780128C1D17868000302D4D7
:1017B000607809F091F87079217800EB012082B20D
:1017C0000A21032006F090FC0622E6E720780D218E
:1017D0001FE02078012802D0022806D00BE001F09B
:1017E000B1F9786840F4002004E001F0E5F9786888
:1017F00020F4002078607079217800EB012082B21B
:101800000A21032006F070FC4FF47E42C5E72078E1
:101810000E2101EB002044E620780F21F9E77279D0
:10182000052ABFF437AEDFE802F0032D3D5B7D00F3
:1018300026784FF47F42012E0ED0022E16D0812E34
:1018400097D185F88B0CC5F8900C85F88C0C85F831
:101850008D0C85F88E0C62E095F88A0C80B9607862
:1018600070B185F88B0C85F88A1C5BE595F88A0CBD
:1018700030B9607820B185F88B0C85F88A3C51E549
:101880000B2197E595F88A0C0328EED1217895F87D
:101890008B0C8142E9D14FF4E05102EB0020C5F8F6
:1018A000901C1BE095F88A0C0328DED1207895F86F
:1018B0008B3C9842D9D1617885F88C1CD5F8900C76
:1018C000491C00F13F04B1EB941F02D300F03F002C
:1018D00000E0402085F88D0C02EB032082B2CFE7B8
:1018E00095F88A0C0428C0D1207895F88B1C884282
:1018F000BBD120796178E27800EB0160A17809041E
:1019000001EB02210844C5F8900C207A6179E27954
:1019100000EB0160A179090401EB02210844C5F83C
:10192000940CFFE495F88A0C04289ED1207895F851
:101930008B1C884299D1617895F88C0C814294D1A6
:101940000F4901EB8010B17809398AB2A11C0CF063
:10195000A5F885F88E8CE5E40E220AA10FE77079D0
:1019600001288CD1786840F002007860DAE4000049
:101970004202002041542B4220475645520D0000A0
:101980001861002041542B4220534F544120310D07
:101990000A00000070B5304C4121304A21705421BA
:1019A00061703E21A1700121E170127800250AB119
:1019B000217105E02A49097809B10221F8E725716A
:1019C00065710921A1718021E17125720D26667270
:1019D0005521A172AA21E172062121731E497B3192
:1019E000C9786173A0731C4805210A3002F042FDDA
:1019F000E0731C482674007870B101282BD11122A5
:101A00001549194805F0A3F914200CF035FABDE882
:101A1000704016A0FFF704B91848194905700278FC
:101A2000A3189B7A8B54521CD2B20270072AF6D3A9
:101A300007220270D2B28D54521CD2B20270202AF8
:101A4000F8D320220E490F4807F022FEBDE870406F
:101A500002200CF011BA70BD505F00203D02002042
:101A60003B02002042020020A00500200D0A205465
:101A7000782061636B203A20000000003F020020C4
:101A8000A006002000070020FEE70020704700208D
:101A90007047000070B50A480A4E0024D0F8B852CA
:101AA000285D3055295D002008F00EFFA878401E03
:101AB000A04203DD641CE4B2202CF1D3002070BDF1
:101AC000000700207003002070B50546014612A0F3
:101AD000FFF7A6F8154890F88A0C00281BD1144C83
:101AE0006078854201D1611C04E0A078854204D170
:101AF0000F49891C0E4801F0D3FE207838B1022826
:101B000007D04FF0FF30BDE8704006F064BF0948D1
:101B1000F9E70948F7E770BD0D0A204368616E6771
:101B2000655F556172742025640000001871002003
:101B3000420200205555AAAA55AA55AA0B490C4A9B
:101B40000020B1F8B41B00BF32F81030994207D220
:101B5000084940F20D1208700A21032006F0C4BAA9
:101B6000401CC0B22828EFD970470000187100202F
:101B700004C701084D0200202DE9F0410A4802F097
:101B800091FC00270226094C012518B127706570C9
:101B9000A67006E0064802F085FC10B1267065705C
:101BA000A7702570BDE8F0815555AAAA4202002011
:101BB00055AA55AA10B50024204600F005F8641C6B
:101BC000E4B2042CF8D310BD024901EB001006F07A
:101BD00065BB000028030020014802F0CBBF0000D5
:101BE000C003002030B590F840500124AC40C56BD4
:101BF0006C60046863604368102B036803D09960CD
:101C00000068C26030BD9A600068C16030BD704736
:101C10001B4810B50078062830D11A480021421E12
:101C2000047813789C4228D043785B1CDBB2437065
:101C3000192B23D341701448436844B143F4002165
:101C4000416001201070044600F07CFF06E023F4A0
:101C5000002343601170022400F0AEFF0E2000EB61
:101C600004220A21032006F03FFA0A21BDE81040B1
:101C70004FF47E42032006F037BA417010BD0000D9
:101C8000680200207F020020B48600207047000018
:101C900070B5274C4FF4FA75042832D015DC0028B3
:101CA00026D0012825D0022827D0032820D10022C1
:101CB0004FF400663146204603F045FA284606F008
:101CC0008FFF0122314620462DE005281DD0062831
:101CD0000ED010280CD10024204602F02FFA01F07B
:101CE0006FFE082006F07CFF641CE4B2102CF3D9D0
:101CF00070BDBDE8704009F04BBE00224FF4805625
:101D0000D8E700224FF40056D4E70A4E4FF480740F
:101D100000222146304603F016FA284606F060FFFE
:101D2000012221463046BDE8704003F00CBA0000A5
:101D3000001401400008014010B5044601F006F807
:101D400000F09EFD00F056FB00F0E4F800F094F87F
:101D50000CB101F001F900F0E5FEBDE8104000F023
:101D600087BF0000074810B5002141704180818085
:101D70000170817100F008F80121BDE810400846AB
:101D8000FFF7DABF9C7D002070B5084D002441F6B6
:101D9000044600BF05EBC4003044082204490BF0A0
:101DA0007DFE641CE4B2102CF4D370BD18610020D9
:101DB000BEC401080D4810B5002180F8851C02F052
:101DC0002FFB01210846FFF7B7FF0121084601F06C
:101DD00051FA00220A21032006F086F90A21BDE803
:101DE00010404FF47E42032006F07EB918710020A7
:101DF0007CB5054600200C460190122D36D8002DEA
:101E000034D01B4901A8092D30D000BF4FEA14621D
:101E10008DF804204FEA14428DF805204FEA142271
:101E20008DF806208DF8074008D2009031F8152073
:101E30004FF000014FF0040308460EE04FF0090296
:101E4000B5FBF2F302FB13524FF0040331F81220FA
:101E500000904FF000014FF0010006F0ABFC054888
:101E600000EB450000F58050A0F8904B7CBD0000D1
:101E700078C401081861002000200749024600BF0D
:101E800001EB400303F58053401C80B2A3F8902B74
:101E90001128F5D370470000186100202DE9F041AA
:101EA0000E46102825D820B3401EC7B2184807EBAD
:101EB0004701002400EBC115012E1CD004EB4400A7
:101EC00005EB800090F8901341F0010180F8901329
:101ED00004EB440005EB80022146384602F56472AB
:101EE00000F048F9641CE4B2202CE5D30120BDE8E1
:101EF000F0810020FBE7642006F07EFE04EB440046
:101F000005EB800090F8901321F00101DEE700005E
:101F1000186100202DE9F0470022DFF858A0164D87
:101F2000164601274FF4166440F2DC5C4FF08D0931
:101F300002EB420300200AEBC31300BF00EB400199
:101F400003EB810181F8907381F89163A1F89243CA
:101F500055F82080C1F89483401CA1F898C380B242
:101F6000A1F89A932028E9D3521C92B2102ADFD309
:101F7000BDE8F0871861002018C501082DE9F0417F
:101F80002D4CB4F8862C100425D52C4D2E4F4FF037
:101F900000062878401CC1B22948297003782948D6
:101FA00000780343387818D0042902D328B10228D6
:101FB00003D008290FD301280DD104202E7000EB87
:101FC000022030E0B4F8860C401CA4F8860CC00651
:101FD00001D1A4F8866CBDE8F081042902D028293B
:101FE00004D00DE020B1022802D0F4E701280AD184
:101FF000142000EB022082B20A21032006F074F8BC
:102000002878082803D3387838B1022805D02878F2
:102010003C28E0D338780128DDD12E7094F8860C66
:10202000152101EB002082B20A21032006F05CF8A2
:102030000028C7D1CFE70000187100204B02002014
:102040003B0200203C02002042020020FEB5102886
:1020500024D818B3401EC5B2012000218DF800001D
:102060008DF801104FF41660ADF8020040F2DC501C
:10207000ADF808008D200A4EADF80A000C4600BFEE
:1020800056F8240001906A462146284600F072F86E
:10209000641CE4B2202CF3D30120FEBD0020FEBD61
:1020A00018C501082DE9F0412D4CB4F8882C100416
:1020B00025D52C4D2E4F4FF000066878401CC1B23C
:1020C000294869700378294800780343387818D084
:1020D000042902D328B1022803D008290FD30128EC
:1020E0000DD104206E7000EB022030E0B4F8880CB3
:1020F000401CA4F8880CC00601D1A4F8886CBDE887
:10210000F081042902D00C2904D00DE020B102286E
:1021100002D0F4E701280AD1142000EB022082B299
:102120000A21032005F0E0FF6878082803D33878F7
:1021300038B1022805D068781928E0D3387801280A
:10214000DDD16E7094F8880C152101EB002082B26D
:102150000A21032005F0C8FF0028C7D1CFE70000FF
:10216000187100204B0200203B0200203C0200209E
:10217000420200202DE9F04192B014460D46064679
:10218000102830D21F2D2ED261884FF49652002095
:1021900005F079F86080454A0020616805F073F821
:1021A0006060218940F6B832002005F06CF820818B
:1021B00061894FF4C862002005F065F87107090FC6
:1021C0003B4A80B201EB1511608132F8111005F025
:1021D0000F0202EB820211441FFA81F82178C9072D
:1021E0000DD0617819B1002012B0BDE8F0810090E7
:1021F0002389618802A8626801F06CF90FE04FF44E
:10220000967006F0F9FC0020CDE90200CDE904004B
:102210002849CDE90800CDE90601CDE90A0020787A
:10222000C0060BD5039981F000410391059981F017
:1022300000410591079981F000410791DDE9020114
:102240000CAA06F083F9DDE904010CAF3A1D06F093
:102250007DF9DDE906010EAA06F078F9DDE908014D
:102260000FAA06F073F9DDE90A0110AA06F06EF96B
:10227000082E4FF0050342464FF00001009701D2AF
:10228000002000E0012006F070F90B4906EB460043
:1022900001EBC01005EB450100EB810094E80E0056
:1022A00000F5647080E80E0001209DE700770100D2
:1022B00098C501080000F03F186100202DE9F047A3
:1022C000494D4A4C4FF0040AA8784FF00309401CCE
:1022D000C7B2AF7094F88B0C95F801C00026D4F803
:1022E000901C09EB00230AEB0022BCF1050F78D209
:1022F000DFE80CF0030B193A58009AB20B210320C7
:1023000005F0F2FEAE70012006E039B192B20B2169
:10231000032005F0E9FE0220687062E00A2F60D316
:10232000AE709AB21BE094F88E0CA0B194F88C0CAD
:102330003F31401CB0EB911F02D385F8019007E0BC
:10234000AE7084F88C0C92B20B21032005F0CCFE09
:1023500084F88E6C45E0322F43D3AE7092B20B21DD
:10236000032005F0C1FE3CE00023214A184603E0AB
:1023700012F8017B401C3B448142F9D8D4F8940CFC
:10238000984202D185F801A02BE06E70AE70C4F8BF
:10239000906C84F88C6C84F88D6C84F88E6CC4F826
:1023A000946C1EE000F0F2FDD8B101216E70084679
:1023B00000F060FF94F88B0C84F8850C04F68844D8
:1023C00002F02EF8E670A66026716671A6714FF4D1
:1023D00002420B210320E66005F086FE0120BDE8E5
:1023E000F0870020FBE700004E020020187100205B
:1023F00018610020F0B50021124D012403220B4684
:10240000142644F6206700BF01EB410005EBC00035
:10241000491C80F8104280F81C4280F8112280F894
:102420001D2280F8122280F81E22C0F82072C0F807
:102430001462A0F8183289B2A0F824321029E3D32C
:10244000F0BD0000186100203EB510281DD8E0B195
:10245000401EC4B201208DF8000003208DF8010059
:102460008DF80200142000210190ADF808106A4692
:10247000204600F037F844F6206001906A460121BA
:10248000204600F02FF801203EBD00203EBD000098
:1024900070B506460020114C012900D1207021782A
:1024A0000F4D11B1012914D110E0304600F0BEF9F2
:1024B00078B185F8856C01F0B3FF4FF480720B2181
:1024C000032005F011FE0120207002E095F88B1C1E
:1024D00009B1002070BD2070012070BD4E020020A7
:1024E000187100202DE9F04FB5B08B460546144613
:1024F00014212BA8FDF7ADFE102D2FD2BBF1020F3A
:10250000FBD2BB4805EB450100EBC1010BEB4B00D7
:1025100001EB8000309090F810022178C0F3001099
:10252000C1F3001148402A90B24A0020616804F0CB
:10253000AAFE0246606020780CAEC3070DF1580A6F
:102540000DF180096FD06078002703214FF0040857
:10255000012804D002285ED003286ED08DE0A07838
:10256000012806D003280AD0052814D007282FD028
:1025700083E02389594602A801F024FA63E0238905
:10258000594602A801F0A0FB2389594630466268EB
:1025900001F09AFB93E0CDE900178846238959465C
:1025A00002A801F06FFC238959463046626801F0A9
:1025B00009FACDE90087238959465046626801F03F
:1025C00061FC238959464846626801F0FBF97CE0CA
:1025D0000020CDE900802389594602A801F052FC71
:1025E0000127CDE90087238959463046626801F00A
:1025F00049FC0020CDE90080238959465046626895
:1026000001F040FCCDE900872389594648466268BD
:1026100001F038FC59E0A078012805D002280DD03F
:10262000032817D029E06CE02389594602A801F05D
:102630007DFA304601F016FC41E017E02389594647
:1026400002A801F073FA238959463046626801F006
:10265000B9F934E02389594602A801F067FA2389C1
:1026600059463046626801F061FA28E0A0780128F6
:1026700007D002280BD0032811D0002035B0BDE8C8
:10268000F08F2389594602A801F01EFBD1E7CDE95E
:1026900000172389594602A801F0F4FBD3E7CDE9DE
:1026A00000872389594602A801F0ECFB0120CDE9FF
:1026B0000080238959463046626801F0E3FB5046AA
:1026C00001F0D0FB484601F0CDFB2078C0060BD5C9
:1026D000039981F000410391059981F00041059132
:1026E000079981F00041079141482A99284400F553
:1026F000805905F1010AA9B199F8DB0B012808D02E
:1027000010E04FF4967006F077FA02A801F0AAFBE9
:102710008FE700220AF0FF00114600F09BF90A2023
:1027200006F05EFA2DA833902EA832902FA8319093
:102730003148002600EB051000EBCB000DF1AC0892
:10274000CDF8040006EB860102A800EBC1072BAA16
:10275000D7E9000105F0FAFED7E9020108F1040209
:1027600005F0F4FED7E90401339A05F0EFFED7E94E
:102770000601329A05F0EAFED7E90801319A05F020
:10278000E5FE0198CDF80080082D30F816204FF0B6
:1027900005034FF0000101D2002000E0012005F008
:1027A000E4FE761CF6B2042ECCD32A9860B199F8D8
:1027B000DB0B012808D11E2006F012FA0AF0FF00F8
:1027C0000022012100F046F9309894E80E0000F54F
:1027D000047080E80E00D4E90101CDE900015A46F9
:1027E000294606A02368FEF71BFA012046E70000F1
:1027F0001861002000770100B8C501080D0A2046C5
:10280000696C74657220646174613A204368616E1A
:102810006E656C3D25642C48504C503D25782C66E7
:10282000696C7465723D25780000000010B50400E5
:1028300016D04FF4E0520B4901F00CFC00280ED0EA
:102840000121084600F016FD064941F6FC3201EB75
:10285000C40010440822091D0BF020F9012010BD0E
:10286000002010BD1861002010B58422034900200B
:1028700001F0F0FB002800D0012010BD187D0020E1
:10288000F0B500210922124F90240D46C1EBC1037F
:1028900003EB430300203B44B1FBF2F602FB1616A8
:1028A00036B128B1B1FBF2F602FB1616864203D10F
:1028B0001E1886F8944002E01E1886F89450401CBA
:1028C00080B21528E8D3491C89B21229DED3F0BDA5
:1028D000186100202DE9FC4700210C4601AF019151
:1028E000FDF772FE00251B4B2A46FDF75EFD1A4BD5
:1028F0002A46FDF7D2FDDFF864A0194E89468046CE
:102900000A2542464B460020514609F095FF01AA90
:1029100005F01CFEB4FBF5F005FB1040002136F875
:10292000102001230846009705F01FFEB4FBF5F0C8
:1029300005FB1040012336F81020002118460097AF
:1029400005F013FE641CE4B2142CDAD30120BDE8B8
:10295000FC8700000000624000003440000024407A
:10296000CAC601082DE9FC5F054600200E4601900D
:10297000122D3FD8EDB3092D3CD0C5EBC500284939
:102980000024DFF894B0DFF894A000EB40000DF1D4
:1029900004094FF0090847183178BA22002004F0E2
:1029A00072FCC0B23070FDF70FFE00225B46FDF7EF
:1029B000FCFC00221B4BFDF770FD02460B4600207D
:1029C000194909F039FF01AA05F0C0FD4046B5FBE1
:1029D000F0F108FB1151092D3AF811004FF00103F5
:1029E000204482B24FF00001CDF8009005D20020C3
:1029F00004E0FFE70020BDE8FC9F012005F0B5FDE5
:102A00003919641C16F8010BE4B281F89500142CF6
:102A1000C2D30120EFE7000000006240B8C6010801
:102A200018610020000034400000244070B50546C5
:102A300009B1012400E000240022214600F00AF838
:102A40000348284400F5805080F8DA4B70BD000040
:102A5000186100202DE9FC41044600200190174632
:102A60000D468DF80710112C42D855EA070006D103
:102A70000021204600F0F0FC0A2006F0B1F81D48C5
:102A800001AE092C06D20096042330F81420002150
:102A900008460AE00921B4FBF1F201FB12410423CC
:102AA00030F8112000210120009605F083FE012D51
:102AB0001ED1A4B1104D95F8DA0B80B94FF43062F5
:102AC000092C4FF004034FF00001009601D20020C2
:102AD00000E0012005F06EFE012085F8DA0B002FE2
:102AE00006D10A2006F07CF80121204600F0B4FC53
:102AF000BDE8FC8156C701081871002070B5054675
:102B000009B1012400E0002401222146FFF7A2FFC1
:102B10000348284400F5805080F8DA4B70BD00006F
:102B2000186100200020064901220B1803F580538C
:102B3000401C80B283F8DA2B1228F6D370470000CD
:102B40001861002010B500210846FFF7F5F80020B5
:102B50001749044600EB400201EBC202401C82F818
:102B6000104280B282F81C421028F3D300210720C3
:102B7000FFF75CFF00210820FFF758FF0D480021F8
:102B800080F8E24B80F8E14B084600F073FB00242C
:102B900000F016FF641CE0B20121FFF77FF9A4B238
:102BA000102CF5D3BDE810409220FFF793BE000033
:102BB000186100201871002010B50C4C02204FF451
:102BC0000072A077607EE0770A21032005F08CFA7E
:102BD00001210720FFF72AFF01210820FFF726FF28
:102BE000012004F88A0C04F88B0C10BD847D0020B1
:102BF0007CB5044600200D460190112C30D8002CE5
:102C00002ED0092C2CD0102204F03DFB1549C0B267
:102C10008DF807004978012903D11349085C8DF824
:102C20000700114901A81231092C06D2009031F891
:102C300014200423002108460AE00922B4FBF2F321
:102C400002FB1342042331F81220009000210120DE
:102C500005F0B0FD0548204400F5805080F8EC5B9D
:102C60007CBD0000B48600208AC4010818610020E1
:102C700010B50120084A0921C3B2B3FBF1F401FBEE
:102C80001434131803F58053401C80B283F8EC4BC6
:102C90001228F1D310BD00001861002070B5204C3F
:102CA000052094F8841C06291CD2DFE801F01B03E0
:102CB0001C1B343708F06CFE01F00AFB94F8850CFD
:102CC000022520B184F88A5C84F88B0C08E001218D
:102CD000084600F0CFFA00220A21032005F004FA8A
:102CE00084F8845C70BD94F88A1C0029FAD184F8B9
:102CF0008A0C0C48007868B903220121104605F0BF
:102D0000F3F994F8850C28B94FF47E420A21032088
:102D100005F0EAF9032084F8840C70BD0020FAE77E
:102D2000187100204602002011280BD80922B0FBA0
:102D3000F2F302FB1300044A02EBC0000822001D5C
:102D40000AF0ACBE70470000186100202DE9F04188
:102D500000240A4E0A4F0925B4FBF5F005FB10408C
:102D600006EBC00107EBC4000822001D0AF096FE26
:102D7000641CA4B2122CEFD3BDE8F081BEC40108DC
:102D8000186100202DE9F04706460D4612282FD87D
:102D900036B91848B0F8D82B002004F074FA85B280
:102DA00015484FF6FF7900EB460000F58058642087
:102DB000B8F8B41BB5FBF0F7B1FBF0F4BC4202D994
:102DC000A4F1010402E002D204F10104A4B204EB74
:102DD000C40000EB041109EA8101304600F00EF84E
:102DE000BC42EBD12946304600F008F8A8F8B45BA5
:102DF000BDE8F08718710020186100202DE9FE431E
:102E000004463BA04FF4FA5200680290002004F000
:102E10003AFA80B2FDF7D8FB0022364BFDF7C5FA2F
:102E20000022354BFDF739FB0022344BFDF735FB13
:102E300002460B460020324909F0FEFC314E07469F
:102E4000884602AD4FF00909092C16D2009536F8D4
:102E500014000021401C82B20423084605F0AAFC9D
:102E60009DF80B109DF80A00CDE900019DF809308E
:102E70009DF80820214624A019E0B4FBF9F109FBD4
:102E80001140042336F810000021401C82B20120BA
:102E9000009505F08FFC9DF80B109DF80A00CDE918
:102EA00000019DF809309DF80820214620A0FDF77B
:102EB000B7FE02AA3846414605F048FB092C06D267
:102EC00001230095002136F81420084609E0B4FBE0
:102ED000F9F109FB1140012336F8102000211846B2
:102EE000009505F042FB012005F07AFEBDE8FE8367
:102EF0000000208A0040BF400000594000003440DC
:102F000000002440F2C601080D0A2044535031202D
:102F100053696E67413A4164643D25782044617489
:102F2000613A3D25782C25782C25782C25780000D1
:102F30000D0A20445350322053696E67413A416470
:102F4000643D257820446174613A3D25782C2578CC
:102F50002C25782C257800000B4A10B54FF4FA5137
:102F6000A2F8B41B0120A2F5805300BF03EB40047C
:102F700004F58054401C80B2A4F8B41B1228F5D389
:102F8000A2F8D81B10BD00001871002010B5040075
:102F900012D04FF4E052094901F0F8F800280AD0A5
:102FA000064941F6FC3201EBC40010440822091D19
:102FB0000AF074FD012010BD002010BD1861002032
:102FC0002DE9F047584E594C0627B0880025401C83
:102FD00080B2B08094F88A1C4FF4BC724FF47F48E2
:102FE0004FF47E494FF47A73072906D2DFE801F0E7
:102FF0000407234963798800B580BDE8F0879042D3
:1030000008D301F015FA84F88A5C42460A210320AD
:1030100005F06AF894F88B0CFFF7B8FF0028ECD0A5
:10302000B58084F88A7C94F88B0C84F8850CBDE814
:10303000F04701F0F5B990420AD301F0E3F984F8C2
:103040008A5C42460A21032005F04EF8FEF7B2FEE4
:1030500094F88B0CFFF7EAFB0028CED084F88A5C4A
:1030600094F88B0C84F8850C01F0DAF9FEF766FD14
:10307000F0780028C1D100220A21032005F034F89D
:103080002DE098420DD901F0BDF984F88A5C4246E2
:103090000B21032005F028F894F88B0C0121FFF791
:1030A000F7F994F88B0C0021FFF7F2F90028A4D06F
:1030B00084F88A5CDFE7984208D901F0B9F984F80E
:1030C0008A5C42460B21032005F00EF894F88B0C25
:1030D000FFF7F4F8002890D0B58084F88A7C4A463F
:1030E0001BE0904205D301F08DF9FEF74DFE84F808
:1030F0008A5CFFF7B9FB002891D084F88A5C7CE7F2
:10310000904203D301F094F984F88A5C00F010F83F
:103110000028F4D084F88A5C0022BDE8F0470A2138
:10312000032004F0E1BF00004E02002018710020CF
:1031300010B584220349002001F028F8002800D0AF
:10314000012010BD187D002070B51E4C002584F8AC
:10315000855C01F065F901210846FEF7EDFD4FF4AD
:10316000FA50A4F8B40BA4F8D80B0020A4F58052B0
:1031700000EB400102EBC101401C81F8105280B20B
:1031800081F81C521028F3D30121084600F072F890
:103190005FF0000400F014FC641CE0B20121FEF7B3
:1031A0007DFEA4B2102CF5D300220A21032004F0E6
:1031B0009BFFBDE870400A214FF47E42032004F0DB
:1031C00093BF0000187100202DE9FE430C4606460F
:1031D000A0424BD0102E49D8102C47D8EEB3E4B300
:1031E000DFF88C9006EB460809EBC80505F5FC7185
:1031F000671E0EC98DE80E0004EB440109EBC10007
:103200006A4690F8F80101099DF8000061F3041086
:103210008DF80000F8B20021FFF764F905F501729E
:10322000F8B20121FFF75EF9002509EBC81800BFCD
:1032300000F0C6FB05EB450108EB8102E9B2F8B2EC
:1032400002F50472FEF796FF6D1CADB2202DEFD390
:1032500009EB460000F5805000E007E0B0F8B41B31
:103260002046FFF78FFD0120BDE8FE830020FBE72D
:10327000186100202DE9F041DFF874810F46044603
:1032800098F800105BA0FDF7CBFC002210216048ED
:1032900001F059FF5F4D002C2BD00124C4EBC4007A
:1032A00000EB4000461906F19501E0B2FFF75AFB2A
:1032B00096F895302246002157A0FDF7B1FC641C1A
:1032C000A4B2092CEAD30A24C4EBC40000EB4000EA
:1032D000461906F19501E0B2FFF744FB96F89530E8
:1032E000224600214CA0FDF79BFC641CA4B2122CCA
:1032F000EAD39620FFF7EEFA5FF0000400F060FBDF
:1033000004EB440005EBC00606F50472E0B20021B0
:10331000FFF7E8F806F50772E0B20121FFF7E2F8DF
:10332000641CA4B2102CE9D35FF0010405EB440047
:1033300000F58050B0F8901BE0B2FEF759FD641C18
:10334000A4B2122CF2D377B15FF0000405EB440075
:1033500000F58050B0F8B41BE0B2FFF713FD641C19
:10336000A4B2122CF2D30024281900F5805090F852
:10337000DA1BE0B2FFF7C2FB641CA4B2122CF3D339
:103380000024281900F5805090F8EC1BE0B2FFF7FC
:103390002FFC641CA4B2122CF3D3002606EB4600CB
:1033A000002405EBC01700BF00F00AFB04EB44004B
:1033B00007EB8002E1B2F0B202F56472FEF7DAFECA
:1033C000641CA4B2202CEFD3761CB6B2102EE5D329
:1033D000FEF7B4FB98F80000062807D10320FDF79C
:1033E00093FDBDE8F04116A0FDF71ABCBDE8F081E1
:1033F000680200200D0A20557064617461206473B6
:1034000070206D757465206F6E3A20256400000091
:1034100000180140186100200D0A204D69782064D1
:103420006174613A204368616E6E656C3D25642C61
:103430006164643D25782C646174613D25780000E9
:103440000D0A2055706461746120647370206D757D
:103450007465206F66663A002DE9F04781461C4A84
:103460000F0002EB49054FF0640005F5805502D0CE
:10347000012F06D00AE0B5F8B41B0026B1FBF0F42A
:1034800004E0B5F8B41B0024B1FBF0F64FF6FF786A
:10349000B44202D9A4F1010402E002D204F1010411
:1034A000A4B204EBC40000EB041108EA8101484611
:1034B000FFF7A4FCB442EBD1012F06D1B5F8B41B41
:1034C0004846BDE8F047FFF799BCBDE8F08700002B
:1034D000186100202DE9FF4F8DB091460E46184629
:1034E0001A9DFDF771F80022674BFCF75EFF674CF1
:1034F00000222346FCF7D1FF804628460291FDF7C3
:1035000063F800222346FCF7C8FF0490019130467F
:10351000FDF75AF800225E4BFCF747FF00222346D6
:10352000FCF7BBFF05460F464846FDF74DF804463D
:103530000E460022574B28463946FCF7AEFF564D43
:1035400002460B460020294609F076F900915349BE
:1035500083460122D1E90001FDF70EF822463346E9
:10356000FCF729FF4E4BD3E90023FCF796FF814679
:103570008A46012201990498FCF7FEFF04460E4694
:10358000484651460AF09CFA22463346FCF785FF2E
:10359000044601910022434B40460299FCF77DFF0F
:1035A00002460B460020294609F046F98846DDE927
:1035B000003107465A462046FCF76FFF00223A4B7F
:1035C0000B910990FCF750FE0E46DDE900310546EF
:1035D0005A462046FCF7EFFE0022334BCDE90001AE
:1035E000FCF7E6FE3A464346FCF7E5FE2A4633463C
:1035F000FCF753FF0D9AC2E900010D9C484604F107
:10360000080B514608F076F900224FF04043FCF7D2
:10361000D2FE3A464346FCF7CEFE2A463346FCF736
:103620003CFFCBE90001DDE900010BF1080B0022B2
:103630001D4BFCF719FE3A464346FCF7BCFE2A46F2
:103640003346FCF72AFFCBE900010BF10804002206
:10365000154B0B990998FCF7A8FE2A463346FCF750
:103660001CFFC4E900014846514608F043F9012215
:10367000FCF782FF2A463346FCF70FFFC4E902013C
:1036800011B0BDE8F08F0000007097400000594075
:1036900000C0A240000044400000244010C50108C2
:1036A00008C50108000034400000F03F124810B582
:1036B0000168491C016011480068800616D5002089
:1036C0000F4A0A21B0FBF1F301FB1303303313540B
:1036D000401CC0B20A28F5D320220949094805F048
:1036E000D7FF0A220649084803F031FBBDE8104025
:1036F000202001F01BBC0000480000201404014001
:10370000A006002000070020A005002010B5012021
:10371000FEF75AFA03220221BDE81040002004F00F
:10372000E3BC000010B50220FDF7EEFB15A0FDF78D
:1037300077FA1B4904200870002005F02BF90020BF
:10374000FDF71EF9174C00224FF48051204601F07E
:10375000FAFC0022A115144801F0F5FC0022E11446
:10376000204601F0F0FC00226114204601F0EBFC41
:103770000E49486820F4803048600D49C0F3C040CD
:10378000087010BD0D0A20456E7465722050777266
:103790004F6666206D757465206F6E3A00000000FC
:1037A000245F00200014014000080140B48600207E
:1037B0007E020020704770B50D4601461E46144635
:1037C000002005F089F8C5F30741002005F084F8D2
:1037D000C5F30721002005F07FF8E9B2002005F0CD
:1037E0007BF805E0FF21002005F076F804F8010BD6
:1037F000761EB6B2F6D270BD70B50C4601461D46B7
:103800001646002005F068F8C4F30741002005F0D3
:1038100063F8C4F30721002005F05EF8E1B200E090
:103820003146002005F058F86D1EADB2F8D270BDDB
:1038300010B50C460146002005F04EF8C4F30741D0
:10384000002005F049F8C4F30721002005F044F8F2
:10385000E1B2BDE81040002005F03EB870B50D465D
:1038600001461E461446002005F036F8C5F3074110
:10387000002005F031F8C5F30721002005F02CF8F1
:10388000E9B201E014F8011B002005F025F8761ECE
:10389000B6B2F7D270BD0146002005F01DB87047E2
:1038A00003780A78534003700A785A400A70017806
:1038B0005140017070470000064A0021D16106495D
:1038C0000A6942F002020A614861086940F040005A
:1038D00008617047680E0020002002400A4600235D
:1038E0000146022001F0E0BA0A4600230146032007
:1038F00001F0DABA044B0022DA61044A136943F09A
:103900000103136101807047680E0020002002400F
:1039100014480022C168CB06134904D5CA6942F095
:103920000202CA611022C3685B0705D5CB6943F068
:103930000103CB6142F00402C369DB0707D0CB6906
:1039400043F00403CB61C16921F00101C161A2F51B
:103950008071013901D0C2607047C16921F0010155
:10396000C161704700200240680E002070B5054616
:1039700001F0EEFB0646114C09E0681C07D025B1AA
:1039800001F0E6FB801BA84201D9032070BDE0686E
:10399000C007F2D1E068800601D52020E060E06831
:1039A000C00605D4E069C00702D1E068400703D52E
:1039B000FFF7AEFF012070BD002070BD0020024067
:1039C000704700002DE9FF4F83B09A461046FCF780
:1039D000FBFD0C46514905460122D1E90001FCF7E7
:1039E000CBFD2A462346FCF7E6FC4D4BD3E90023EA
:1039F000FCF753FD05460C460AF062F880468946FE
:103A00002846214607F076FF06460F4642464B46BB
:103A1000FCF72AFC0022434BFCF726FC0D4604462B
:103A20001421BAFBF1F0FCF7CFFD02460B46002053
:103A30003D4908F001FF8246DDE903208B4608324C
:103A4000C8B3012834D1039800214B46C0E90011C6
:103A50000392424650465946FCF7ADFC8346224647
:103A60002B460091FCF719FD039A2B46C2E9000191
:103A7000039A584602F1080A22460099FCF70DFD08
:103A80000AF10802CAE900010020E2E802009246B9
:103A900032463B4640464946FCF787FC0022214B14
:103AA000FCF786FC22462B46FCF7F7FCCAE900012E
:103AB00007B0BDE8F08FFFE703980021194BC0E97C
:103AC000001103920A4630463946FCF7CDFBCDE99A
:103AD000000102468BF0004C0B4650466146FCF755
:103AE0006AFC22462B46FCF7D8FC039A5B46C2E9E7
:103AF0000001039ADDE90001083203925246FCF707
:103B00005AFC22462B46FCF7C8FC039AC2E9000186
:103B1000039A0020C2E902001032B8E710C501087C
:103B200008C501080000F03F000024402DE9FF4FC8
:103B300083B098461046FCF747FD0C465C490546A5
:103B40000122D1E90001FCF717FD2A462346FCF7C4
:103B500032FC584BD3E90023FCF79FFC04460D468A
:103B600009F0AEFF06460F462046294607F0C2FE82
:103B700081468A460020504909F0F2FF4F4C024628
:103B80000B4600202146FCF788FC0122FCF7F4FCE0
:103B900002460B4630463946FCF77FFC834600223E
:103BA00023460291FCF760FB0D4604461421B8FB46
:103BB000F1F0FCF709FD02460B460020404908F0F1
:103BC0003BFE06460F46DDE9030100F10808002927
:103BD0004ED0012949D14A46534600203749FCF7C7
:103BE000E4FB22462B46CDE90001FCF756FC3246A9
:103BF0003B46FCF7E0FB4FF0FF32FCF7BDFC039ABD
:103C00002B46C2E90001DDE900012246FCF745FC34
:103C100032463B46FCF7CFFBC8E90001DDE9000175
:103C200022462B46FCF739FC32463B46FCF7C3FBE9
:103C30004FF0FF32FCF7A0FCC8E9020100221F4B45
:103C400058460299FCF7B1FB22462B46FCF725FCAF
:103C5000C8E90401012248465146FCF78DFC224682
:103C60002B46FCF71AFCC8E9060107B0BDE8F08F47
:103C70000022124B48465146FCF7F6FA22462B46E4
:103C8000CDE90001FCF709FC32463B46FCF793FB0B
:103C90004FF0FF32FCF770FC039A5346C2E9000173
:103CA0004A4600200749FCF780FB22462B46ADE739
:103CB00010C5010808C50108000008400000F03FD9
:103CC000000024400000F0BF2DE9FF4F83B098466C
:103CD0001046FCF779FC0C465D4905460122D1E906
:103CE0000001FCF749FC2A462346FCF764FB594BCC
:103CF000D3E90023FCF7D1FB04460D4609F0E0FEB2
:103D000006460F462046294607F0F4FD81468A46BE
:103D100000204FF0804109F023FF4F4C02460B4634
:103D200000202146FCF7B9FB0122FCF725FC0246E6
:103D30000B4630463946FCF7B0FB8346002223464B
:103D40000291FCF791FA0D4604461421B8FBF1F0FC
:103D5000FCF73AFC02460B460020404908F06CFD97
:103D600006460F46DDE9030100F1080800294FD09F
:103D700001294AD14A46534600203749FCF715FB32
:103D800022462B46CDE90001FCF787FB32463B4635
:103D9000FCF711FB4FF0FF32FCF7EEFB039A2B46CA
:103DA000C2E90001DDE90001224600BFFCF775FB16
:103DB00032463B46FCF7FFFAC8E90001DDE90001A5
:103DC00022462B46FCF769FB32463B46FCF7F3FAEA
:103DD0004FF0FF32FCF7D0FBC8E9020100221E4B76
:103DE00058460299FCF7E1FA22462B46FCF755FBB0
:103DF000C8E90401012248465146FCF7BDFB2246B2
:103E00002B46FCF74AFBC8E9060107B0BDE8F08F76
:103E10000022114B48465146FCF726FA22462B4613
:103E2000CDE90001FCF739FB32463B46FCF7C3FA0B
:103E30004FF0FF32FCF7A0FB039A5346C2E90001A2
:103E40004A4600200649FCF7B0FA22462B46ADE769
:103E500010C5010808C501080000F03F000024401B
:103E60000000F0BF0021C0E90011C0E90211044ABE
:103E7000C0E90412C0E90611C0E90811704700004A
:103E80000000F03F2DE9FF4F83B01046DDF844B04D
:103E9000FCF79AFB694E05460C46D6E90001012263
:103EA000FCF76AFB2A462346FCF785FA644BD3E904
:103EB0000023FCF7F2FA05460F4609F001FE04461E
:103EC00088462846394607F015FD81468A465846F9
:103ED000FCF77AFB00225B4BFCF7C6F905460F4660
:103EE0001098FCF771FB02460B46D6E90001FCF77F
:103EF000D4FA2A463B46FCF75EFA09F0E1FD0122BE
:103F0000FCF73AFB504D02460B4600202946FCF7D1
:103F1000C4FA0122FCF730FB02460B46204641461C
:103F2000FCF7BBFA834600222B460291FCF79CF972
:103F300004460D4606981421B0FBF1F0FCF744FB53
:103F400002460B460020414908F076FC07468846A9
:103F5000DDE9030100F1080600294FD001294AD10B
:103F60004A46534600203849FCF71FFA22462B46A2
:103F7000CDE90001FCF791FA3A464346FCF71BFAFB
:103F80004FF0FF32FCF7F8FA039A2B46C2E9000122
:103F9000DDE90001224600BFFCF77FFA3A464346BE
:103FA000FCF709FAC6E90001DDE9000122462B46CB
:103FB000FCF773FA3A464346FCF7FDF94FF0FF323F
:103FC000FCF7DAFAC6E9020100221F4B58460299B3
:103FD000FCF7EBF922462B46FCF75FFAC6E9040131
:103FE000012248465146FCF7C7FA22462B46FCF709
:103FF00054FAC6E9060107B0BDE8F08F0022124B63
:1040000048465146FCF730F922462B46CDE90001DF
:10401000FCF743FA3A464346FCF7CDF94FF0FF323E
:10402000FCF7AAFA039A5346C2E900014A46002067
:104030000749FCF7BAF922462B46ADE710C501083F
:1040400008C501080000E03F0000F03F00002440E8
:104050000000F0BF2DE9F041374C050317466078AA
:104060000A46430805EB032CFF2801D001EB03228D
:10407000012606EB500307F1FF05B3EB152F01D224
:10408000330200E0FBB210282AD00BDC102850D2FB
:10409000DFE800F0262B262B262B262B262B262B83
:1040A000262B262B192820D009DCA0F11100082886
:1040B0003FD2DFE800F01A151A151A151A151D2837
:1040C00013D006DC1A280BD01B280ED01C2830D1A8
:1040D00006E01E2804D01F2807D0FF2829D113E0AE
:1040E0000620FFF7D8FB60780BE061460320FFF75E
:1040F00062FB607806EB5001B1EB152F01D1FF2078
:1041000000E0401C607014E00B460021121D0846C0
:104110003F1F04E012F8015B401C294480B2B84202
:10412000F8DB002060701868884202D10120BDE8E9
:10413000F0810020FBE700005602002070B5050367
:104140000620FFF7A8FB082004F04AFD294620209E
:10415000FFF76EFBC82004F043FD00244FF4807687
:104160000620FFF798FB082004F03AFD3346FF22B3
:1041700029460220FFF740FB082004F031FD641CB3
:10418000E4B205F58075102CEAD370BD2DE9F04737
:104190004E4E17460A46347824B1641E14F0FF04CC
:1041A00034706DD1494C4FEA0030A41C07F1FF0573
:1041B00094F802C05FEA5C0810D04FEA5C0300EBA1
:1041C000032001EB0322A0F58070A2F58072B3EB0F
:1041D000152F02D24FF4807300E0FBB24FF00009BC
:1041E000BCF1110F5BD00DDCBCF1110F66D2DFE822
:1041F0000CF0334850565056505650565056505664
:1042000050565000BCF11A0F43D00ADCACF1120C2E
:10421000BCF1080F52D2DFE80CF03C423C423C4279
:104220003C42BCF11F0F3AD00CDCBCF11B0F36D066
:10423000BCF11C0F2DD0BCF11D0F30D0BCF11E0FF6
:104240003CD126E0BCF1200F23D0BCF1210F26D0B9
:10425000BCF1FF0F32D134E00020121D3F1FC1F826
:10426000009006E00B6812F8015B401C2B4480B202
:104270000B60B842F6DB0620FFF70DFB0120A070B3
:104280001CE001462020FFF7D3FA192030700220ED
:10429000F5E70620FFF7FFFAA078401CEFE701469C
:1042A0000220FFF7DBFAA0784108B1EB152F01D10E
:1042B000FF2000E0401CA070062030700020BDE808
:1042C000F08784F802900120F9E7000054020020F2
:1042D00008B56946032000F055F80098102800D969
:1042E0000020024981F8850C08BD000018710020EB
:1042F0002DE9F041064614460D4680073CD111E0F9
:10430000284609F053FC03462D1D284609F04EFCB3
:104310000246194630462D1DFFF7E6FA60BB083C01
:10432000A4B20836E008EBD10BE0284609F03EFCC9
:10433000014630462D1DFFF7D1FAE8B9241FA4B27B
:10434000361DA008F1D1D4B100210846FF2300E0BA
:104350003CB115F8012BC700BA401143641EA4B24A
:1043600003E0C70003FA07F21143401C0428EFD30F
:104370003046FFF7B3FA10B10020BDE8F08101200C
:10438000FBE70000024A404202EB402000F040B848
:1043900000000408074B404203EB402004E000BF4C
:1043A00010F8013B01F8013B521E92B2F8D20120F5
:1043B000704700000000040870B50D4606494042F1
:1043C00001EB40242046FFF777FA29462046BDE856
:1043D000704000F033B800000000040870B50E46CD
:1043E0000749404201EB402415462046FFF764FA96
:1043F0002A4631462046BDE87040FFF779BF0000ED
:10440000000004080149002048707047560200204F
:10441000820701D0002070470068086001207047C3
:10442000024890F8851C0320FFF7C6BF18710020D2
:104430000149002088707047560200200A4610B5D6
:1044400001460023022000F02FFD08B1002010BD1E
:10445000012010BD10B5FDF7DAFB04F04FFB03F0AF
:10446000E5F902F00FFFFCF7A3FABDE81040FFF7F3
:10447000A1B900000246002003E000BF12F8013B92
:104480005840491EC9B2F9D270470000024A02EBF7
:104490000010012203F00EBF28030020884200D93B
:1044A0000846704738B5044669460120FFF76AFFA1
:1044B0000098A04201D1012038BD002038BD000085
:1044C000F8B500250446009590F82400012808D08E
:1044D000012084F824002046FCF772FA060002D07E
:1044E0004BE00220F8BDA06A20F4885040F00200A2
:1044F000A062022001F076F922490968B1FBF0F0D0
:10450000400000E0401E00900028FBD12046FCF750
:10451000B7FA2068816841F00801816000F018FE58
:10452000074604E000F014FEC01B0A2811D82068DA
:1045300080680007F6D42068816841F0040181603A
:1045400000F006FE07460EE000F002FEC01B0A283F
:1045500009D9A06A20F0020040F01000A06284F89F
:1045600024500120F8BD206880684007ECD4A06A80
:1045700020F0020040F00100A06284F82450304690
:10458000F8BD0000E000002070470000F8B50024EE
:10459000009490F824202546012A12D0012280F8A8
:1045A00024204A681F23072A0DD20668776B521E03
:1045B00002EB820293409F430B6893401F43776353
:1045C00019E00220F8BD06680D2A0AD2376BD21F07
:1045D00002EB820293409F430B6893401F43376373
:1045E00009E0F76A0D3A02EB820293409F430B68A1
:1045F00093401F43F7620A68072306680A2A0AD312
:10460000F7680A3A02EB420293409F438B6893405B
:104610001F43F76008E0376902EB420293409F4373
:104620008B6893401F4337610A68102A01D0112A12
:1046300020D1124B02689A4217D193681B0219D4F9
:10464000936843F4000393600968102912D10C4960
:104650000C4A0968B1FBF2F101EB8101490000E06D
:10466000491E00910029FBD104E0816A41F020013C
:104670008162012480F824502046F8BD00240140C6
:10468000E000002040420F0070477047704710B5AF
:10469000044600684168890626D50168890723D544
:1046A000A16AC90603D4A16A41F40071A1628168BC
:1046B000C1F34241072910D1217B71B9416821F032
:1046C00020014160A06A20F48070A062A06AC0044A
:1046D00003D4A06A40F00100A0622046FFF7D4FF97
:1046E00021686FF0120008602068416809062ED525
:1046F000016849072BD5A16AC90603D4A16A41F410
:104700000051A1628168C1F30231072909D04168D3
:10471000490515D48168C1F34241072910D1217B95
:1047200071B9416821F080014160A06A20F4805095
:10473000A062A06AC00503D4A06A40F00100A06294
:104740002046FFF721FF21686FF00C000860206809
:10475000416849060DD50068C0070AD0A06A40F438
:104760008030A062204600F095F821686FF00100CB
:10477000086010BD2DE9F04104004FF000057FD026
:10478000A06A002628B9E66284F82460204600F07A
:1047900083F82046FCF714F9A16AC90600D420B1B9
:1047A000A06A40F01000A0626AE0A16A21F488517A
:1047B00041F00201A162334923688B42E16904D1CF
:1047C000B1F5402F01D14FF40021277B4FF4807CBD
:1047D00041EA470261680A43A168614508D001299E
:1047E00006D0002194F814E0BEF1010F02D00AE0D7
:1047F0006146F7E7C7B1A76A47F02007A762E76AF3
:1048000047F00107E7625F6827F469470F435F607D
:10481000236899681C4F394011439960A16861452C
:104820000BD0012909D00CE0DFF860E0A7690EEB9E
:1048300047370F4347F40061E5E7218A0D05A5F5E9
:1048400080152168CB6A23F470032B43CB62216867
:1048500089680F4B1940914208D1E662A16A21F0A4
:10486000020141F00101A162BDE8F081A06A20F0DF
:10487000020040F01000A062E06A40F00100E06237
:104880000120F1E7003C0140FDF7E1FF00E0FFFF00
:10489000FE0E1FFF7047000070B586B0002506466B
:1048A000009501950295039500681E49884236D10E
:1048B0001D49886940F400708861886900F40070BF
:1048C0000490886940F0100088618869694600F0AA
:1048D000100004903020009003200190134800F055
:1048E00031FB144C1248C4E900058020C4E9025091
:1048F00080002061800060612020C4E90605204618
:1049000000F05CFA08B1FEF7CAFF3462002205210C
:104910001220666200F0A8FC122000F097FC06B09E
:1049200070BD000000240140001002400010014052
:1049300008000240C00300202DE9F04789460446E4
:104940003B4900683B4F0E1D9046884201D0B8425B
:1049500007D1306810F4702F03D001252846BDE838
:10496000F08794F8240001280CD0012084F824005A
:104970002046FCF785F805004FF0000004D084F8CD
:104980002400EBE70220EAE7A16A40F601629143C6
:1049900041F48071A1622168B94218D1326812F4E1
:1049A000702F14D0A16A41F48011A16231684905C9
:1049B00005D5A16A21F4005141F48051A162A16A98
:1049C000C9040AD5E16A21F00601E16206E0A26AA3
:1049D00022F48012A2624968E9E7E06284F82400C8
:1049E000216A15488862216A1448C862216A1448FD
:1049F000086321686FF0020008602068816841F454
:104A000080718160216843464A464C31206A00F03B
:104A100013FA20688168C1F342410729816803D0F5
:104A200041F48011816099E741F4A001FAE70000A8
:104A300000240140002801400D0A0008750A000802
:104A40005B0A00082DE9F05F90F82110002402298C
:104A500003D004218163012485E001680A6822F003
:104A60000E020A6001680A6822F001020A603F4EE5
:104A70003E4FB215DFF8F4C0DFF8F090DFF8ECA09D
:104A8000DFF8E8B0DFF8E4E00168783F13011502D1
:104A9000ACF1640CA9F15009AAF13C0AABF1280B66
:104AA000AEF1140E4FF48018B14227D9B9420ED09E
:104AB000614512D049451DD0514518D0594518D0EF
:104AC000714501D1424615E0294EB14201D1012282
:104AD00010E0274E1436B14201D110220AE0244ED4
:104AE0002836B14206D0224A3C32914201D11A46C0
:104AF00000E02A461E49091F0A602BE0B94213D084
:104B0000614517D0494522D051451DD059451DD08A
:104B1000714501D142461AE0B14202D14FF0807294
:104B200015E0134EB14201D1012210E0104E1436AF
:104B3000B14201D110220AE00D4E2836B14206D012
:104B40000B4A3C32914201D11A4600E02A460749FD
:104B500080394A60012180F82110002180F820105E
:104B6000416B01B188472046BDE8F09F80000240BC
:104B7000080402402DE9F05FC16B0A6801680B6808
:104B8000046C4FF0040808FA04F8844D844E854FF5
:104B9000DFF814C2DFF81492DFF814A2DFF814B2C1
:104BA000DFF814E218EA020F65D05FEA437862D5B5
:104BB0000A68920603D40A6822F004020A60DFF849
:104BC000F0814FF48062016808F1140813011402A7
:104BD000414524D9A9420DD0B1420FD0B9421AD0D3
:104BE000614515D0494515D0514501D1120312E058
:104BF000594501D104220EE0714501D140220AE05D
:104C00006D4D1435A94206D06B4A2832914201D12C
:104C10001A4600E022466749091F0A6029E0A942B6
:104C200013D0B14215D0B94220D061451BD04945BF
:104C30001BD0514502D14FF4800217E0414502D10B
:104C40004FF0806212E0594501D104220EE0714517
:104C500001D140220AE0584D1435A94206D0564AE7
:104C60002832914201D11A4600E022464B490839C8
:104C70004A60C16A71E04FF0020808FA04F818EAC5
:104C8000020F70D05FEA83786DD50A68920606D469
:104C90000A6822F00A020A60012180F82110DFF878
:104CA00010814FF40072016808F114081301140216
:104CB000414524D9A9420DD0B1420FD0B9421AD0F2
:104CC000614515D0494515D0514501D1120312E077
:104CD000594501D102220EE0714501D120220AE09E
:104CE000354D1435A94206D0334A2832914201D1BC
:104CF0001A4600E022462F49091F0A6029E0A9420E
:104D000013D0B14215D0B94220D061451BD04945DE
:104D10001BD0514502D14FF4001217E0414502D19A
:104D20004FF0007212E0594501D102220EE07145A8
:104D300001D120220AE0204D1435A94206D01E4A96
:104D40002832914201D11A4600E02246134908391F
:104D50004A60002180F82010816A00291CD0BDE83B
:104D6000F05F0847FFE70825A540154214D01A0751
:104D700012D50A6822F00E020A6090F84020C36B38
:104D8000012101FA02F25A60816380F821100021AA
:104D900080F82010016BE0E7BDE8F09F08000240BA
:104DA0001C00024030000240440002405800024013
:104DB0006C000240080402401C04024030B560B19F
:104DC0001A4B026814219A4209D2194B1344B3FBBF
:104DD000F1F18900016417490AE0012030BD134B4D
:104DE0005B421344B3FBF1F1890001640F490839B8
:104DF000C163022180F82110136843F6F0718B43E0
:104E0000F0E901142143D0E902452C432143046910
:104E100021434469214384692143194311600021DE
:104E20004163012242770177084630BD0804024001
:104E3000F8FFFDBF0000024070B5044690F8200066
:104E4000002501280CD0012084F8200094F821606E
:104E50000020012E06D084F820000225284670BDCF
:104E6000022070BD022684F82160A06320680668D5
:104E700026F0010606602046FCF7B4FEE06A002832
:104E80002068016802D041F00E0106E021F0040123
:104E900001602068016841F00A0101602068016832
:104EA00041F001010160D9E72DE9F05F07461C4898
:104EB00088460024017E15461E46012909D001219D
:104EC000814601764CF2503A5046FEF74FFD18B13C
:104ED00022E00220BDE8F09F012F02D0022F00D077
:104EE0000427D346DFF83CA0220128463146FBF7D1
:104EF00087F981B208EB4400FEF7FCFC5846FEF748
:104F000035FDDAF8102022F00102CAF8102018B995
:104F1000641CE4B2BC42E7D3002289F81820D9E728
:104F2000680E00200020024070470000044910B5C0
:104F30000A68024202D00860FFF7F6FF10BD0000C9
:104F4000140401402DE9F84FDFF8C891002409F15D
:104F5000040A0AF1040B23460F270BF1040ED1E0DB
:104F60000125A54006EA0502AA4276D1DFF8A8C1CC
:104F70004E68A6EB0C0866452BD00DDC032E34D012
:104F800005DC36B3012E19D0022E2FD11BE0112ED5
:104F900016D0122E2AD119E0B8F5881F19D006DCD8
:104FA000B8F5803F15D0B8F5801F1FD111E0B8F5D6
:104FB000001F0ED0B8F5041F18D10AE0CB6815E029
:104FC000CB681B1D12E0CB6808330FE0CB680C33B5
:104FD0000CE08B682BB1012B4FF0080303D0456127
:104FE00004E0042302E0056100E00023FF2A01D869
:104FF000064601E000F104064FEA840501D9A5F157
:105000002005D6F8008007FA05FC28EA0C0803FA08
:1050100005F548EA0508C6F800804D68ED0070D532
:105020003E4DAE6946F00106AE61AD6924F003065F
:1050300005F0010500953A4D06EB050CDCF808502B
:10504000A607360F07FA06F825EA0805DFF8D48028
:10505000404503D14FF0000825E052E0DFF8C8805A
:10506000404502D14FF001081DE0DFF8C080404507
:1050700002D14FF0020816E0DFF8B480404502D1BB
:105080004FF003080FE0DFF8AC80404502D14FF04D
:10509000040808E0DFF8A080404502D14FF0050881
:1050A00001E04FF0060808FA06F848EA0508CCF8CF
:1050B00008804D68D9F80060ED034D4601D51643D0
:1050C00000E096432E604D68DAF80060AD03554667
:1050D00001D5164300E096432E604D68DBF8006072
:1050E000ED025D4601D5164300E096432E604D6803
:1050F000DEF80060AD02754601D5164300E0964328
:105100002E60641C0A681646E2407FF429AFBDE8B1
:10511000F88F000000040140000011100010024050
:105120000000014000080140000C01400010014057
:105130000014014000180140001C01408068084034
:1051400000D0012070470AB1016170470904FBE7F4
:105150000148806870470000D40000200248816840
:105160000278114481607047D4000020074810B5D0
:10517000016841F010010160032000F095F8002063
:1051800000F006F800F03EF8002010BD00200240BC
:1051900000B5014687B00022192000F065F81920FB
:1051A00000F054F81348816941F40061816180691D
:1051B00005A900F400600690684600F089FC00F044
:1051C000B7FC0D490D4AB0FBF1F10D48491E0260D4
:1051D000416040F2E7320021C0E90321816001F023
:1051E00069FA10B1012007B000BD054801F09CFA32
:1051F000F9E700000010024040420F00002C01407F
:10520000C00600200F4808B5816941F001018161A5
:10521000816901F001010091C16941F08051C161D2
:10522000C069002200F0805000900F21901E00F015
:105230001BF80548416821F0E06141F000714160D0
:1052400008BD00000010024000000140002809DBFA
:1052500000F01F02012191404009800000F1E02090
:10526000C0F8001170470000F0B40E4B1B680C46EC
:10527000C3F30223C3F10705042D00D90425191D2A
:10528000072901D2002300E0DB1E012606FA05F102
:10529000491E214099409E40761E16403143F0BC85
:1052A00005F068BB0CED00E0064900F00702086855
:1052B0004FF6FF03184040EA0220034A10430860FB
:1052C000704700000CED00E00000FA0510B50C0678
:1052D00005D501F0070100EB4110283003E000EB99
:1052E000411000F5947099B232B10122027301812C
:1052F000190C4181002010BD00220273C180F9E722
:10530000704700EB4112D0F86802D26B04F0E5BBA5
:1053100000EB4112D0F86802D2F83C2104F040BC06
:1053200070B504460B0601F0070004EB40114FF086
:1053300001024FF0000503D581F82920283103E050
:1053400081F8295101F59471087094F82802012818
:1053500008D084F82822206805F05BF884F82852E9
:10536000002070BD022070BD70B5044601F00F0032
:105370006268904201D9012070BD0B0601F0070060
:1053800004EB40114FF001024FF0000503D581F806
:105390002920283103E081F8295101F594718D709D
:1053A000087094F82802012808D084F82822206880
:1053B00005F0D2F884F82852002070BD022070BD9C
:1053C0002DE9F04104460F0601F0070004EB4011FF
:1053D0004FF001064FF0000503D581F82960283110
:1053E00003E081F8295101F5947108700A61CB70CE
:1053F0004A7802B1C881022B00D10D7194F82802BD
:10540000012809D084F82862206804F0CDFE2846DF
:1054100084F82852BDE8F0810220FBE770B50C4605
:1054200001F0070500EB4511C1E94F230022C1F847
:10543000442181F8292181F8285101F594716207EE
:10544000006805F0DEF8002070BD70B504460D461A
:1054500001F007006168884201D9012070BD29066A
:105460004FF000064FF0010205D504EB401181F822
:105470002920283105E004EB451181F8296101F567
:1054800094718A70087094F82802012807D084F873
:105490002822206805F09CF8680702D006E0022068
:1054A00070BD04F50C71206805F054F884F828628A
:1054B000002070BD70B50C4601F0070500EB4511EA
:1054C000C1E90F2300224A64012281F8292001F852
:1054D000285F6207006805F094F8002070BD10B5E1
:1054E0000446006805F06EF9000402D5204602F07B
:1054F00099FC206805F066F940050CD5206830F865
:10550000441F21F480610180204600F003F900214E
:10551000204600F01AF9206805F054F9400405D53A
:10552000206830F8441F21F480410180206805F094
:1055300049F9800405D5206830F8441F21F4005152
:105540000180206805F03EF9C00414D5206830F8C9
:10555000401F21F004010180206830F8401F21F035
:1055600008010180204600F0E8F8206830F8441F68
:1055700021F480510180206805F024F900051FD531
:10558000206830F8401F41F008010180206830F8A1
:10559000441F21F400610180206830F8401F41F071
:1055A00004010180206805F00DF9C00405D52068CC
:1055B00030F8441F21F480510180204600F0FAF8B1
:1055C000206805F0FFF8800508D5206830F8441FF2
:1055D00021F400710180204600F0B3F8206805F046
:1055E000F1F8C00505D5206830F8441F21F480711A
:1055F000018010BD2DE9F04186B0040004D094F87C
:105600002902002520B108E0012006B0BDE8F081A4
:1056100084F82852204600F057F8032084F8290225
:10562000206804F090FF04F11001142288466846B7
:10563000FAF7F6FD94E80F0004F0E9FE0227B0BB8C
:105640000021206805F0D8F8002001260DE000BFF9
:1056500004EB401181F8296001F8280FC881CD7052
:105660000D614D61401CC0B28D6161688142EFD80F
:1056700000200FE004EB401181F8295181F8280146
:1056800081F82B51C1F83851C1F83C51401CC0B2CF
:10569000C1F8405161688142ECD814224146684605
:1056A000FAF7BEFD94E80F0004F03EFF10B184F855
:1056B0002972A9E784F8245084F82962206804F04C
:1056C00031FF0020A1E7000008B500680F498842BB
:1056D0001AD10F48C16941F40001C161C0690022BB
:1056E00000F40000009005211320FFF7BDFD1320FA
:1056F000FFF7ACFD002205211420FFF7B5FDBDE842
:1057000008401420FFF7A2BD08BD0000005C004067
:105710000010024070B5044680680125022801D0BF
:10572000FEF7BDF82946D4F8680204F014FBD4F85B
:105730006802BDE8704004F0D0BAD0F8680204F006
:10574000F4BAD0F8680204F0FABA10B5044690F83A
:10575000280201280BD0012084F8280284F82410A4
:10576000206805F04BF8002084F8280210BD0220C4
:1057700010BDD0F8682200F50C71104604F0F7BA9D
:1057800010B5044690F82802012810D0012084F8B2
:10579000280201462046FFF7B3FD206804F0C0FE52
:1057A000206804F0FCFF002084F8280210BD0220CD
:1057B00010BD000010B50446D0F8680204F016FBD6
:1057C000A069002804D00348016841F00601016087
:1057D00010BD000010ED00E0014901200862704793
:1057E00000000E4210B52CA401461DCC86B08DE8F9
:1057F0001D002DA02D4C00680490002004292FD0FE
:105800000BDC01292FD0022928D100F091F9616821
:10581000C1F38131491C49001EE0082920D010291C
:105820001CD161682268D20118D5C1F38342C90333
:105830001DF8020009D5616804AAC1F34041515C1A
:105840001B4AB2FBF1F1484301E01A494843616841
:10585000490203D440000321B0FBF1F006B010BDB3
:1058600000F076F9FAE7226AC2F30121012903D197
:10587000920701D5C803F1E7022905D1626A9207B0
:1058800002D549F64040E9E70329E7D121688903B9
:10589000E4D54FF22440E1E70203040506070809B6
:1058A0000A0B0C0D0E0F1010010200000010024038
:1058B00000127A0000093D002DE9F8430546007802
:1058C000354CC00754D0E0690026C00008D4E06918
:1058D00040F08050E061E069012600F080500090C7
:1058E0002E480168C90512D40168804641F48071D0
:1058F0000160FFF72DFC074605E000BFFFF728FC1D
:10590000C01B642823D8D8F80000C005F6D5206A4B
:1059100010F4407021D0A98801F4407181421CD05C
:10592000206A1F49012220F440700A6000220A60A8
:105930002062C00711D0FFF70BFC074641F2883800
:1059400008E000BFFFF704FCC11B414502D903205A
:10595000BDE8F883206A8007F4D5206A696820F4DE
:105960004070084320621EB1E06920F08050E06181
:105970002878800705D56068A96820F4404008436E
:1059800060602878C00605D56068696920F48000E9
:10599000084360600020DBE7001002400070004018
:1059A000400442422DE9F0470F46050061D0434EC6
:1059B000306800F00700B84209D2306820F00700D4
:1059C00038433060306800F00700B84251D1286891
:1059D0003B4C810712D5400703D5606840F4E06076
:1059E00060602878000703D5606840F4605060600C
:1059F0006068A96820F0F000084360602878C0075C
:105A000028D06868012810D02168022810D08907A2
:105A100000292EDA616821F0030101436160FFF77C
:105A200097FB804641F288390DE021688903EFE752
:105A30008901EDE7FFF78CFBA0EB0801494502D98E
:105A40000320BDE8F0876068696800F00C00B0EBE7
:105A5000810FEFD1306800F00700B8420BD93068F1
:105A600020F0070038433060306800F00700B8428B
:105A700001D00120E5E72878400705D56068E9688E
:105A800020F4E060084360602878000706D560686D
:105A9000296920F4605040EAC100606000F058F8C5
:105AA0006168084AC1F30311515CC84006490860A7
:105AB00006480068FFF76CFB0020C2E700200240A8
:105AC000001002403CEF0008E0000020D800002059
:105AD0000F2202600C4A536803F0030343605368CB
